{
  "_format": "hh-sol-artifact-1",
  "contractName": "ACoin",
  "sourceName": "contracts/a-coin.sol",
  "abi": [
    {
      "inputs": [],
      "stateMutability": "nonpayable",
      "type": "constructor"
    },
    {
      "anonymous": false,
      "inputs": [
        {
          "indexed": true,
          "internalType": "address",
          "name": "owner",
          "type": "address"
        },
        {
          "indexed": true,
          "internalType": "address",
          "name": "approved",
          "type": "address"
        },
        {
          "indexed": true,
          "internalType": "uint256",
          "name": "tokenId",
          "type": "uint256"
        }
      ],
      "name": "Approval",
      "type": "event"
    },
    {
      "anonymous": false,
      "inputs": [
        {
          "indexed": true,
          "internalType": "address",
          "name": "owner",
          "type": "address"
        },
        {
          "indexed": true,
          "internalType": "address",
          "name": "operator",
          "type": "address"
        },
        {
          "indexed": false,
          "internalType": "bool",
          "name": "approved",
          "type": "bool"
        }
      ],
      "name": "ApprovalForAll",
      "type": "event"
    },
    {
      "anonymous": false,
      "inputs": [
        {
          "indexed": true,
          "internalType": "address",
          "name": "previousOwner",
          "type": "address"
        },
        {
          "indexed": true,
          "internalType": "address",
          "name": "newOwner",
          "type": "address"
        }
      ],
      "name": "OwnershipTransferred",
      "type": "event"
    },
    {
      "anonymous": false,
      "inputs": [
        {
          "indexed": false,
          "internalType": "address",
          "name": "",
          "type": "address"
        },
        {
          "indexed": false,
          "internalType": "uint256",
          "name": "",
          "type": "uint256"
        }
      ],
      "name": "Received",
      "type": "event"
    },
    {
      "anonymous": false,
      "inputs": [
        {
          "indexed": true,
          "internalType": "address",
          "name": "from",
          "type": "address"
        },
        {
          "indexed": true,
          "internalType": "address",
          "name": "to",
          "type": "address"
        },
        {
          "indexed": true,
          "internalType": "uint256",
          "name": "tokenId",
          "type": "uint256"
        }
      ],
      "name": "Transfer",
      "type": "event"
    },
    {
      "stateMutability": "payable",
      "type": "fallback"
    },
    {
      "inputs": [
        {
          "internalType": "address",
          "name": "to",
          "type": "address"
        },
        {
          "internalType": "uint256",
          "name": "tokenId",
          "type": "uint256"
        }
      ],
      "name": "approve",
      "outputs": [],
      "stateMutability": "nonpayable",
      "type": "function"
    },
    {
      "inputs": [
        {
          "internalType": "address",
          "name": "owner",
          "type": "address"
        }
      ],
      "name": "balanceOf",
      "outputs": [
        {
          "internalType": "uint256",
          "name": "",
          "type": "uint256"
        }
      ],
      "stateMutability": "view",
      "type": "function"
    },
    {
      "inputs": [
        {
          "internalType": "uint256",
          "name": "tokenId",
          "type": "uint256"
        }
      ],
      "name": "getApproved",
      "outputs": [
        {
          "internalType": "address",
          "name": "",
          "type": "address"
        }
      ],
      "stateMutability": "view",
      "type": "function"
    },
    {
      "inputs": [],
      "name": "getCCoinContractAddress",
      "outputs": [
        {
          "internalType": "address",
          "name": "",
          "type": "address"
        }
      ],
      "stateMutability": "view",
      "type": "function"
    },
    {
      "inputs": [],
      "name": "getContractOwner",
      "outputs": [
        {
          "internalType": "address",
          "name": "",
          "type": "address"
        }
      ],
      "stateMutability": "view",
      "type": "function"
    },
    {
      "inputs": [
        {
          "internalType": "address",
          "name": "owner",
          "type": "address"
        },
        {
          "internalType": "address",
          "name": "operator",
          "type": "address"
        }
      ],
      "name": "isApprovedForAll",
      "outputs": [
        {
          "internalType": "bool",
          "name": "",
          "type": "bool"
        }
      ],
      "stateMutability": "view",
      "type": "function"
    },
    {
      "inputs": [
        {
          "internalType": "uint256",
          "name": "tokenId",
          "type": "uint256"
        }
      ],
      "name": "isForSale",
      "outputs": [
        {
          "internalType": "bool",
          "name": "",
          "type": "bool"
        }
      ],
      "stateMutability": "view",
      "type": "function"
    },
    {
      "inputs": [
        {
          "internalType": "address",
          "name": "recipient",
          "type": "address"
        },
        {
          "internalType": "string",
          "name": "tokenURI",
          "type": "string"
        }
      ],
      "name": "mintNFT",
      "outputs": [
        {
          "internalType": "uint256",
          "name": "",
          "type": "uint256"
        }
      ],
      "stateMutability": "nonpayable",
      "type": "function"
    },
    {
      "inputs": [],
      "name": "name",
      "outputs": [
        {
          "internalType": "string",
          "name": "",
          "type": "string"
        }
      ],
      "stateMutability": "view",
      "type": "function"
    },
    {
      "inputs": [],
      "name": "owner",
      "outputs": [
        {
          "internalType": "address",
          "name": "",
          "type": "address"
        }
      ],
      "stateMutability": "view",
      "type": "function"
    },
    {
      "inputs": [
        {
          "internalType": "uint256",
          "name": "tokenId",
          "type": "uint256"
        }
      ],
      "name": "ownerOf",
      "outputs": [
        {
          "internalType": "address",
          "name": "",
          "type": "address"
        }
      ],
      "stateMutability": "view",
      "type": "function"
    },
    {
      "inputs": [
        {
          "internalType": "uint256",
          "name": "tokenId",
          "type": "uint256"
        }
      ],
      "name": "priceOf",
      "outputs": [
        {
          "internalType": "uint256",
          "name": "",
          "type": "uint256"
        }
      ],
      "stateMutability": "view",
      "type": "function"
    },
    {
      "inputs": [],
      "name": "renounceOwnership",
      "outputs": [],
      "stateMutability": "nonpayable",
      "type": "function"
    },
    {
      "inputs": [
        {
          "internalType": "address",
          "name": "from",
          "type": "address"
        },
        {
          "internalType": "address",
          "name": "to",
          "type": "address"
        },
        {
          "internalType": "uint256",
          "name": "tokenId",
          "type": "uint256"
        }
      ],
      "name": "safeTransferFrom",
      "outputs": [],
      "stateMutability": "nonpayable",
      "type": "function"
    },
    {
      "inputs": [
        {
          "internalType": "address",
          "name": "from",
          "type": "address"
        },
        {
          "internalType": "address",
          "name": "to",
          "type": "address"
        },
        {
          "internalType": "uint256",
          "name": "tokenId",
          "type": "uint256"
        },
        {
          "internalType": "bytes",
          "name": "data",
          "type": "bytes"
        }
      ],
      "name": "safeTransferFrom",
      "outputs": [],
      "stateMutability": "nonpayable",
      "type": "function"
    },
    {
      "inputs": [
        {
          "internalType": "address",
          "name": "operator",
          "type": "address"
        },
        {
          "internalType": "bool",
          "name": "approved",
          "type": "bool"
        }
      ],
      "name": "setApprovalForAll",
      "outputs": [],
      "stateMutability": "nonpayable",
      "type": "function"
    },
    {
      "inputs": [
        {
          "internalType": "uint256",
          "name": "tokenId",
          "type": "uint256"
        },
        {
          "internalType": "bool",
          "name": "forSale",
          "type": "bool"
        }
      ],
      "name": "setForSale",
      "outputs": [],
      "stateMutability": "nonpayable",
      "type": "function"
    },
    {
      "inputs": [
        {
          "internalType": "uint256",
          "name": "tokenId",
          "type": "uint256"
        },
        {
          "internalType": "uint256",
          "name": "price",
          "type": "uint256"
        }
      ],
      "name": "setPrice",
      "outputs": [],
      "stateMutability": "nonpayable",
      "type": "function"
    },
    {
      "inputs": [
        {
          "internalType": "bytes4",
          "name": "interfaceId",
          "type": "bytes4"
        }
      ],
      "name": "supportsInterface",
      "outputs": [
        {
          "internalType": "bool",
          "name": "",
          "type": "bool"
        }
      ],
      "stateMutability": "view",
      "type": "function"
    },
    {
      "inputs": [],
      "name": "symbol",
      "outputs": [
        {
          "internalType": "string",
          "name": "",
          "type": "string"
        }
      ],
      "stateMutability": "view",
      "type": "function"
    },
    {
      "inputs": [
        {
          "internalType": "uint256",
          "name": "tokenId",
          "type": "uint256"
        }
      ],
      "name": "tokenURI",
      "outputs": [
        {
          "internalType": "string",
          "name": "",
          "type": "string"
        }
      ],
      "stateMutability": "view",
      "type": "function"
    },
    {
      "inputs": [
        {
          "internalType": "address",
          "name": "from",
          "type": "address"
        },
        {
          "internalType": "address",
          "name": "to",
          "type": "address"
        },
        {
          "internalType": "uint256",
          "name": "tokenId",
          "type": "uint256"
        }
      ],
      "name": "transferFrom",
      "outputs": [],
      "stateMutability": "nonpayable",
      "type": "function"
    },
    {
      "inputs": [
        {
          "internalType": "address",
          "name": "newOwner",
          "type": "address"
        }
      ],
      "name": "transferOwnership",
      "outputs": [],
      "stateMutability": "nonpayable",
      "type": "function"
    },
    {
      "stateMutability": "payable",
      "type": "receive"
    }
  ],
  "bytecode": "0x60806040523480156200001157600080fd5b506040518060400160405280600881526020017f41436f696e4e46540000000000000000000000000000000000000000000000008152506040518060400160405280600581526020017f41436f696e00000000000000000000000000000000000000000000000000000081525081600090805190602001906200009692919062000253565b508060019080519060200190620000af92919062000253565b505050620000d2620000c66200018560201b60201c565b6200018d60201b60201c565b30600860006101000a81548173ffffffffffffffffffffffffffffffffffffffff021916908373ffffffffffffffffffffffffffffffffffffffff1602179055506040516200012190620002e4565b604051809103906000f0801580156200013e573d6000803e3d6000fd5b50600c60006101000a81548173ffffffffffffffffffffffffffffffffffffffff021916908373ffffffffffffffffffffffffffffffffffffffff16021790555062000376565b600033905090565b6000600760009054906101000a900473ffffffffffffffffffffffffffffffffffffffff16905081600760006101000a81548173ffffffffffffffffffffffffffffffffffffffff021916908373ffffffffffffffffffffffffffffffffffffffff1602179055508173ffffffffffffffffffffffffffffffffffffffff168173ffffffffffffffffffffffffffffffffffffffff167f8be0079c531659141344cd1fd0a4f28419497f9722a3daafe3b4186f6b6457e060405160405180910390a35050565b828054620002619062000340565b90600052602060002090601f016020900481019282620002855760008555620002d1565b82601f10620002a057805160ff1916838001178555620002d1565b82800160010185558215620002d1579182015b82811115620002d0578251825591602001919060010190620002b3565b5b509050620002e09190620002f2565b5090565b612007806200376883390190565b5b808211156200030d576000816000905550600101620002f3565b5090565b7f4e487b7100000000000000000000000000000000000000000000000000000000600052602260045260246000fd5b600060028204905060018216806200035957607f821691505b6020821081141562000370576200036f62000311565b5b50919050565b6133e280620003866000396000f3fe6080604052600436106101445760003560e01c80638546d002116100b6578063c87b56dd1161006f578063c87b56dd14610526578063e985e9c514610563578063eacabe14146105a0578063f0a6c16b146105dd578063f2fde38b14610606578063f7d975771461062f576101c2565b80638546d002146104045780638da5cb5b1461044157806395d89b411461046c578063a22cb46514610497578063b88d4fde146104c0578063b9186d7d146104e9576101c2565b806333971b8c1161010857806333971b8c146102f457806342842e0e1461031f578063442890d5146103485780636352211e1461037357806370a08231146103b0578063715018a6146103ed576101c2565b806301ffc9a7146101fd57806306fdde031461023a578063081812fc14610265578063095ea7b3146102a257806323b872dd146102cb576101c2565b366101c2576101876040518060400160405280600881526020017f5265636569766564000000000000000000000000000000000000000000000000815250610658565b7f88a5966d370b9919b20f3e2c13ff65706f196a4e32cc2c12bf57088f8852587433346040516101b89291906120d5565b60405180910390a1005b7f88a5966d370b9919b20f3e2c13ff65706f196a4e32cc2c12bf57088f8852587433346040516101f39291906120d5565b60405180910390a1005b34801561020957600080fd5b50610224600480360381019061021f919061216a565b6106f1565b60405161023191906121b2565b60405180910390f35b34801561024657600080fd5b5061024f6107d3565b60405161025c9190612266565b60405180910390f35b34801561027157600080fd5b5061028c600480360381019061028791906122b4565b610865565b60405161029991906122e1565b60405180910390f35b3480156102ae57600080fd5b506102c960048036038101906102c49190612328565b6108ab565b005b3480156102d757600080fd5b506102f260048036038101906102ed9190612368565b6109c3565b005b34801561030057600080fd5b50610309610a23565b60405161031691906122e1565b60405180910390f35b34801561032b57600080fd5b5061034660048036038101906103419190612368565b610a4d565b005b34801561035457600080fd5b5061035d610a6d565b60405161036a91906122e1565b60405180910390f35b34801561037f57600080fd5b5061039a600480360381019061039591906122b4565b610a97565b6040516103a791906122e1565b60405180910390f35b3480156103bc57600080fd5b506103d760048036038101906103d291906123bb565b610b49565b6040516103e491906123e8565b60405180910390f35b3480156103f957600080fd5b50610402610c01565b005b34801561041057600080fd5b5061042b600480360381019061042691906122b4565b610c15565b60405161043891906121b2565b60405180910390f35b34801561044d57600080fd5b50610456610c3f565b60405161046391906122e1565b60405180910390f35b34801561047857600080fd5b50610481610c69565b60405161048e9190612266565b60405180910390f35b3480156104a357600080fd5b506104be60048036038101906104b9919061242f565b610cfb565b005b3480156104cc57600080fd5b506104e760048036038101906104e291906125a4565b610d11565b005b3480156104f557600080fd5b50610510600480360381019061050b91906122b4565b610d73565b60405161051d91906123e8565b60405180910390f35b34801561053257600080fd5b5061054d600480360381019061054891906122b4565b610d90565b60405161055a9190612266565b60405180910390f35b34801561056f57600080fd5b5061058a60048036038101906105859190612627565b610ea3565b60405161059791906121b2565b60405180910390f35b3480156105ac57600080fd5b506105c760048036038101906105c29190612708565b610f37565b6040516105d491906123e8565b60405180910390f35b3480156105e957600080fd5b5061060460048036038101906105ff9190612764565b610fd3565b005b34801561061257600080fd5b5061062d600480360381019061062891906123bb565b611088565b005b34801561063b57600080fd5b50610656600480360381019061065191906127a4565b61110c565b005b6106ee8160405160240161066c9190612266565b6040516020818303038152906040527f41304fac000000000000000000000000000000000000000000000000000000007bffffffffffffffffffffffffffffffffffffffffffffffffffffffff19166020820180517bffffffffffffffffffffffffffffffffffffffffffffffffffffffff83818316178352505050506111ae565b50565b60007f80ac58cd000000000000000000000000000000000000000000000000000000007bffffffffffffffffffffffffffffffffffffffffffffffffffffffff1916827bffffffffffffffffffffffffffffffffffffffffffffffffffffffff191614806107bc57507f5b5e139f000000000000000000000000000000000000000000000000000000007bffffffffffffffffffffffffffffffffffffffffffffffffffffffff1916827bffffffffffffffffffffffffffffffffffffffffffffffffffffffff1916145b806107cc57506107cb826111d7565b5b9050919050565b6060600080546107e290612813565b80601f016020809104026020016040519081016040528092919081815260200182805461080e90612813565b801561085b5780601f106108305761010080835404028352916020019161085b565b820191906000526020600020905b81548152906001019060200180831161083e57829003601f168201915b5050505050905090565b600061087082611241565b6004600083815260200190815260200160002060009054906101000a900473ffffffffffffffffffffffffffffffffffffffff169050919050565b60006108b682610a97565b90508073ffffffffffffffffffffffffffffffffffffffff168373ffffffffffffffffffffffffffffffffffffffff161415610927576040517f08c379a000000000000000000000000000000000000000000000000000000000815260040161091e906128b7565b60405180910390fd5b8073ffffffffffffffffffffffffffffffffffffffff1661094661128c565b73ffffffffffffffffffffffffffffffffffffffff16148061097557506109748161096f61128c565b610ea3565b5b6109b4576040517f08c379a00000000000000000000000000000000000000000000000000000000081526004016109ab90612949565b60405180910390fd5b6109be8383611294565b505050565b6109d46109ce61128c565b8261134d565b610a13576040517f08c379a0000000000000000000000000000000000000000000000000000000008152600401610a0a906129db565b60405180910390fd5b610a1e8383836113e2565b505050565b6000600c60009054906101000a900473ffffffffffffffffffffffffffffffffffffffff16905090565b610a6883838360405180602001604052806000815250610d11565b505050565b6000600860009054906101000a900473ffffffffffffffffffffffffffffffffffffffff16905090565b6000806002600084815260200190815260200160002060009054906101000a900473ffffffffffffffffffffffffffffffffffffffff169050600073ffffffffffffffffffffffffffffffffffffffff168173ffffffffffffffffffffffffffffffffffffffff161415610b40576040517f08c379a0000000000000000000000000000000000000000000000000000000008152600401610b3790612a47565b60405180910390fd5b80915050919050565b60008073ffffffffffffffffffffffffffffffffffffffff168273ffffffffffffffffffffffffffffffffffffffff161415610bba576040517f08c379a0000000000000000000000000000000000000000000000000000000008152600401610bb190612ad9565b60405180910390fd5b600360008373ffffffffffffffffffffffffffffffffffffffff1673ffffffffffffffffffffffffffffffffffffffff168152602001908152602001600020549050919050565b610c09611649565b610c1360006116c7565b565b6000600a600083815260200190815260200160002060009054906101000a900460ff169050919050565b6000600760009054906101000a900473ffffffffffffffffffffffffffffffffffffffff16905090565b606060018054610c7890612813565b80601f0160208091040260200160405190810160405280929190818152602001828054610ca490612813565b8015610cf15780601f10610cc657610100808354040283529160200191610cf1565b820191906000526020600020905b815481529060010190602001808311610cd457829003601f168201915b5050505050905090565b610d0d610d0661128c565b838361178d565b5050565b610d22610d1c61128c565b8361134d565b610d61576040517f08c379a0000000000000000000000000000000000000000000000000000000008152600401610d58906129db565b60405180910390fd5b610d6d848484846118fa565b50505050565b6000600b6000838152602001908152602001600020549050919050565b6060610d9b82611241565b6000600660008481526020019081526020016000208054610dbb90612813565b80601f0160208091040260200160405190810160405280929190818152602001828054610de790612813565b8015610e345780601f10610e0957610100808354040283529160200191610e34565b820191906000526020600020905b815481529060010190602001808311610e1757829003601f168201915b505050505090506000610e45611956565b9050600081511415610e5b578192505050610e9e565b600082511115610e90578082604051602001610e78929190612b35565b60405160208183030381529060405292505050610e9e565b610e998461196d565b925050505b919050565b6000600560008473ffffffffffffffffffffffffffffffffffffffff1673ffffffffffffffffffffffffffffffffffffffff16815260200190815260200160002060008373ffffffffffffffffffffffffffffffffffffffff1673ffffffffffffffffffffffffffffffffffffffff16815260200190815260200160002060009054906101000a900460ff16905092915050565b6000610f4360096119d5565b6000610f4f60096119eb565b9050610f5b84826119f9565b610f658184611bd3565b6000600a600083815260200190815260200160002060006101000a81548160ff0219169083151502179055507fffffffffffffffffffffffffffffffffffffffffffffffffffffffffffffffff600b6000838152602001908152602001600020819055508091505092915050565b610fdc82611241565b610fe582610a97565b73ffffffffffffffffffffffffffffffffffffffff1661100361128c565b73ffffffffffffffffffffffffffffffffffffffff1614611059576040517f08c379a000000000000000000000000000000000000000000000000000000000815260040161105090612bcb565b60405180910390fd5b80600a600084815260200190815260200160002060006101000a81548160ff0219169083151502179055505050565b611090611649565b600073ffffffffffffffffffffffffffffffffffffffff168173ffffffffffffffffffffffffffffffffffffffff161415611100576040517f08c379a00000000000000000000000000000000000000000000000000000000081526004016110f790612c5d565b60405180910390fd5b611109816116c7565b50565b61111582611241565b61111e82610a97565b73ffffffffffffffffffffffffffffffffffffffff1661113c61128c565b73ffffffffffffffffffffffffffffffffffffffff1614611192576040517f08c379a000000000000000000000000000000000000000000000000000000000815260040161118990612cef565b60405180910390fd5b80600b6000848152602001908152602001600020819055505050565b60008151905060006a636f6e736f6c652e6c6f679050602083016000808483855afa5050505050565b60007f01ffc9a7000000000000000000000000000000000000000000000000000000007bffffffffffffffffffffffffffffffffffffffffffffffffffffffff1916827bffffffffffffffffffffffffffffffffffffffffffffffffffffffff1916149050919050565b61124a81611c47565b611289576040517f08c379a000000000000000000000000000000000000000000000000000000000815260040161128090612a47565b60405180910390fd5b50565b600033905090565b816004600083815260200190815260200160002060006101000a81548173ffffffffffffffffffffffffffffffffffffffff021916908373ffffffffffffffffffffffffffffffffffffffff160217905550808273ffffffffffffffffffffffffffffffffffffffff1661130783610a97565b73ffffffffffffffffffffffffffffffffffffffff167f8c5be1e5ebec7d5bd14f71427d1e84f3dd0314c0f7b2291e5b200ac8c7c3b92560405160405180910390a45050565b60008061135983610a97565b90508073ffffffffffffffffffffffffffffffffffffffff168473ffffffffffffffffffffffffffffffffffffffff16148061139b575061139a8185610ea3565b5b806113d957508373ffffffffffffffffffffffffffffffffffffffff166113c184610865565b73ffffffffffffffffffffffffffffffffffffffff16145b91505092915050565b8273ffffffffffffffffffffffffffffffffffffffff1661140282610a97565b73ffffffffffffffffffffffffffffffffffffffff1614611458576040517f08c379a000000000000000000000000000000000000000000000000000000000815260040161144f90612d81565b60405180910390fd5b600073ffffffffffffffffffffffffffffffffffffffff168273ffffffffffffffffffffffffffffffffffffffff1614156114c8576040517f08c379a00000000000000000000000000000000000000000000000000000000081526004016114bf90612e13565b60405180910390fd5b6114d3838383611cb3565b6114de600082611294565b6001600360008573ffffffffffffffffffffffffffffffffffffffff1673ffffffffffffffffffffffffffffffffffffffff168152602001908152602001600020600082825461152e9190612e62565b925050819055506001600360008473ffffffffffffffffffffffffffffffffffffffff1673ffffffffffffffffffffffffffffffffffffffff16815260200190815260200160002060008282546115859190612e96565b92505081905550816002600083815260200190815260200160002060006101000a81548173ffffffffffffffffffffffffffffffffffffffff021916908373ffffffffffffffffffffffffffffffffffffffff160217905550808273ffffffffffffffffffffffffffffffffffffffff168473ffffffffffffffffffffffffffffffffffffffff167fddf252ad1be2c89b69c2b068fc378daa952ba7f163c4a11628f55a4df523b3ef60405160405180910390a4611644838383611cb8565b505050565b61165161128c565b73ffffffffffffffffffffffffffffffffffffffff1661166f610c3f565b73ffffffffffffffffffffffffffffffffffffffff16146116c5576040517f08c379a00000000000000000000000000000000000000000000000000000000081526004016116bc90612f38565b60405180910390fd5b565b6000600760009054906101000a900473ffffffffffffffffffffffffffffffffffffffff16905081600760006101000a81548173ffffffffffffffffffffffffffffffffffffffff021916908373ffffffffffffffffffffffffffffffffffffffff1602179055508173ffffffffffffffffffffffffffffffffffffffff168173ffffffffffffffffffffffffffffffffffffffff167f8be0079c531659141344cd1fd0a4f28419497f9722a3daafe3b4186f6b6457e060405160405180910390a35050565b8173ffffffffffffffffffffffffffffffffffffffff168373ffffffffffffffffffffffffffffffffffffffff1614156117fc576040517f08c379a00000000000000000000000000000000000000000000000000000000081526004016117f390612fa4565b60405180910390fd5b80600560008573ffffffffffffffffffffffffffffffffffffffff1673ffffffffffffffffffffffffffffffffffffffff16815260200190815260200160002060008473ffffffffffffffffffffffffffffffffffffffff1673ffffffffffffffffffffffffffffffffffffffff16815260200190815260200160002060006101000a81548160ff0219169083151502179055508173ffffffffffffffffffffffffffffffffffffffff168373ffffffffffffffffffffffffffffffffffffffff167f17307eab39ab6107e8899845ad3d59bd9653f200f220920489ca2b5937696c31836040516118ed91906121b2565b60405180910390a3505050565b6119058484846113e2565b61191184848484611cbd565b611950576040517f08c379a000000000000000000000000000000000000000000000000000000000815260040161194790613036565b60405180910390fd5b50505050565b606060405180602001604052806000815250905090565b606061197882611241565b6000611982611956565b905060008151116119a257604051806020016040528060008152506119cd565b806119ac84611e54565b6040516020016119bd929190612b35565b6040516020818303038152906040525b915050919050565b6001816000016000828254019250508190555050565b600081600001549050919050565b600073ffffffffffffffffffffffffffffffffffffffff168273ffffffffffffffffffffffffffffffffffffffff161415611a69576040517f08c379a0000000000000000000000000000000000000000000000000000000008152600401611a60906130a2565b60405180910390fd5b611a7281611c47565b15611ab2576040517f08c379a0000000000000000000000000000000000000000000000000000000008152600401611aa99061310e565b60405180910390fd5b611abe60008383611cb3565b6001600360008473ffffffffffffffffffffffffffffffffffffffff1673ffffffffffffffffffffffffffffffffffffffff1681526020019081526020016000206000828254611b0e9190612e96565b92505081905550816002600083815260200190815260200160002060006101000a81548173ffffffffffffffffffffffffffffffffffffffff021916908373ffffffffffffffffffffffffffffffffffffffff160217905550808273ffffffffffffffffffffffffffffffffffffffff16600073ffffffffffffffffffffffffffffffffffffffff167fddf252ad1be2c89b69c2b068fc378daa952ba7f163c4a11628f55a4df523b3ef60405160405180910390a4611bcf60008383611cb8565b5050565b611bdc82611c47565b611c1b576040517f08c379a0000000000000000000000000000000000000000000000000000000008152600401611c12906131a0565b60405180910390fd5b80600660008481526020019081526020016000209080519060200190611c42929190611fd8565b505050565b60008073ffffffffffffffffffffffffffffffffffffffff166002600084815260200190815260200160002060009054906101000a900473ffffffffffffffffffffffffffffffffffffffff1673ffffffffffffffffffffffffffffffffffffffff1614159050919050565b505050565b505050565b6000611cde8473ffffffffffffffffffffffffffffffffffffffff16611fb5565b15611e47578373ffffffffffffffffffffffffffffffffffffffff1663150b7a02611d0761128c565b8786866040518563ffffffff1660e01b8152600401611d299493929190613215565b602060405180830381600087803b158015611d4357600080fd5b505af1925050508015611d7457506040513d601f19601f82011682018060405250810190611d719190613276565b60015b611df7573d8060008114611da4576040519150601f19603f3d011682016040523d82523d6000602084013e611da9565b606091505b50600081511415611def576040517f08c379a0000000000000000000000000000000000000000000000000000000008152600401611de690613036565b60405180910390fd5b805181602001fd5b63150b7a0260e01b7bffffffffffffffffffffffffffffffffffffffffffffffffffffffff1916817bffffffffffffffffffffffffffffffffffffffffffffffffffffffff191614915050611e4c565b600190505b949350505050565b60606000821415611e9c576040518060400160405280600181526020017f30000000000000000000000000000000000000000000000000000000000000008152509050611fb0565b600082905060005b60008214611ece578080611eb7906132a3565b915050600a82611ec7919061331b565b9150611ea4565b60008167ffffffffffffffff811115611eea57611ee9612479565b5b6040519080825280601f01601f191660200182016040528015611f1c5781602001600182028036833780820191505090505b5090505b60008514611fa957600182611f359190612e62565b9150600a85611f44919061334c565b6030611f509190612e96565b60f81b818381518110611f6657611f6561337d565b5b60200101907effffffffffffffffffffffffffffffffffffffffffffffffffffffffffffff1916908160001a905350600a85611fa2919061331b565b9450611f20565b8093505050505b919050565b6000808273ffffffffffffffffffffffffffffffffffffffff163b119050919050565b828054611fe490612813565b90600052602060002090601f016020900481019282612006576000855561204d565b82601f1061201f57805160ff191683800117855561204d565b8280016001018555821561204d579182015b8281111561204c578251825591602001919060010190612031565b5b50905061205a919061205e565b5090565b5b8082111561207757600081600090555060010161205f565b5090565b600073ffffffffffffffffffffffffffffffffffffffff82169050919050565b60006120a68261207b565b9050919050565b6120b68161209b565b82525050565b6000819050919050565b6120cf816120bc565b82525050565b60006040820190506120ea60008301856120ad565b6120f760208301846120c6565b9392505050565b6000604051905090565b600080fd5b600080fd5b60007fffffffff0000000000000000000000000000000000000000000000000000000082169050919050565b61214781612112565b811461215257600080fd5b50565b6000813590506121648161213e565b92915050565b6000602082840312156121805761217f612108565b5b600061218e84828501612155565b91505092915050565b60008115159050919050565b6121ac81612197565b82525050565b60006020820190506121c760008301846121a3565b92915050565b600081519050919050565b600082825260208201905092915050565b60005b838110156122075780820151818401526020810190506121ec565b83811115612216576000848401525b50505050565b6000601f19601f8301169050919050565b6000612238826121cd565b61224281856121d8565b93506122528185602086016121e9565b61225b8161221c565b840191505092915050565b60006020820190508181036000830152612280818461222d565b905092915050565b612291816120bc565b811461229c57600080fd5b50565b6000813590506122ae81612288565b92915050565b6000602082840312156122ca576122c9612108565b5b60006122d88482850161229f565b91505092915050565b60006020820190506122f660008301846120ad565b92915050565b6123058161209b565b811461231057600080fd5b50565b600081359050612322816122fc565b92915050565b6000806040838503121561233f5761233e612108565b5b600061234d85828601612313565b925050602061235e8582860161229f565b9150509250929050565b60008060006060848603121561238157612380612108565b5b600061238f86828701612313565b93505060206123a086828701612313565b92505060406123b18682870161229f565b9150509250925092565b6000602082840312156123d1576123d0612108565b5b60006123df84828501612313565b91505092915050565b60006020820190506123fd60008301846120c6565b92915050565b61240c81612197565b811461241757600080fd5b50565b60008135905061242981612403565b92915050565b6000806040838503121561244657612445612108565b5b600061245485828601612313565b92505060206124658582860161241a565b9150509250929050565b600080fd5b600080fd5b7f4e487b7100000000000000000000000000000000000000000000000000000000600052604160045260246000fd5b6124b18261221c565b810181811067ffffffffffffffff821117156124d0576124cf612479565b5b80604052505050565b60006124e36120fe565b90506124ef82826124a8565b919050565b600067ffffffffffffffff82111561250f5761250e612479565b5b6125188261221c565b9050602081019050919050565b82818337600083830152505050565b6000612547612542846124f4565b6124d9565b90508281526020810184848401111561256357612562612474565b5b61256e848285612525565b509392505050565b600082601f83011261258b5761258a61246f565b5b813561259b848260208601612534565b91505092915050565b600080600080608085870312156125be576125bd612108565b5b60006125cc87828801612313565b94505060206125dd87828801612313565b93505060406125ee8782880161229f565b925050606085013567ffffffffffffffff81111561260f5761260e61210d565b5b61261b87828801612576565b91505092959194509250565b6000806040838503121561263e5761263d612108565b5b600061264c85828601612313565b925050602061265d85828601612313565b9150509250929050565b600067ffffffffffffffff82111561268257612681612479565b5b61268b8261221c565b9050602081019050919050565b60006126ab6126a684612667565b6124d9565b9050828152602081018484840111156126c7576126c6612474565b5b6126d2848285612525565b509392505050565b600082601f8301126126ef576126ee61246f565b5b81356126ff848260208601612698565b91505092915050565b6000806040838503121561271f5761271e612108565b5b600061272d85828601612313565b925050602083013567ffffffffffffffff81111561274e5761274d61210d565b5b61275a858286016126da565b9150509250929050565b6000806040838503121561277b5761277a612108565b5b60006127898582860161229f565b925050602061279a8582860161241a565b9150509250929050565b600080604083850312156127bb576127ba612108565b5b60006127c98582860161229f565b92505060206127da8582860161229f565b9150509250929050565b7f4e487b7100000000000000000000000000000000000000000000000000000000600052602260045260246000fd5b6000600282049050600182168061282b57607f821691505b6020821081141561283f5761283e6127e4565b5b50919050565b7f4552433732313a20617070726f76616c20746f2063757272656e74206f776e6560008201527f7200000000000000000000000000000000000000000000000000000000000000602082015250565b60006128a16021836121d8565b91506128ac82612845565b604082019050919050565b600060208201905081810360008301526128d081612894565b9050919050565b7f4552433732313a20617070726f76652063616c6c6572206973206e6f7420746f60008201527f6b656e206f776e6572206e6f7220617070726f76656420666f7220616c6c0000602082015250565b6000612933603e836121d8565b915061293e826128d7565b604082019050919050565b6000602082019050818103600083015261296281612926565b9050919050565b7f4552433732313a2063616c6c6572206973206e6f7420746f6b656e206f776e6560008201527f72206e6f7220617070726f766564000000000000000000000000000000000000602082015250565b60006129c5602e836121d8565b91506129d082612969565b604082019050919050565b600060208201905081810360008301526129f4816129b8565b9050919050565b7f4552433732313a20696e76616c696420746f6b656e2049440000000000000000600082015250565b6000612a316018836121d8565b9150612a3c826129fb565b602082019050919050565b60006020820190508181036000830152612a6081612a24565b9050919050565b7f4552433732313a2061646472657373207a65726f206973206e6f74206120766160008201527f6c6964206f776e65720000000000000000000000000000000000000000000000602082015250565b6000612ac36029836121d8565b9150612ace82612a67565b604082019050919050565b60006020820190508181036000830152612af281612ab6565b9050919050565b600081905092915050565b6000612b0f826121cd565b612b198185612af9565b9350612b298185602086016121e9565b80840191505092915050565b6000612b418285612b04565b9150612b4d8284612b04565b91508190509392505050565b7f4f6e6c7920746865206f776e65722063616e20736574206120746f6b656e206660008201527f6f722073616c6500000000000000000000000000000000000000000000000000602082015250565b6000612bb56027836121d8565b9150612bc082612b59565b604082019050919050565b60006020820190508181036000830152612be481612ba8565b9050919050565b7f4f776e61626c653a206e6577206f776e657220697320746865207a65726f206160008201527f6464726573730000000000000000000000000000000000000000000000000000602082015250565b6000612c476026836121d8565b9150612c5282612beb565b604082019050919050565b60006020820190508181036000830152612c7681612c3a565b9050919050565b7f4f6e6c7920746865206f776e65722063616e20736574206120746f6b656e207060008201527f7269636500000000000000000000000000000000000000000000000000000000602082015250565b6000612cd96024836121d8565b9150612ce482612c7d565b604082019050919050565b60006020820190508181036000830152612d0881612ccc565b9050919050565b7f4552433732313a207472616e736665722066726f6d20696e636f72726563742060008201527f6f776e6572000000000000000000000000000000000000000000000000000000602082015250565b6000612d6b6025836121d8565b9150612d7682612d0f565b604082019050919050565b60006020820190508181036000830152612d9a81612d5e565b9050919050565b7f4552433732313a207472616e7366657220746f20746865207a65726f2061646460008201527f7265737300000000000000000000000000000000000000000000000000000000602082015250565b6000612dfd6024836121d8565b9150612e0882612da1565b604082019050919050565b60006020820190508181036000830152612e2c81612df0565b9050919050565b7f4e487b7100000000000000000000000000000000000000000000000000000000600052601160045260246000fd5b6000612e6d826120bc565b9150612e78836120bc565b925082821015612e8b57612e8a612e33565b5b828203905092915050565b6000612ea1826120bc565b9150612eac836120bc565b9250827fffffffffffffffffffffffffffffffffffffffffffffffffffffffffffffffff03821115612ee157612ee0612e33565b5b828201905092915050565b7f4f776e61626c653a2063616c6c6572206973206e6f7420746865206f776e6572600082015250565b6000612f226020836121d8565b9150612f2d82612eec565b602082019050919050565b60006020820190508181036000830152612f5181612f15565b9050919050565b7f4552433732313a20617070726f766520746f2063616c6c657200000000000000600082015250565b6000612f8e6019836121d8565b9150612f9982612f58565b602082019050919050565b60006020820190508181036000830152612fbd81612f81565b9050919050565b7f4552433732313a207472616e7366657220746f206e6f6e20455243373231526560008201527f63656976657220696d706c656d656e7465720000000000000000000000000000602082015250565b60006130206032836121d8565b915061302b82612fc4565b604082019050919050565b6000602082019050818103600083015261304f81613013565b9050919050565b7f4552433732313a206d696e7420746f20746865207a65726f2061646472657373600082015250565b600061308c6020836121d8565b915061309782613056565b602082019050919050565b600060208201905081810360008301526130bb8161307f565b9050919050565b7f4552433732313a20746f6b656e20616c7265616479206d696e74656400000000600082015250565b60006130f8601c836121d8565b9150613103826130c2565b602082019050919050565b60006020820190508181036000830152613127816130eb565b9050919050565b7f45524337323155524953746f726167653a2055524920736574206f66206e6f6e60008201527f6578697374656e7420746f6b656e000000000000000000000000000000000000602082015250565b600061318a602e836121d8565b91506131958261312e565b604082019050919050565b600060208201905081810360008301526131b98161317d565b9050919050565b600081519050919050565b600082825260208201905092915050565b60006131e7826131c0565b6131f181856131cb565b93506132018185602086016121e9565b61320a8161221c565b840191505092915050565b600060808201905061322a60008301876120ad565b61323760208301866120ad565b61324460408301856120c6565b818103606083015261325681846131dc565b905095945050505050565b6000815190506132708161213e565b92915050565b60006020828403121561328c5761328b612108565b5b600061329a84828501613261565b91505092915050565b60006132ae826120bc565b91507fffffffffffffffffffffffffffffffffffffffffffffffffffffffffffffffff8214156132e1576132e0612e33565b5b600182019050919050565b7f4e487b7100000000000000000000000000000000000000000000000000000000600052601260045260246000fd5b6000613326826120bc565b9150613331836120bc565b925082613341576133406132ec565b5b828204905092915050565b6000613357826120bc565b9150613362836120bc565b925082613372576133716132ec565b5b828206905092915050565b7f4e487b7100000000000000000000000000000000000000000000000000000000600052603260045260246000fdfea26469706673582212206398de96266ed7b3929e040f46de3d05cbe1c787f73ccbe68c77f3a0b70555f464736f6c6343000809003360806040526103e86007553480156200001757600080fd5b506040518060400160405280600b81526020017f4d7920465420546f6b656e0000000000000000000000000000000000000000008152506040518060400160405280600581526020017f43436f696e00000000000000000000000000000000000000000000000000000081525081600390805190602001906200009c929190620000ff565b508060049080519060200190620000b5929190620000ff565b50505033600560006101000a81548173ffffffffffffffffffffffffffffffffffffffff021916908373ffffffffffffffffffffffffffffffffffffffff16021790555062000214565b8280546200010d90620001de565b90600052602060002090601f0160209004810192826200013157600085556200017d565b82601f106200014c57805160ff19168380011785556200017d565b828001600101855582156200017d579182015b828111156200017c5782518255916020019190600101906200015f565b5b5090506200018c919062000190565b5090565b5b80821115620001ab57600081600090555060010162000191565b5090565b7f4e487b7100000000000000000000000000000000000000000000000000000000600052602260045260246000fd5b60006002820490506001821680620001f757607f821691505b602082108114156200020e576200020d620001af565b5b50919050565b611de380620002246000396000f3fe608060405234801561001057600080fd5b50600436106101215760003560e01c80636eacd398116100ad578063a9059cbb11610071578063a9059cbb14610359578063b472790614610389578063ce606ee0146103b9578063dd62ed3e146103d7578063eedafca41461040757610121565b80636eacd3981461028f57806370a08231146102bf5780638e8dc6bc146102ef57806395d89b411461030b578063a457c2d71461032957610121565b80631265ef82116100f45780631265ef82146101c257806318160ddd146101f357806323b872dd14610211578063313ce56714610241578063395093511461025f57610121565b806301608f5f1461012657806306fdde0314610156578063095ea7b314610174578063101c1778146101a4575b600080fd5b610140600480360381019061013b9190611374565b610423565b60405161014d91906113ba565b60405180910390f35b61015e61046f565b60405161016b919061146e565b60405180910390f35b61018e600480360381019061018991906114bc565b610501565b60405161019b9190611517565b60405180910390f35b6101ac610524565b6040516101b99190611541565b60405180910390f35b6101dc60048036038101906101d79190611374565b61054e565b6040516101ea92919061155c565b60405180910390f35b6101fb610572565b60405161020891906113ba565b60405180910390f35b61022b60048036038101906102269190611585565b61057c565b6040516102389190611517565b60405180910390f35b6102496105ab565b60405161025691906115f4565b60405180910390f35b610279600480360381019061027491906114bc565b6105b4565b6040516102869190611517565b60405180910390f35b6102a960048036038101906102a49190611374565b6105eb565b6040516102b691906113ba565b60405180910390f35b6102d960048036038101906102d49190611374565b610602565b6040516102e691906113ba565b60405180910390f35b61030960048036038101906103049190611374565b61064a565b005b61031361087e565b604051610320919061146e565b60405180910390f35b610343600480360381019061033e91906114bc565b610910565b6040516103509190611517565b60405180910390f35b610373600480360381019061036e91906114bc565b610987565b6040516103809190611517565b60405180910390f35b6103a3600480360381019061039e91906114bc565b6109aa565b6040516103b09190611517565b60405180910390f35b6103c1610ad1565b6040516103ce9190611541565b60405180910390f35b6103f160048036038101906103ec919061160f565b610af7565b6040516103fe91906113ba565b60405180910390f35b610421600480360381019061041c91906114bc565b610b7e565b005b6000600660008373ffffffffffffffffffffffffffffffffffffffff1673ffffffffffffffffffffffffffffffffffffffff168152602001908152602001600020600001549050919050565b60606003805461047e9061167e565b80601f01602080910402602001604051908101604052809291908181526020018280546104aa9061167e565b80156104f75780601f106104cc576101008083540402835291602001916104f7565b820191906000526020600020905b8154815290600101906020018083116104da57829003601f168201915b5050505050905090565b60008061050c610bfc565b9050610519818585610c04565b600191505092915050565b6000600560009054906101000a900473ffffffffffffffffffffffffffffffffffffffff16905090565b60066020528060005260406000206000915090508060000154908060010154905082565b6000600254905090565b600080610587610bfc565b9050610594858285610dcf565b61059f858585610e5b565b60019150509392505050565b60006012905090565b6000806105bf610bfc565b90506105e08185856105d18589610af7565b6105db91906116df565b610c04565b600191505092915050565b6000806105f783610602565b905080915050919050565b60008060008373ffffffffffffffffffffffffffffffffffffffff1673ffffffffffffffffffffffffffffffffffffffff168152602001908152602001600020549050919050565b6000600660008373ffffffffffffffffffffffffffffffffffffffff1673ffffffffffffffffffffffffffffffffffffffff1681526020019081526020016000206000015414156106e15742600660008373ffffffffffffffffffffffffffffffffffffffff1673ffffffffffffffffffffffffffffffffffffffff168152602001908152602001600020600101819055506107c9565b62015180600660008373ffffffffffffffffffffffffffffffffffffffff1673ffffffffffffffffffffffffffffffffffffffff16815260200190815260200160002060010154426107339190611735565b106107c85742600660008373ffffffffffffffffffffffffffffffffffffffff1673ffffffffffffffffffffffffffffffffffffffff168152602001908152602001600020600101819055506000600660008373ffffffffffffffffffffffffffffffffffffffff1673ffffffffffffffffffffffffffffffffffffffff168152602001908152602001600020600001819055505b5b6001600660008373ffffffffffffffffffffffffffffffffffffffff1673ffffffffffffffffffffffffffffffffffffffff168152602001908152602001600020600001600082825461081c91906116df565b92505081905550600754600660008373ffffffffffffffffffffffffffffffffffffffff1673ffffffffffffffffffffffffffffffffffffffff16815260200190815260200160002060000154101561087b5761087a8160016110dc565b5b50565b60606004805461088d9061167e565b80601f01602080910402602001604051908101604052809291908181526020018280546108b99061167e565b80156109065780601f106108db57610100808354040283529160200191610906565b820191906000526020600020905b8154815290600101906020018083116108e957829003601f168201915b5050505050905090565b60008061091b610bfc565b905060006109298286610af7565b90508381101561096e576040517f08c379a0000000000000000000000000000000000000000000000000000000008152600401610965906117db565b60405180910390fd5b61097b8286868403610c04565b60019250505092915050565b600080610992610bfc565b905061099f818585610e5b565b600191505092915050565b6000600560009054906101000a900473ffffffffffffffffffffffffffffffffffffffff1673ffffffffffffffffffffffffffffffffffffffff168373ffffffffffffffffffffffffffffffffffffffff161415610a3d576040517f08c379a0000000000000000000000000000000000000000000000000000000008152600401610a349061186d565b60405180910390fd5b610a498360008461123c565b6000610a5484610602565b905082811015610a99576040517f08c379a0000000000000000000000000000000000000000000000000000000008152600401610a90906118ff565b60405180910390fd5b610ac684600560009054906101000a900473ffffffffffffffffffffffffffffffffffffffff1685610e5b565b600191505092915050565b600560009054906101000a900473ffffffffffffffffffffffffffffffffffffffff1681565b6000600160008473ffffffffffffffffffffffffffffffffffffffff1673ffffffffffffffffffffffffffffffffffffffff16815260200190815260200160002060008373ffffffffffffffffffffffffffffffffffffffff1673ffffffffffffffffffffffffffffffffffffffff16815260200190815260200160002054905092915050565b80610b8833610602565b1015610bc9576040517f08c379a0000000000000000000000000000000000000000000000000000000008152600401610bc09061196b565b60405180910390fd5b610bed604051806060016040528060248152602001611d8a60249139338484611241565b610bf8338383610e5b565b5050565b600033905090565b600073ffffffffffffffffffffffffffffffffffffffff168373ffffffffffffffffffffffffffffffffffffffff161415610c74576040517f08c379a0000000000000000000000000000000000000000000000000000000008152600401610c6b906119fd565b60405180910390fd5b600073ffffffffffffffffffffffffffffffffffffffff168273ffffffffffffffffffffffffffffffffffffffff161415610ce4576040517f08c379a0000000000000000000000000000000000000000000000000000000008152600401610cdb90611a8f565b60405180910390fd5b80600160008573ffffffffffffffffffffffffffffffffffffffff1673ffffffffffffffffffffffffffffffffffffffff16815260200190815260200160002060008473ffffffffffffffffffffffffffffffffffffffff1673ffffffffffffffffffffffffffffffffffffffff168152602001908152602001600020819055508173ffffffffffffffffffffffffffffffffffffffff168373ffffffffffffffffffffffffffffffffffffffff167f8c5be1e5ebec7d5bd14f71427d1e84f3dd0314c0f7b2291e5b200ac8c7c3b92583604051610dc291906113ba565b60405180910390a3505050565b6000610ddb8484610af7565b90507fffffffffffffffffffffffffffffffffffffffffffffffffffffffffffffffff8114610e555781811015610e47576040517f08c379a0000000000000000000000000000000000000000000000000000000008152600401610e3e90611afb565b60405180910390fd5b610e548484848403610c04565b5b50505050565b600073ffffffffffffffffffffffffffffffffffffffff168373ffffffffffffffffffffffffffffffffffffffff161415610ecb576040517f08c379a0000000000000000000000000000000000000000000000000000000008152600401610ec290611b8d565b60405180910390fd5b600073ffffffffffffffffffffffffffffffffffffffff168273ffffffffffffffffffffffffffffffffffffffff161415610f3b576040517f08c379a0000000000000000000000000000000000000000000000000000000008152600401610f3290611c1f565b60405180910390fd5b610f4683838361123c565b60008060008573ffffffffffffffffffffffffffffffffffffffff1673ffffffffffffffffffffffffffffffffffffffff16815260200190815260200160002054905081811015610fcc576040517f08c379a0000000000000000000000000000000000000000000000000000000008152600401610fc390611cb1565b60405180910390fd5b8181036000808673ffffffffffffffffffffffffffffffffffffffff1673ffffffffffffffffffffffffffffffffffffffff16815260200190815260200160002081905550816000808573ffffffffffffffffffffffffffffffffffffffff1673ffffffffffffffffffffffffffffffffffffffff168152602001908152602001600020600082825461105f91906116df565b925050819055508273ffffffffffffffffffffffffffffffffffffffff168473ffffffffffffffffffffffffffffffffffffffff167fddf252ad1be2c89b69c2b068fc378daa952ba7f163c4a11628f55a4df523b3ef846040516110c391906113ba565b60405180910390a36110d68484846112e3565b50505050565b600073ffffffffffffffffffffffffffffffffffffffff168273ffffffffffffffffffffffffffffffffffffffff16141561114c576040517f08c379a000000000000000000000000000000000000000000000000000000000815260040161114390611d1d565b60405180910390fd5b6111586000838361123c565b806002600082825461116a91906116df565b92505081905550806000808473ffffffffffffffffffffffffffffffffffffffff1673ffffffffffffffffffffffffffffffffffffffff16815260200190815260200160002060008282546111bf91906116df565b925050819055508173ffffffffffffffffffffffffffffffffffffffff16600073ffffffffffffffffffffffffffffffffffffffff167fddf252ad1be2c89b69c2b068fc378daa952ba7f163c4a11628f55a4df523b3ef8360405161122491906113ba565b60405180910390a3611238600083836112e3565b5050565b505050565b6112dd8484848460405160240161125b9493929190611d3d565b6040516020818303038152906040527f6eb7943d000000000000000000000000000000000000000000000000000000007bffffffffffffffffffffffffffffffffffffffffffffffffffffffff19166020820180517bffffffffffffffffffffffffffffffffffffffffffffffffffffffff83818316178352505050506112e8565b50505050565b505050565b60008151905060006a636f6e736f6c652e6c6f679050602083016000808483855afa5050505050565b600080fd5b600073ffffffffffffffffffffffffffffffffffffffff82169050919050565b600061134182611316565b9050919050565b61135181611336565b811461135c57600080fd5b50565b60008135905061136e81611348565b92915050565b60006020828403121561138a57611389611311565b5b60006113988482850161135f565b91505092915050565b6000819050919050565b6113b4816113a1565b82525050565b60006020820190506113cf60008301846113ab565b92915050565b600081519050919050565b600082825260208201905092915050565b60005b8381101561140f5780820151818401526020810190506113f4565b8381111561141e576000848401525b50505050565b6000601f19601f8301169050919050565b6000611440826113d5565b61144a81856113e0565b935061145a8185602086016113f1565b61146381611424565b840191505092915050565b600060208201905081810360008301526114888184611435565b905092915050565b611499816113a1565b81146114a457600080fd5b50565b6000813590506114b681611490565b92915050565b600080604083850312156114d3576114d2611311565b5b60006114e18582860161135f565b92505060206114f2858286016114a7565b9150509250929050565b60008115159050919050565b611511816114fc565b82525050565b600060208201905061152c6000830184611508565b92915050565b61153b81611336565b82525050565b60006020820190506115566000830184611532565b92915050565b600060408201905061157160008301856113ab565b61157e60208301846113ab565b9392505050565b60008060006060848603121561159e5761159d611311565b5b60006115ac8682870161135f565b93505060206115bd8682870161135f565b92505060406115ce868287016114a7565b9150509250925092565b600060ff82169050919050565b6115ee816115d8565b82525050565b600060208201905061160960008301846115e5565b92915050565b6000806040838503121561162657611625611311565b5b60006116348582860161135f565b92505060206116458582860161135f565b9150509250929050565b7f4e487b7100000000000000000000000000000000000000000000000000000000600052602260045260246000fd5b6000600282049050600182168061169657607f821691505b602082108114156116aa576116a961164f565b5b50919050565b7f4e487b7100000000000000000000000000000000000000000000000000000000600052601160045260246000fd5b60006116ea826113a1565b91506116f5836113a1565b9250827fffffffffffffffffffffffffffffffffffffffffffffffffffffffffffffffff0382111561172a576117296116b0565b5b828201905092915050565b6000611740826113a1565b915061174b836113a1565b92508282101561175e5761175d6116b0565b5b828203905092915050565b7f45524332303a2064656372656173656420616c6c6f77616e63652062656c6f7760008201527f207a65726f000000000000000000000000000000000000000000000000000000602082015250565b60006117c56025836113e0565b91506117d082611769565b604082019050919050565b600060208201905081810360008301526117f4816117b8565b9050919050565b7f45524332303a206275726e2066726f6d2074686520636f6e74726163744f776e60008201527f6572206164647265737300000000000000000000000000000000000000000000602082015250565b6000611857602a836113e0565b9150611862826117fb565b604082019050919050565b600060208201905081810360008301526118868161184a565b9050919050565b7f45524332303a206275726e20616d6f756e7420657863656564732062616c616e60008201527f6365000000000000000000000000000000000000000000000000000000000000602082015250565b60006118e96022836113e0565b91506118f48261188d565b604082019050919050565b60006020820190508181036000830152611918816118dc565b9050919050565b7f4e6f7420656e6f75676820746f6b656e73000000000000000000000000000000600082015250565b60006119556011836113e0565b91506119608261191f565b602082019050919050565b6000602082019050818103600083015261198481611948565b9050919050565b7f45524332303a20617070726f76652066726f6d20746865207a65726f2061646460008201527f7265737300000000000000000000000000000000000000000000000000000000602082015250565b60006119e76024836113e0565b91506119f28261198b565b604082019050919050565b60006020820190508181036000830152611a16816119da565b9050919050565b7f45524332303a20617070726f766520746f20746865207a65726f20616464726560008201527f7373000000000000000000000000000000000000000000000000000000000000602082015250565b6000611a796022836113e0565b9150611a8482611a1d565b604082019050919050565b60006020820190508181036000830152611aa881611a6c565b9050919050565b7f45524332303a20696e73756666696369656e7420616c6c6f77616e6365000000600082015250565b6000611ae5601d836113e0565b9150611af082611aaf565b602082019050919050565b60006020820190508181036000830152611b1481611ad8565b9050919050565b7f45524332303a207472616e736665722066726f6d20746865207a65726f20616460008201527f6472657373000000000000000000000000000000000000000000000000000000602082015250565b6000611b776025836113e0565b9150611b8282611b1b565b604082019050919050565b60006020820190508181036000830152611ba681611b6a565b9050919050565b7f45524332303a207472616e7366657220746f20746865207a65726f206164647260008201527f6573730000000000000000000000000000000000000000000000000000000000602082015250565b6000611c096023836113e0565b9150611c1482611bad565b604082019050919050565b60006020820190508181036000830152611c3881611bfc565b9050919050565b7f45524332303a207472616e7366657220616d6f756e742065786365656473206260008201527f616c616e63650000000000000000000000000000000000000000000000000000602082015250565b6000611c9b6026836113e0565b9150611ca682611c3f565b604082019050919050565b60006020820190508181036000830152611cca81611c8e565b9050919050565b7f45524332303a206d696e7420746f20746865207a65726f206164647265737300600082015250565b6000611d07601f836113e0565b9150611d1282611cd1565b602082019050919050565b60006020820190508181036000830152611d3681611cfa565b9050919050565b60006080820190508181036000830152611d578187611435565b9050611d666020830186611532565b611d736040830185611532565b611d8060608301846113ab565b9594505050505056fe5472616e7366657272696e672066726f6d20257320746f20257320257320746f6b656e73a26469706673582212200593c06bdd4aa8067c32657fc23a981de5a0b67af70b05016e05e57858180ab064736f6c63430008090033",
  "linkReferences": {},
  "deployedLinkReferences": {}
}