{
  "_format": "hh-sol-artifact-1",
  "contractName": "ACoin",
  "sourceName": "contracts/a-coin.sol",
  "abi": [
    {
      "inputs": [],
      "stateMutability": "nonpayable",
      "type": "constructor"
    },
    {
      "anonymous": false,
      "inputs": [
        {
          "indexed": true,
          "internalType": "address",
          "name": "owner",
          "type": "address"
        },
        {
          "indexed": true,
          "internalType": "address",
          "name": "approved",
          "type": "address"
        },
        {
          "indexed": true,
          "internalType": "uint256",
          "name": "tokenId",
          "type": "uint256"
        }
      ],
      "name": "Approval",
      "type": "event"
    },
    {
      "anonymous": false,
      "inputs": [
        {
          "indexed": true,
          "internalType": "address",
          "name": "owner",
          "type": "address"
        },
        {
          "indexed": true,
          "internalType": "address",
          "name": "operator",
          "type": "address"
        },
        {
          "indexed": false,
          "internalType": "bool",
          "name": "approved",
          "type": "bool"
        }
      ],
      "name": "ApprovalForAll",
      "type": "event"
    },
    {
      "anonymous": false,
      "inputs": [
        {
          "indexed": true,
          "internalType": "address",
          "name": "previousOwner",
          "type": "address"
        },
        {
          "indexed": true,
          "internalType": "address",
          "name": "newOwner",
          "type": "address"
        }
      ],
      "name": "OwnershipTransferred",
      "type": "event"
    },
    {
      "anonymous": false,
      "inputs": [
        {
          "indexed": false,
          "internalType": "address",
          "name": "",
          "type": "address"
        },
        {
          "indexed": false,
          "internalType": "uint256",
          "name": "",
          "type": "uint256"
        }
      ],
      "name": "Received",
      "type": "event"
    },
    {
      "anonymous": false,
      "inputs": [
        {
          "indexed": true,
          "internalType": "address",
          "name": "from",
          "type": "address"
        },
        {
          "indexed": true,
          "internalType": "address",
          "name": "to",
          "type": "address"
        },
        {
          "indexed": true,
          "internalType": "uint256",
          "name": "tokenId",
          "type": "uint256"
        }
      ],
      "name": "Transfer",
      "type": "event"
    },
    {
      "stateMutability": "payable",
      "type": "fallback"
    },
    {
      "inputs": [
        {
          "internalType": "address",
          "name": "to",
          "type": "address"
        },
        {
          "internalType": "uint256",
          "name": "tokenId",
          "type": "uint256"
        }
      ],
      "name": "approve",
      "outputs": [],
      "stateMutability": "nonpayable",
      "type": "function"
    },
    {
      "inputs": [
        {
          "internalType": "address",
          "name": "owner",
          "type": "address"
        }
      ],
      "name": "balanceOf",
      "outputs": [
        {
          "internalType": "uint256",
          "name": "",
          "type": "uint256"
        }
      ],
      "stateMutability": "view",
      "type": "function"
    },
    {
      "inputs": [
        {
          "internalType": "uint256",
          "name": "tokenId",
          "type": "uint256"
        }
      ],
      "name": "getApproved",
      "outputs": [
        {
          "internalType": "address",
          "name": "",
          "type": "address"
        }
      ],
      "stateMutability": "view",
      "type": "function"
    },
    {
      "inputs": [],
      "name": "getCCoinContractAddress",
      "outputs": [
        {
          "internalType": "address",
          "name": "",
          "type": "address"
        }
      ],
      "stateMutability": "view",
      "type": "function"
    },
    {
      "inputs": [],
      "name": "getContractOwner",
      "outputs": [
        {
          "internalType": "address",
          "name": "",
          "type": "address"
        }
      ],
      "stateMutability": "view",
      "type": "function"
    },
    {
      "inputs": [
        {
          "internalType": "address",
          "name": "owner",
          "type": "address"
        },
        {
          "internalType": "address",
          "name": "operator",
          "type": "address"
        }
      ],
      "name": "isApprovedForAll",
      "outputs": [
        {
          "internalType": "bool",
          "name": "",
          "type": "bool"
        }
      ],
      "stateMutability": "view",
      "type": "function"
    },
    {
      "inputs": [
        {
          "internalType": "uint256",
          "name": "tokenId",
          "type": "uint256"
        }
      ],
      "name": "isForSale",
      "outputs": [
        {
          "internalType": "bool",
          "name": "",
          "type": "bool"
        }
      ],
      "stateMutability": "view",
      "type": "function"
    },
    {
      "inputs": [
        {
          "internalType": "address",
          "name": "recipient",
          "type": "address"
        },
        {
          "internalType": "string",
          "name": "tokenURI",
          "type": "string"
        }
      ],
      "name": "mintNFT",
      "outputs": [
        {
          "internalType": "uint256",
          "name": "",
          "type": "uint256"
        }
      ],
      "stateMutability": "nonpayable",
      "type": "function"
    },
    {
      "inputs": [],
      "name": "name",
      "outputs": [
        {
          "internalType": "string",
          "name": "",
          "type": "string"
        }
      ],
      "stateMutability": "view",
      "type": "function"
    },
    {
      "inputs": [],
      "name": "owner",
      "outputs": [
        {
          "internalType": "address",
          "name": "",
          "type": "address"
        }
      ],
      "stateMutability": "view",
      "type": "function"
    },
    {
      "inputs": [
        {
          "internalType": "uint256",
          "name": "tokenId",
          "type": "uint256"
        }
      ],
      "name": "ownerOf",
      "outputs": [
        {
          "internalType": "address",
          "name": "",
          "type": "address"
        }
      ],
      "stateMutability": "view",
      "type": "function"
    },
    {
      "inputs": [
        {
          "internalType": "uint256",
          "name": "tokenId",
          "type": "uint256"
        }
      ],
      "name": "priceOf",
      "outputs": [
        {
          "internalType": "uint256",
          "name": "",
          "type": "uint256"
        }
      ],
      "stateMutability": "view",
      "type": "function"
    },
    {
      "inputs": [
        {
          "internalType": "uint256",
          "name": "tokenId",
          "type": "uint256"
        }
      ],
      "name": "purchase",
      "outputs": [
        {
          "internalType": "bool",
          "name": "",
          "type": "bool"
        }
      ],
      "stateMutability": "payable",
      "type": "function"
    },
    {
      "inputs": [],
      "name": "renounceOwnership",
      "outputs": [],
      "stateMutability": "nonpayable",
      "type": "function"
    },
    {
      "inputs": [
        {
          "internalType": "address",
          "name": "from",
          "type": "address"
        },
        {
          "internalType": "address",
          "name": "to",
          "type": "address"
        },
        {
          "internalType": "uint256",
          "name": "tokenId",
          "type": "uint256"
        }
      ],
      "name": "safeTransferFrom",
      "outputs": [],
      "stateMutability": "nonpayable",
      "type": "function"
    },
    {
      "inputs": [
        {
          "internalType": "address",
          "name": "from",
          "type": "address"
        },
        {
          "internalType": "address",
          "name": "to",
          "type": "address"
        },
        {
          "internalType": "uint256",
          "name": "tokenId",
          "type": "uint256"
        },
        {
          "internalType": "bytes",
          "name": "data",
          "type": "bytes"
        }
      ],
      "name": "safeTransferFrom",
      "outputs": [],
      "stateMutability": "nonpayable",
      "type": "function"
    },
    {
      "inputs": [
        {
          "internalType": "address",
          "name": "operator",
          "type": "address"
        },
        {
          "internalType": "bool",
          "name": "approved",
          "type": "bool"
        }
      ],
      "name": "setApprovalForAll",
      "outputs": [],
      "stateMutability": "nonpayable",
      "type": "function"
    },
    {
      "inputs": [
        {
          "internalType": "uint256",
          "name": "tokenId",
          "type": "uint256"
        },
        {
          "internalType": "bool",
          "name": "forSale",
          "type": "bool"
        }
      ],
      "name": "setForSale",
      "outputs": [],
      "stateMutability": "nonpayable",
      "type": "function"
    },
    {
      "inputs": [
        {
          "internalType": "uint256",
          "name": "tokenId",
          "type": "uint256"
        },
        {
          "internalType": "uint256",
          "name": "price",
          "type": "uint256"
        }
      ],
      "name": "setPrice",
      "outputs": [],
      "stateMutability": "nonpayable",
      "type": "function"
    },
    {
      "inputs": [
        {
          "internalType": "bytes4",
          "name": "interfaceId",
          "type": "bytes4"
        }
      ],
      "name": "supportsInterface",
      "outputs": [
        {
          "internalType": "bool",
          "name": "",
          "type": "bool"
        }
      ],
      "stateMutability": "view",
      "type": "function"
    },
    {
      "inputs": [],
      "name": "symbol",
      "outputs": [
        {
          "internalType": "string",
          "name": "",
          "type": "string"
        }
      ],
      "stateMutability": "view",
      "type": "function"
    },
    {
      "inputs": [
        {
          "internalType": "uint256",
          "name": "tokenId",
          "type": "uint256"
        }
      ],
      "name": "tokenURI",
      "outputs": [
        {
          "internalType": "string",
          "name": "",
          "type": "string"
        }
      ],
      "stateMutability": "view",
      "type": "function"
    },
    {
      "inputs": [
        {
          "internalType": "address",
          "name": "recipient",
          "type": "address"
        },
        {
          "internalType": "uint256",
          "name": "tokenId",
          "type": "uint256"
        }
      ],
      "name": "transfer",
      "outputs": [],
      "stateMutability": "payable",
      "type": "function"
    },
    {
      "inputs": [
        {
          "internalType": "address",
          "name": "from",
          "type": "address"
        },
        {
          "internalType": "address",
          "name": "to",
          "type": "address"
        },
        {
          "internalType": "uint256",
          "name": "tokenId",
          "type": "uint256"
        }
      ],
      "name": "transferFrom",
      "outputs": [],
      "stateMutability": "nonpayable",
      "type": "function"
    },
    {
      "inputs": [
        {
          "internalType": "address",
          "name": "newOwner",
          "type": "address"
        }
      ],
      "name": "transferOwnership",
      "outputs": [],
      "stateMutability": "nonpayable",
      "type": "function"
    },
    {
      "stateMutability": "payable",
      "type": "receive"
    }
  ],
  "bytecode": "0x60806040523480156200001157600080fd5b506040518060400160405280600881526020017f41436f696e4e46540000000000000000000000000000000000000000000000008152506040518060400160405280600581526020017f41436f696e00000000000000000000000000000000000000000000000000000081525081600090805190602001906200009692919062000253565b508060019080519060200190620000af92919062000253565b505050620000d2620000c66200018560201b60201c565b6200018d60201b60201c565b30600860006101000a81548173ffffffffffffffffffffffffffffffffffffffff021916908373ffffffffffffffffffffffffffffffffffffffff1602179055506040516200012190620002e4565b604051809103906000f0801580156200013e573d6000803e3d6000fd5b50600c60006101000a81548173ffffffffffffffffffffffffffffffffffffffff021916908373ffffffffffffffffffffffffffffffffffffffff16021790555062000376565b600033905090565b6000600760009054906101000a900473ffffffffffffffffffffffffffffffffffffffff16905081600760006101000a81548173ffffffffffffffffffffffffffffffffffffffff021916908373ffffffffffffffffffffffffffffffffffffffff1602179055508173ffffffffffffffffffffffffffffffffffffffff168173ffffffffffffffffffffffffffffffffffffffff167f8be0079c531659141344cd1fd0a4f28419497f9722a3daafe3b4186f6b6457e060405160405180910390a35050565b828054620002619062000340565b90600052602060002090601f016020900481019282620002855760008555620002d1565b82601f10620002a057805160ff1916838001178555620002d1565b82800160010185558215620002d1579182015b82811115620002d0578251825591602001919060010190620002b3565b5b509050620002e09190620002f2565b5090565b612501806200427783390190565b5b808211156200030d576000816000905550600101620002f3565b5090565b7f4e487b7100000000000000000000000000000000000000000000000000000000600052602260045260246000fd5b600060028204905060018216806200035957607f821691505b6020821081141562000370576200036f62000311565b5b50919050565b613ef180620003866000396000f3fe60806040526004361061016a5760003560e01c80638da5cb5b116100d1578063c87b56dd1161008a578063efef39a111610064578063efef39a11461061f578063f0a6c16b1461064f578063f2fde38b14610678578063f7d97577146106a1576101e8565b8063c87b56dd14610568578063e985e9c5146105a5578063eacabe14146105e2576101e8565b80638da5cb5b1461046757806395d89b4114610492578063a22cb465146104bd578063a9059cbb146104e6578063b88d4fde14610502578063b9186d7d1461052b576101e8565b806342842e0e1161012357806342842e0e14610345578063442890d51461036e5780636352211e1461039957806370a08231146103d6578063715018a6146104135780638546d0021461042a576101e8565b806301ffc9a71461022357806306fdde0314610260578063081812fc1461028b578063095ea7b3146102c857806323b872dd146102f157806333971b8c1461031a576101e8565b366101e8576101ad6040518060400160405280600881526020017f52656365697665640000000000000000000000000000000000000000000000008152506106ca565b7f88a5966d370b9919b20f3e2c13ff65706f196a4e32cc2c12bf57088f8852587433346040516101de929190612792565b60405180910390a1005b7f88a5966d370b9919b20f3e2c13ff65706f196a4e32cc2c12bf57088f885258743334604051610219929190612792565b60405180910390a1005b34801561022f57600080fd5b5061024a60048036038101906102459190612827565b610763565b604051610257919061286f565b60405180910390f35b34801561026c57600080fd5b50610275610845565b6040516102829190612923565b60405180910390f35b34801561029757600080fd5b506102b260048036038101906102ad9190612971565b6108d7565b6040516102bf919061299e565b60405180910390f35b3480156102d457600080fd5b506102ef60048036038101906102ea91906129e5565b61091d565b005b3480156102fd57600080fd5b5061031860048036038101906103139190612a25565b610a35565b005b34801561032657600080fd5b5061032f610a95565b60405161033c919061299e565b60405180910390f35b34801561035157600080fd5b5061036c60048036038101906103679190612a25565b610abf565b005b34801561037a57600080fd5b50610383610adf565b604051610390919061299e565b60405180910390f35b3480156103a557600080fd5b506103c060048036038101906103bb9190612971565b610b09565b6040516103cd919061299e565b60405180910390f35b3480156103e257600080fd5b506103fd60048036038101906103f89190612a78565b610bbb565b60405161040a9190612aa5565b60405180910390f35b34801561041f57600080fd5b50610428610c73565b005b34801561043657600080fd5b50610451600480360381019061044c9190612971565b610c87565b60405161045e919061286f565b60405180910390f35b34801561047357600080fd5b5061047c610cb1565b604051610489919061299e565b60405180910390f35b34801561049e57600080fd5b506104a7610cdb565b6040516104b49190612923565b60405180910390f35b3480156104c957600080fd5b506104e460048036038101906104df9190612aec565b610d6d565b005b61050060048036038101906104fb91906129e5565b610d83565b005b34801561050e57600080fd5b5061052960048036038101906105249190612c61565b610ece565b005b34801561053757600080fd5b50610552600480360381019061054d9190612971565b610f30565b60405161055f9190612aa5565b60405180910390f35b34801561057457600080fd5b5061058f600480360381019061058a9190612971565b610f4d565b60405161059c9190612923565b60405180910390f35b3480156105b157600080fd5b506105cc60048036038101906105c79190612ce4565b611060565b6040516105d9919061286f565b60405180910390f35b3480156105ee57600080fd5b5061060960048036038101906106049190612dc5565b6110f4565b6040516106169190612aa5565b60405180910390f35b61063960048036038101906106349190612971565b611190565b604051610646919061286f565b60405180910390f35b34801561065b57600080fd5b5061067660048036038101906106719190612e21565b6115f4565b005b34801561068457600080fd5b5061069f600480360381019061069a9190612a78565b6116a9565b005b3480156106ad57600080fd5b506106c860048036038101906106c39190612e61565b61172d565b005b610760816040516024016106de9190612923565b6040516020818303038152906040527f41304fac000000000000000000000000000000000000000000000000000000007bffffffffffffffffffffffffffffffffffffffffffffffffffffffff19166020820180517bffffffffffffffffffffffffffffffffffffffffffffffffffffffff83818316178352505050506117cf565b50565b60007f80ac58cd000000000000000000000000000000000000000000000000000000007bffffffffffffffffffffffffffffffffffffffffffffffffffffffff1916827bffffffffffffffffffffffffffffffffffffffffffffffffffffffff1916148061082e57507f5b5e139f000000000000000000000000000000000000000000000000000000007bffffffffffffffffffffffffffffffffffffffffffffffffffffffff1916827bffffffffffffffffffffffffffffffffffffffffffffffffffffffff1916145b8061083e575061083d826117f8565b5b9050919050565b60606000805461085490612ed0565b80601f016020809104026020016040519081016040528092919081815260200182805461088090612ed0565b80156108cd5780601f106108a2576101008083540402835291602001916108cd565b820191906000526020600020905b8154815290600101906020018083116108b057829003601f168201915b5050505050905090565b60006108e282611862565b6004600083815260200190815260200160002060009054906101000a900473ffffffffffffffffffffffffffffffffffffffff169050919050565b600061092882610b09565b90508073ffffffffffffffffffffffffffffffffffffffff168373ffffffffffffffffffffffffffffffffffffffff161415610999576040517f08c379a000000000000000000000000000000000000000000000000000000000815260040161099090612f74565b60405180910390fd5b8073ffffffffffffffffffffffffffffffffffffffff166109b86118ad565b73ffffffffffffffffffffffffffffffffffffffff1614806109e757506109e6816109e16118ad565b611060565b5b610a26576040517f08c379a0000000000000000000000000000000000000000000000000000000008152600401610a1d90613006565b60405180910390fd5b610a3083836118b5565b505050565b610a46610a406118ad565b8261196e565b610a85576040517f08c379a0000000000000000000000000000000000000000000000000000000008152600401610a7c90613098565b60405180910390fd5b610a90838383611a03565b505050565b6000600c60009054906101000a900473ffffffffffffffffffffffffffffffffffffffff16905090565b610ada83838360405180602001604052806000815250610ece565b505050565b6000600860009054906101000a900473ffffffffffffffffffffffffffffffffffffffff16905090565b6000806002600084815260200190815260200160002060009054906101000a900473ffffffffffffffffffffffffffffffffffffffff169050600073ffffffffffffffffffffffffffffffffffffffff168173ffffffffffffffffffffffffffffffffffffffff161415610bb2576040517f08c379a0000000000000000000000000000000000000000000000000000000008152600401610ba990613104565b60405180910390fd5b80915050919050565b60008073ffffffffffffffffffffffffffffffffffffffff168273ffffffffffffffffffffffffffffffffffffffff161415610c2c576040517f08c379a0000000000000000000000000000000000000000000000000000000008152600401610c2390613196565b60405180910390fd5b600360008373ffffffffffffffffffffffffffffffffffffffff1673ffffffffffffffffffffffffffffffffffffffff168152602001908152602001600020549050919050565b610c7b611c6a565b610c856000611ce8565b565b6000600a600083815260200190815260200160002060009054906101000a900460ff169050919050565b6000600760009054906101000a900473ffffffffffffffffffffffffffffffffffffffff16905090565b606060018054610cea90612ed0565b80601f0160208091040260200160405190810160405280929190818152602001828054610d1690612ed0565b8015610d635780601f10610d3857610100808354040283529160200191610d63565b820191906000526020600020905b815481529060010190602001808311610d4657829003601f168201915b5050505050905090565b610d7f610d786118ad565b8383611dae565b5050565b610d8c81611862565b610d9581610b09565b73ffffffffffffffffffffffffffffffffffffffff16610db36118ad565b73ffffffffffffffffffffffffffffffffffffffff161415610e0a576040517f08c379a0000000000000000000000000000000000000000000000000000000008152600401610e0190613228565b60405180910390fd5b600066038d7ea4c68000600b600084815260200190815260200160002054610e329190613277565b9050610e56604051806060016040528060248152602001613e746024913982611f1b565b80600b600084815260200190815260200160002054610e7591906132d1565b341015610eb7576040517f08c379a0000000000000000000000000000000000000000000000000000000008152600401610eae90613399565b60405180910390fd5b610ec9610ec26118ad565b8484610abf565b505050565b610edf610ed96118ad565b8361196e565b610f1e576040517f08c379a0000000000000000000000000000000000000000000000000000000008152600401610f1590613098565b60405180910390fd5b610f2a84848484611fb7565b50505050565b6000600b6000838152602001908152602001600020549050919050565b6060610f5882611862565b6000600660008481526020019081526020016000208054610f7890612ed0565b80601f0160208091040260200160405190810160405280929190818152602001828054610fa490612ed0565b8015610ff15780601f10610fc657610100808354040283529160200191610ff1565b820191906000526020600020905b815481529060010190602001808311610fd457829003601f168201915b505050505090506000611002612013565b905060008151141561101857819250505061105b565b60008251111561104d5780826040516020016110359291906133f5565b6040516020818303038152906040529250505061105b565b6110568461202a565b925050505b919050565b6000600560008473ffffffffffffffffffffffffffffffffffffffff1673ffffffffffffffffffffffffffffffffffffffff16815260200190815260200160002060008373ffffffffffffffffffffffffffffffffffffffff1673ffffffffffffffffffffffffffffffffffffffff16815260200190815260200160002060009054906101000a900460ff16905092915050565b60006111006009612092565b600061110c60096120a8565b905061111884826120b6565b6111228184612290565b6000600a600083815260200190815260200160002060006101000a81548160ff0219169083151502179055507fffffffffffffffffffffffffffffffffffffffffffffffffffffffffffffffff600b6000838152602001908152602001600020819055508091505092915050565b600061119b82611862565b600a600083815260200190815260200160002060009054906101000a900460ff166111fb576040517f08c379a00000000000000000000000000000000000000000000000000000000081526004016111f290613465565b60405180910390fd5b61120482610b09565b73ffffffffffffffffffffffffffffffffffffffff166112226118ad565b73ffffffffffffffffffffffffffffffffffffffff161415611279576040517f08c379a0000000000000000000000000000000000000000000000000000000008152600401611270906134f7565b60405180910390fd5b600066038d7ea4c68000600b6000858152602001908152602001600020546112a19190613277565b90506112c5604051806060016040528060248152602001613e986024913982611f1b565b6064600c60009054906101000a900473ffffffffffffffffffffffffffffffffffffffff1673ffffffffffffffffffffffffffffffffffffffff16636eacd398336040518263ffffffff1660e01b8152600401611322919061299e565b60206040518083038186803b15801561133a57600080fd5b505afa15801561134e573d6000803e3d6000fd5b505050506040513d601f19601f82011682018060405250810190611372919061352c565b10156113da5780600b60008581526020019081526020016000205461139791906132d1565b3410156113d9576040517f08c379a00000000000000000000000000000000000000000000000000000000081526004016113d090613399565b60405180910390fd5b5b600b600084815260200190815260200160002054341015611430576040517f08c379a0000000000000000000000000000000000000000000000000000000008152600401611427906135a5565b60405180910390fd5b600c60009054906101000a900473ffffffffffffffffffffffffffffffffffffffff1673ffffffffffffffffffffffffffffffffffffffff1663b47279063360646040518363ffffffff1660e01b815260040161148e92919061360a565b602060405180830381600087803b1580156114a857600080fd5b505af11580156114bc573d6000803e3d6000fd5b505050506040513d601f19601f820116820180604052508101906114e09190613648565b506114ea83610b09565b73ffffffffffffffffffffffffffffffffffffffff166108fc600b6000868152602001908152602001600020549081150290604051600060405180830381858888f19350505050158015611542573d6000803e3d6000fd5b5061155d61154f84610b09565b6115576118ad565b85611a03565b600c60009054906101000a900473ffffffffffffffffffffffffffffffffffffffff1673ffffffffffffffffffffffffffffffffffffffff16638e8dc6bc336040518263ffffffff1660e01b81526004016115b8919061299e565b600060405180830381600087803b1580156115d257600080fd5b505af11580156115e6573d6000803e3d6000fd5b505050506001915050919050565b6115fd82611862565b61160682610b09565b73ffffffffffffffffffffffffffffffffffffffff166116246118ad565b73ffffffffffffffffffffffffffffffffffffffff161461167a576040517f08c379a0000000000000000000000000000000000000000000000000000000008152600401611671906136e7565b60405180910390fd5b80600a600084815260200190815260200160002060006101000a81548160ff0219169083151502179055505050565b6116b1611c6a565b600073ffffffffffffffffffffffffffffffffffffffff168173ffffffffffffffffffffffffffffffffffffffff161415611721576040517f08c379a000000000000000000000000000000000000000000000000000000000815260040161171890613779565b60405180910390fd5b61172a81611ce8565b50565b61173682611862565b61173f82610b09565b73ffffffffffffffffffffffffffffffffffffffff1661175d6118ad565b73ffffffffffffffffffffffffffffffffffffffff16146117b3576040517f08c379a00000000000000000000000000000000000000000000000000000000081526004016117aa9061380b565b60405180910390fd5b80600b6000848152602001908152602001600020819055505050565b60008151905060006a636f6e736f6c652e6c6f679050602083016000808483855afa5050505050565b60007f01ffc9a7000000000000000000000000000000000000000000000000000000007bffffffffffffffffffffffffffffffffffffffffffffffffffffffff1916827bffffffffffffffffffffffffffffffffffffffffffffffffffffffff1916149050919050565b61186b81612304565b6118aa576040517f08c379a00000000000000000000000000000000000000000000000000000000081526004016118a190613104565b60405180910390fd5b50565b600033905090565b816004600083815260200190815260200160002060006101000a81548173ffffffffffffffffffffffffffffffffffffffff021916908373ffffffffffffffffffffffffffffffffffffffff160217905550808273ffffffffffffffffffffffffffffffffffffffff1661192883610b09565b73ffffffffffffffffffffffffffffffffffffffff167f8c5be1e5ebec7d5bd14f71427d1e84f3dd0314c0f7b2291e5b200ac8c7c3b92560405160405180910390a45050565b60008061197a83610b09565b90508073ffffffffffffffffffffffffffffffffffffffff168473ffffffffffffffffffffffffffffffffffffffff1614806119bc57506119bb8185611060565b5b806119fa57508373ffffffffffffffffffffffffffffffffffffffff166119e2846108d7565b73ffffffffffffffffffffffffffffffffffffffff16145b91505092915050565b8273ffffffffffffffffffffffffffffffffffffffff16611a2382610b09565b73ffffffffffffffffffffffffffffffffffffffff1614611a79576040517f08c379a0000000000000000000000000000000000000000000000000000000008152600401611a709061389d565b60405180910390fd5b600073ffffffffffffffffffffffffffffffffffffffff168273ffffffffffffffffffffffffffffffffffffffff161415611ae9576040517f08c379a0000000000000000000000000000000000000000000000000000000008152600401611ae09061392f565b60405180910390fd5b611af4838383612370565b611aff6000826118b5565b6001600360008573ffffffffffffffffffffffffffffffffffffffff1673ffffffffffffffffffffffffffffffffffffffff1681526020019081526020016000206000828254611b4f919061394f565b925050819055506001600360008473ffffffffffffffffffffffffffffffffffffffff1673ffffffffffffffffffffffffffffffffffffffff1681526020019081526020016000206000828254611ba691906132d1565b92505081905550816002600083815260200190815260200160002060006101000a81548173ffffffffffffffffffffffffffffffffffffffff021916908373ffffffffffffffffffffffffffffffffffffffff160217905550808273ffffffffffffffffffffffffffffffffffffffff168473ffffffffffffffffffffffffffffffffffffffff167fddf252ad1be2c89b69c2b068fc378daa952ba7f163c4a11628f55a4df523b3ef60405160405180910390a4611c65838383612375565b505050565b611c726118ad565b73ffffffffffffffffffffffffffffffffffffffff16611c90610cb1565b73ffffffffffffffffffffffffffffffffffffffff1614611ce6576040517f08c379a0000000000000000000000000000000000000000000000000000000008152600401611cdd906139cf565b60405180910390fd5b565b6000600760009054906101000a900473ffffffffffffffffffffffffffffffffffffffff16905081600760006101000a81548173ffffffffffffffffffffffffffffffffffffffff021916908373ffffffffffffffffffffffffffffffffffffffff1602179055508173ffffffffffffffffffffffffffffffffffffffff168173ffffffffffffffffffffffffffffffffffffffff167f8be0079c531659141344cd1fd0a4f28419497f9722a3daafe3b4186f6b6457e060405160405180910390a35050565b8173ffffffffffffffffffffffffffffffffffffffff168373ffffffffffffffffffffffffffffffffffffffff161415611e1d576040517f08c379a0000000000000000000000000000000000000000000000000000000008152600401611e1490613a3b565b60405180910390fd5b80600560008573ffffffffffffffffffffffffffffffffffffffff1673ffffffffffffffffffffffffffffffffffffffff16815260200190815260200160002060008473ffffffffffffffffffffffffffffffffffffffff1673ffffffffffffffffffffffffffffffffffffffff16815260200190815260200160002060006101000a81548160ff0219169083151502179055508173ffffffffffffffffffffffffffffffffffffffff168373ffffffffffffffffffffffffffffffffffffffff167f17307eab39ab6107e8899845ad3d59bd9653f200f220920489ca2b5937696c3183604051611f0e919061286f565b60405180910390a3505050565b611fb38282604051602401611f31929190613a5b565b6040516020818303038152906040527f9710a9d0000000000000000000000000000000000000000000000000000000007bffffffffffffffffffffffffffffffffffffffffffffffffffffffff19166020820180517bffffffffffffffffffffffffffffffffffffffffffffffffffffffff83818316178352505050506117cf565b5050565b611fc2848484611a03565b611fce8484848461237a565b61200d576040517f08c379a000000000000000000000000000000000000000000000000000000000815260040161200490613afd565b60405180910390fd5b50505050565b606060405180602001604052806000815250905090565b606061203582611862565b600061203f612013565b9050600081511161205f576040518060200160405280600081525061208a565b8061206984612511565b60405160200161207a9291906133f5565b6040516020818303038152906040525b915050919050565b6001816000016000828254019250508190555050565b600081600001549050919050565b600073ffffffffffffffffffffffffffffffffffffffff168273ffffffffffffffffffffffffffffffffffffffff161415612126576040517f08c379a000000000000000000000000000000000000000000000000000000000815260040161211d90613b69565b60405180910390fd5b61212f81612304565b1561216f576040517f08c379a000000000000000000000000000000000000000000000000000000000815260040161216690613bd5565b60405180910390fd5b61217b60008383612370565b6001600360008473ffffffffffffffffffffffffffffffffffffffff1673ffffffffffffffffffffffffffffffffffffffff16815260200190815260200160002060008282546121cb91906132d1565b92505081905550816002600083815260200190815260200160002060006101000a81548173ffffffffffffffffffffffffffffffffffffffff021916908373ffffffffffffffffffffffffffffffffffffffff160217905550808273ffffffffffffffffffffffffffffffffffffffff16600073ffffffffffffffffffffffffffffffffffffffff167fddf252ad1be2c89b69c2b068fc378daa952ba7f163c4a11628f55a4df523b3ef60405160405180910390a461228c60008383612375565b5050565b61229982612304565b6122d8576040517f08c379a00000000000000000000000000000000000000000000000000000000081526004016122cf90613c67565b60405180910390fd5b806006600084815260200190815260200160002090805190602001906122ff929190612695565b505050565b60008073ffffffffffffffffffffffffffffffffffffffff166002600084815260200190815260200160002060009054906101000a900473ffffffffffffffffffffffffffffffffffffffff1673ffffffffffffffffffffffffffffffffffffffff1614159050919050565b505050565b505050565b600061239b8473ffffffffffffffffffffffffffffffffffffffff16612672565b15612504578373ffffffffffffffffffffffffffffffffffffffff1663150b7a026123c46118ad565b8786866040518563ffffffff1660e01b81526004016123e69493929190613cdc565b602060405180830381600087803b15801561240057600080fd5b505af192505050801561243157506040513d601f19601f8201168201806040525081019061242e9190613d3d565b60015b6124b4573d8060008114612461576040519150601f19603f3d011682016040523d82523d6000602084013e612466565b606091505b506000815114156124ac576040517f08c379a00000000000000000000000000000000000000000000000000000000081526004016124a390613afd565b60405180910390fd5b805181602001fd5b63150b7a0260e01b7bffffffffffffffffffffffffffffffffffffffffffffffffffffffff1916817bffffffffffffffffffffffffffffffffffffffffffffffffffffffff191614915050612509565b600190505b949350505050565b60606000821415612559576040518060400160405280600181526020017f3000000000000000000000000000000000000000000000000000000000000000815250905061266d565b600082905060005b6000821461258b57808061257490613d6a565b915050600a826125849190613de2565b9150612561565b60008167ffffffffffffffff8111156125a7576125a6612b36565b5b6040519080825280601f01601f1916602001820160405280156125d95781602001600182028036833780820191505090505b5090505b60008514612666576001826125f2919061394f565b9150600a856126019190613e13565b603061260d91906132d1565b60f81b81838151811061262357612622613e44565b5b60200101907effffffffffffffffffffffffffffffffffffffffffffffffffffffffffffff1916908160001a905350600a8561265f9190613de2565b94506125dd565b8093505050505b919050565b6000808273ffffffffffffffffffffffffffffffffffffffff163b119050919050565b8280546126a190612ed0565b90600052602060002090601f0160209004810192826126c3576000855561270a565b82601f106126dc57805160ff191683800117855561270a565b8280016001018555821561270a579182015b828111156127095782518255916020019190600101906126ee565b5b509050612717919061271b565b5090565b5b8082111561273457600081600090555060010161271c565b5090565b600073ffffffffffffffffffffffffffffffffffffffff82169050919050565b600061276382612738565b9050919050565b61277381612758565b82525050565b6000819050919050565b61278c81612779565b82525050565b60006040820190506127a7600083018561276a565b6127b46020830184612783565b9392505050565b6000604051905090565b600080fd5b600080fd5b60007fffffffff0000000000000000000000000000000000000000000000000000000082169050919050565b612804816127cf565b811461280f57600080fd5b50565b600081359050612821816127fb565b92915050565b60006020828403121561283d5761283c6127c5565b5b600061284b84828501612812565b91505092915050565b60008115159050919050565b61286981612854565b82525050565b60006020820190506128846000830184612860565b92915050565b600081519050919050565b600082825260208201905092915050565b60005b838110156128c45780820151818401526020810190506128a9565b838111156128d3576000848401525b50505050565b6000601f19601f8301169050919050565b60006128f58261288a565b6128ff8185612895565b935061290f8185602086016128a6565b612918816128d9565b840191505092915050565b6000602082019050818103600083015261293d81846128ea565b905092915050565b61294e81612779565b811461295957600080fd5b50565b60008135905061296b81612945565b92915050565b600060208284031215612987576129866127c5565b5b60006129958482850161295c565b91505092915050565b60006020820190506129b3600083018461276a565b92915050565b6129c281612758565b81146129cd57600080fd5b50565b6000813590506129df816129b9565b92915050565b600080604083850312156129fc576129fb6127c5565b5b6000612a0a858286016129d0565b9250506020612a1b8582860161295c565b9150509250929050565b600080600060608486031215612a3e57612a3d6127c5565b5b6000612a4c868287016129d0565b9350506020612a5d868287016129d0565b9250506040612a6e8682870161295c565b9150509250925092565b600060208284031215612a8e57612a8d6127c5565b5b6000612a9c848285016129d0565b91505092915050565b6000602082019050612aba6000830184612783565b92915050565b612ac981612854565b8114612ad457600080fd5b50565b600081359050612ae681612ac0565b92915050565b60008060408385031215612b0357612b026127c5565b5b6000612b11858286016129d0565b9250506020612b2285828601612ad7565b9150509250929050565b600080fd5b600080fd5b7f4e487b7100000000000000000000000000000000000000000000000000000000600052604160045260246000fd5b612b6e826128d9565b810181811067ffffffffffffffff82111715612b8d57612b8c612b36565b5b80604052505050565b6000612ba06127bb565b9050612bac8282612b65565b919050565b600067ffffffffffffffff821115612bcc57612bcb612b36565b5b612bd5826128d9565b9050602081019050919050565b82818337600083830152505050565b6000612c04612bff84612bb1565b612b96565b905082815260208101848484011115612c2057612c1f612b31565b5b612c2b848285612be2565b509392505050565b600082601f830112612c4857612c47612b2c565b5b8135612c58848260208601612bf1565b91505092915050565b60008060008060808587031215612c7b57612c7a6127c5565b5b6000612c89878288016129d0565b9450506020612c9a878288016129d0565b9350506040612cab8782880161295c565b925050606085013567ffffffffffffffff811115612ccc57612ccb6127ca565b5b612cd887828801612c33565b91505092959194509250565b60008060408385031215612cfb57612cfa6127c5565b5b6000612d09858286016129d0565b9250506020612d1a858286016129d0565b9150509250929050565b600067ffffffffffffffff821115612d3f57612d3e612b36565b5b612d48826128d9565b9050602081019050919050565b6000612d68612d6384612d24565b612b96565b905082815260208101848484011115612d8457612d83612b31565b5b612d8f848285612be2565b509392505050565b600082601f830112612dac57612dab612b2c565b5b8135612dbc848260208601612d55565b91505092915050565b60008060408385031215612ddc57612ddb6127c5565b5b6000612dea858286016129d0565b925050602083013567ffffffffffffffff811115612e0b57612e0a6127ca565b5b612e1785828601612d97565b9150509250929050565b60008060408385031215612e3857612e376127c5565b5b6000612e468582860161295c565b9250506020612e5785828601612ad7565b9150509250929050565b60008060408385031215612e7857612e776127c5565b5b6000612e868582860161295c565b9250506020612e978582860161295c565b9150509250929050565b7f4e487b7100000000000000000000000000000000000000000000000000000000600052602260045260246000fd5b60006002820490506001821680612ee857607f821691505b60208210811415612efc57612efb612ea1565b5b50919050565b7f4552433732313a20617070726f76616c20746f2063757272656e74206f776e6560008201527f7200000000000000000000000000000000000000000000000000000000000000602082015250565b6000612f5e602183612895565b9150612f6982612f02565b604082019050919050565b60006020820190508181036000830152612f8d81612f51565b9050919050565b7f4552433732313a20617070726f76652063616c6c6572206973206e6f7420746f60008201527f6b656e206f776e6572206e6f7220617070726f76656420666f7220616c6c0000602082015250565b6000612ff0603e83612895565b9150612ffb82612f94565b604082019050919050565b6000602082019050818103600083015261301f81612fe3565b9050919050565b7f4552433732313a2063616c6c6572206973206e6f7420746f6b656e206f776e6560008201527f72206e6f7220617070726f766564000000000000000000000000000000000000602082015250565b6000613082602e83612895565b915061308d82613026565b604082019050919050565b600060208201905081810360008301526130b181613075565b9050919050565b7f4552433732313a20696e76616c696420746f6b656e2049440000000000000000600082015250565b60006130ee601883612895565b91506130f9826130b8565b602082019050919050565b6000602082019050818103600083015261311d816130e1565b9050919050565b7f4552433732313a2061646472657373207a65726f206973206e6f74206120766160008201527f6c6964206f776e65720000000000000000000000000000000000000000000000602082015250565b6000613180602983612895565b915061318b82613124565b604082019050919050565b600060208201905081810360008301526131af81613173565b9050919050565b7f596f752063616e6e6f74207472616e7366657220796f757220746f6b656e207460008201527f6f20796f757273656c6600000000000000000000000000000000000000000000602082015250565b6000613212602a83612895565b915061321d826131b6565b604082019050919050565b6000602082019050818103600083015261324181613205565b9050919050565b7f4e487b7100000000000000000000000000000000000000000000000000000000600052601160045260246000fd5b600061328282612779565b915061328d83612779565b9250817fffffffffffffffffffffffffffffffffffffffffffffffffffffffffffffffff04831182151516156132c6576132c5613248565b5b828202905092915050565b60006132dc82612779565b91506132e783612779565b9250827fffffffffffffffffffffffffffffffffffffffffffffffffffffffffffffffff0382111561331c5761331b613248565b5b828201905092915050565b7f596f7520646f206e6f74206861766520656e6f75676820657468657220746f2060008201527f70617920666f722074686520636f6d6d697373696f6e00000000000000000000602082015250565b6000613383603683612895565b915061338e82613327565b604082019050919050565b600060208201905081810360008301526133b281613376565b9050919050565b600081905092915050565b60006133cf8261288a565b6133d981856133b9565b93506133e98185602086016128a6565b80840191505092915050565b600061340182856133c4565b915061340d82846133c4565b91508190509392505050565b7f5468697320746f6b656e206973206e6f7420666f722073616c65000000000000600082015250565b600061344f601a83612895565b915061345a82613419565b602082019050919050565b6000602082019050818103600083015261347e81613442565b9050919050565b7f596f752063616e277420707572636861736520796f7572206f776e20746f6b6560008201527f6e00000000000000000000000000000000000000000000000000000000000000602082015250565b60006134e1602183612895565b91506134ec82613485565b604082019050919050565b60006020820190508181036000830152613510816134d4565b9050919050565b60008151905061352681612945565b92915050565b600060208284031215613542576135416127c5565b5b600061355084828501613517565b91505092915050565b7f596f7520646f6e2774206861766520656e6f756768206d6f6e65790000000000600082015250565b600061358f601b83612895565b915061359a82613559565b602082019050919050565b600060208201905081810360008301526135be81613582565b9050919050565b6000819050919050565b6000819050919050565b60006135f46135ef6135ea846135c5565b6135cf565b612779565b9050919050565b613604816135d9565b82525050565b600060408201905061361f600083018561276a565b61362c60208301846135fb565b9392505050565b60008151905061364281612ac0565b92915050565b60006020828403121561365e5761365d6127c5565b5b600061366c84828501613633565b91505092915050565b7f4f6e6c7920746865206f776e65722063616e20736574206120746f6b656e206660008201527f6f722073616c6500000000000000000000000000000000000000000000000000602082015250565b60006136d1602783612895565b91506136dc82613675565b604082019050919050565b60006020820190508181036000830152613700816136c4565b9050919050565b7f4f776e61626c653a206e6577206f776e657220697320746865207a65726f206160008201527f6464726573730000000000000000000000000000000000000000000000000000602082015250565b6000613763602683612895565b915061376e82613707565b604082019050919050565b6000602082019050818103600083015261379281613756565b9050919050565b7f4f6e6c7920746865206f776e65722063616e20736574206120746f6b656e207060008201527f7269636500000000000000000000000000000000000000000000000000000000602082015250565b60006137f5602483612895565b915061380082613799565b604082019050919050565b60006020820190508181036000830152613824816137e8565b9050919050565b7f4552433732313a207472616e736665722066726f6d20696e636f72726563742060008201527f6f776e6572000000000000000000000000000000000000000000000000000000602082015250565b6000613887602583612895565b91506138928261382b565b604082019050919050565b600060208201905081810360008301526138b68161387a565b9050919050565b7f4552433732313a207472616e7366657220746f20746865207a65726f2061646460008201527f7265737300000000000000000000000000000000000000000000000000000000602082015250565b6000613919602483612895565b9150613924826138bd565b604082019050919050565b600060208201905081810360008301526139488161390c565b9050919050565b600061395a82612779565b915061396583612779565b92508282101561397857613977613248565b5b828203905092915050565b7f4f776e61626c653a2063616c6c6572206973206e6f7420746865206f776e6572600082015250565b60006139b9602083612895565b91506139c482613983565b602082019050919050565b600060208201905081810360008301526139e8816139ac565b9050919050565b7f4552433732313a20617070726f766520746f2063616c6c657200000000000000600082015250565b6000613a25601983612895565b9150613a30826139ef565b602082019050919050565b60006020820190508181036000830152613a5481613a18565b9050919050565b60006040820190508181036000830152613a7581856128ea565b9050613a846020830184612783565b9392505050565b7f4552433732313a207472616e7366657220746f206e6f6e20455243373231526560008201527f63656976657220696d706c656d656e7465720000000000000000000000000000602082015250565b6000613ae7603283612895565b9150613af282613a8b565b604082019050919050565b60006020820190508181036000830152613b1681613ada565b9050919050565b7f4552433732313a206d696e7420746f20746865207a65726f2061646472657373600082015250565b6000613b53602083612895565b9150613b5e82613b1d565b602082019050919050565b60006020820190508181036000830152613b8281613b46565b9050919050565b7f4552433732313a20746f6b656e20616c7265616479206d696e74656400000000600082015250565b6000613bbf601c83612895565b9150613bca82613b89565b602082019050919050565b60006020820190508181036000830152613bee81613bb2565b9050919050565b7f45524337323155524953746f726167653a2055524920736574206f66206e6f6e60008201527f6578697374656e7420746f6b656e000000000000000000000000000000000000602082015250565b6000613c51602e83612895565b9150613c5c82613bf5565b604082019050919050565b60006020820190508181036000830152613c8081613c44565b9050919050565b600081519050919050565b600082825260208201905092915050565b6000613cae82613c87565b613cb88185613c92565b9350613cc88185602086016128a6565b613cd1816128d9565b840191505092915050565b6000608082019050613cf1600083018761276a565b613cfe602083018661276a565b613d0b6040830185612783565b8181036060830152613d1d8184613ca3565b905095945050505050565b600081519050613d37816127fb565b92915050565b600060208284031215613d5357613d526127c5565b5b6000613d6184828501613d28565b91505092915050565b6000613d7582612779565b91507fffffffffffffffffffffffffffffffffffffffffffffffffffffffffffffffff821415613da857613da7613248565b5b600182019050919050565b7f4e487b7100000000000000000000000000000000000000000000000000000000600052601260045260246000fd5b6000613ded82612779565b9150613df883612779565b925082613e0857613e07613db3565b5b828204905092915050565b6000613e1e82612779565b9150613e2983612779565b925082613e3957613e38613db3565b5b828206905092915050565b7f4e487b7100000000000000000000000000000000000000000000000000000000600052603260045260246000fdfe54686520636f6d6d697373696f6e206f662074686973207472616e736665722069733a2054686520636f6d6d697373696f6e206f6620746869732070757263686173652069733a20a26469706673582212206d5c3e3828ad351caebd92d486c7fd4713e4c569763871ca0f65c2ce434e55d864736f6c6343000809003360806040526103e86008553480156200001757600080fd5b506040518060400160405280600b81526020017f4d7920465420546f6b656e0000000000000000000000000000000000000000008152506040518060400160405280600581526020017f43436f696e00000000000000000000000000000000000000000000000000000081525081600390805190602001906200009c929190620001ed565b508060049080519060200190620000b5929190620001ed565b505050620000d8620000cc6200011f60201b60201c565b6200012760201b60201c565b33600660006101000a81548173ffffffffffffffffffffffffffffffffffffffff021916908373ffffffffffffffffffffffffffffffffffffffff16021790555062000302565b600033905090565b6000600560009054906101000a900473ffffffffffffffffffffffffffffffffffffffff16905081600560006101000a81548173ffffffffffffffffffffffffffffffffffffffff021916908373ffffffffffffffffffffffffffffffffffffffff1602179055508173ffffffffffffffffffffffffffffffffffffffff168173ffffffffffffffffffffffffffffffffffffffff167f8be0079c531659141344cd1fd0a4f28419497f9722a3daafe3b4186f6b6457e060405160405180910390a35050565b828054620001fb90620002cc565b90600052602060002090601f0160209004810192826200021f57600085556200026b565b82601f106200023a57805160ff19168380011785556200026b565b828001600101855582156200026b579182015b828111156200026a5782518255916020019190600101906200024d565b5b5090506200027a91906200027e565b5090565b5b80821115620002995760008160009055506001016200027f565b5090565b7f4e487b7100000000000000000000000000000000000000000000000000000000600052602260045260246000fd5b60006002820490506001821680620002e557607f821691505b60208210811415620002fc57620002fb6200029d565b5b50919050565b6121ef80620003126000396000f3fe608060405234801561001057600080fd5b506004361061014d5760003560e01c8063715018a6116100c3578063b47279061161007c578063b4727906146103dd578063ce606ee01461040d578063dd62ed3e1461042b578063eedafca41461045b578063f2fde38b14610477578063fe65496e146104935761014d565b8063715018a61461031b5780638da5cb5b146103255780638e8dc6bc1461034357806395d89b411461035f578063a457c2d71461037d578063a9059cbb146103ad5761014d565b806318160ddd1161011557806318160ddd1461021f57806323b872dd1461023d578063313ce5671461026d578063395093511461028b5780636eacd398146102bb57806370a08231146102eb5761014d565b806301608f5f1461015257806306fdde0314610182578063095ea7b3146101a0578063101c1778146101d05780631265ef82146101ee575b600080fd5b61016c60048036038101906101679190611639565b6104af565b604051610179919061167f565b60405180910390f35b61018a6104fb565b6040516101979190611733565b60405180910390f35b6101ba60048036038101906101b59190611781565b61058d565b6040516101c791906117dc565b60405180910390f35b6101d86105b0565b6040516101e59190611806565b60405180910390f35b61020860048036038101906102039190611639565b6105da565b604051610216929190611821565b60405180910390f35b6102276105fe565b604051610234919061167f565b60405180910390f35b6102576004803603810190610252919061184a565b610608565b60405161026491906117dc565b60405180910390f35b610275610637565b60405161028291906118b9565b60405180910390f35b6102a560048036038101906102a09190611781565b610640565b6040516102b291906117dc565b60405180910390f35b6102d560048036038101906102d09190611639565b610677565b6040516102e2919061167f565b60405180910390f35b61030560048036038101906103009190611639565b61068e565b604051610312919061167f565b60405180910390f35b6103236106d6565b005b61032d6106ea565b60405161033a9190611806565b60405180910390f35b61035d60048036038101906103589190611639565b610714565b005b610367610947565b6040516103749190611733565b60405180910390f35b61039760048036038101906103929190611781565b6109d9565b6040516103a491906117dc565b60405180910390f35b6103c760048036038101906103c29190611781565b610a50565b6040516103d491906117dc565b60405180910390f35b6103f760048036038101906103f29190611781565b610a73565b60405161040491906117dc565b60405180910390f35b610415610b9a565b6040516104229190611806565b60405180910390f35b610445600480360381019061044091906118d4565b610bc0565b604051610452919061167f565b60405180910390f35b61047560048036038101906104709190611781565b610c47565b005b610491600480360381019061048c9190611639565b610cc5565b005b6104ad60048036038101906104a89190611781565b610d49565b005b6000600760008373ffffffffffffffffffffffffffffffffffffffff1673ffffffffffffffffffffffffffffffffffffffff168152602001908152602001600020600001549050919050565b60606003805461050a90611943565b80601f016020809104026020016040519081016040528092919081815260200182805461053690611943565b80156105835780601f1061055857610100808354040283529160200191610583565b820191906000526020600020905b81548152906001019060200180831161056657829003601f168201915b5050505050905090565b600080610598610d7d565b90506105a5818585610d85565b600191505092915050565b6000600660009054906101000a900473ffffffffffffffffffffffffffffffffffffffff16905090565b60076020528060005260406000206000915090508060000154908060010154905082565b6000600254905090565b600080610613610d7d565b9050610620858285610f50565b61062b858585610fdc565b60019150509392505050565b60006012905090565b60008061064b610d7d565b905061066c81858561065d8589610bc0565b61066791906119a4565b610d85565b600191505092915050565b6000806106838361068e565b905080915050919050565b60008060008373ffffffffffffffffffffffffffffffffffffffff1673ffffffffffffffffffffffffffffffffffffffff168152602001908152602001600020549050919050565b6106de61125d565b6106e860006112db565b565b6000600560009054906101000a900473ffffffffffffffffffffffffffffffffffffffff16905090565b6000600760008373ffffffffffffffffffffffffffffffffffffffff1673ffffffffffffffffffffffffffffffffffffffff1681526020019081526020016000206000015414156107ab5742600760008373ffffffffffffffffffffffffffffffffffffffff1673ffffffffffffffffffffffffffffffffffffffff16815260200190815260200160002060010181905550610893565b62015180600760008373ffffffffffffffffffffffffffffffffffffffff1673ffffffffffffffffffffffffffffffffffffffff16815260200190815260200160002060010154426107fd91906119fa565b106108925742600760008373ffffffffffffffffffffffffffffffffffffffff1673ffffffffffffffffffffffffffffffffffffffff168152602001908152602001600020600101819055506000600760008373ffffffffffffffffffffffffffffffffffffffff1673ffffffffffffffffffffffffffffffffffffffff168152602001908152602001600020600001819055505b5b6001600760008373ffffffffffffffffffffffffffffffffffffffff1673ffffffffffffffffffffffffffffffffffffffff16815260200190815260200160002060000160008282546108e691906119a4565b92505081905550600854600760008373ffffffffffffffffffffffffffffffffffffffff1673ffffffffffffffffffffffffffffffffffffffff1681526020019081526020016000206000015411610944576109438160016113a1565b5b50565b60606004805461095690611943565b80601f016020809104026020016040519081016040528092919081815260200182805461098290611943565b80156109cf5780601f106109a4576101008083540402835291602001916109cf565b820191906000526020600020905b8154815290600101906020018083116109b257829003601f168201915b5050505050905090565b6000806109e4610d7d565b905060006109f28286610bc0565b905083811015610a37576040517f08c379a0000000000000000000000000000000000000000000000000000000008152600401610a2e90611aa0565b60405180910390fd5b610a448286868403610d85565b60019250505092915050565b600080610a5b610d7d565b9050610a68818585610fdc565b600191505092915050565b6000600660009054906101000a900473ffffffffffffffffffffffffffffffffffffffff1673ffffffffffffffffffffffffffffffffffffffff168373ffffffffffffffffffffffffffffffffffffffff161415610b06576040517f08c379a0000000000000000000000000000000000000000000000000000000008152600401610afd90611b32565b60405180910390fd5b610b1283600084611501565b6000610b1d8461068e565b905082811015610b62576040517f08c379a0000000000000000000000000000000000000000000000000000000008152600401610b5990611bc4565b60405180910390fd5b610b8f84600660009054906101000a900473ffffffffffffffffffffffffffffffffffffffff1685610fdc565b600191505092915050565b600660009054906101000a900473ffffffffffffffffffffffffffffffffffffffff1681565b6000600160008473ffffffffffffffffffffffffffffffffffffffff1673ffffffffffffffffffffffffffffffffffffffff16815260200190815260200160002060008373ffffffffffffffffffffffffffffffffffffffff1673ffffffffffffffffffffffffffffffffffffffff16815260200190815260200160002054905092915050565b80610c513361068e565b1015610c92576040517f08c379a0000000000000000000000000000000000000000000000000000000008152600401610c8990611c30565b60405180910390fd5b610cb660405180606001604052806024815260200161219660249139338484611506565b610cc1338383610fdc565b5050565b610ccd61125d565b600073ffffffffffffffffffffffffffffffffffffffff168173ffffffffffffffffffffffffffffffffffffffff161415610d3d576040517f08c379a0000000000000000000000000000000000000000000000000000000008152600401610d3490611cc2565b60405180910390fd5b610d46816112db565b50565b610d5161125d565b60005b81811015610d7857610d6583610714565b8080610d7090611ce2565b915050610d54565b505050565b600033905090565b600073ffffffffffffffffffffffffffffffffffffffff168373ffffffffffffffffffffffffffffffffffffffff161415610df5576040517f08c379a0000000000000000000000000000000000000000000000000000000008152600401610dec90611d9d565b60405180910390fd5b600073ffffffffffffffffffffffffffffffffffffffff168273ffffffffffffffffffffffffffffffffffffffff161415610e65576040517f08c379a0000000000000000000000000000000000000000000000000000000008152600401610e5c90611e2f565b60405180910390fd5b80600160008573ffffffffffffffffffffffffffffffffffffffff1673ffffffffffffffffffffffffffffffffffffffff16815260200190815260200160002060008473ffffffffffffffffffffffffffffffffffffffff1673ffffffffffffffffffffffffffffffffffffffff168152602001908152602001600020819055508173ffffffffffffffffffffffffffffffffffffffff168373ffffffffffffffffffffffffffffffffffffffff167f8c5be1e5ebec7d5bd14f71427d1e84f3dd0314c0f7b2291e5b200ac8c7c3b92583604051610f43919061167f565b60405180910390a3505050565b6000610f5c8484610bc0565b90507fffffffffffffffffffffffffffffffffffffffffffffffffffffffffffffffff8114610fd65781811015610fc8576040517f08c379a0000000000000000000000000000000000000000000000000000000008152600401610fbf90611e9b565b60405180910390fd5b610fd58484848403610d85565b5b50505050565b600073ffffffffffffffffffffffffffffffffffffffff168373ffffffffffffffffffffffffffffffffffffffff16141561104c576040517f08c379a000000000000000000000000000000000000000000000000000000000815260040161104390611f2d565b60405180910390fd5b600073ffffffffffffffffffffffffffffffffffffffff168273ffffffffffffffffffffffffffffffffffffffff1614156110bc576040517f08c379a00000000000000000000000000000000000000000000000000000000081526004016110b390611fbf565b60405180910390fd5b6110c7838383611501565b60008060008573ffffffffffffffffffffffffffffffffffffffff1673ffffffffffffffffffffffffffffffffffffffff1681526020019081526020016000205490508181101561114d576040517f08c379a000000000000000000000000000000000000000000000000000000000815260040161114490612051565b60405180910390fd5b8181036000808673ffffffffffffffffffffffffffffffffffffffff1673ffffffffffffffffffffffffffffffffffffffff16815260200190815260200160002081905550816000808573ffffffffffffffffffffffffffffffffffffffff1673ffffffffffffffffffffffffffffffffffffffff16815260200190815260200160002060008282546111e091906119a4565b925050819055508273ffffffffffffffffffffffffffffffffffffffff168473ffffffffffffffffffffffffffffffffffffffff167fddf252ad1be2c89b69c2b068fc378daa952ba7f163c4a11628f55a4df523b3ef84604051611244919061167f565b60405180910390a36112578484846115a8565b50505050565b611265610d7d565b73ffffffffffffffffffffffffffffffffffffffff166112836106ea565b73ffffffffffffffffffffffffffffffffffffffff16146112d9576040517f08c379a00000000000000000000000000000000000000000000000000000000081526004016112d0906120bd565b60405180910390fd5b565b6000600560009054906101000a900473ffffffffffffffffffffffffffffffffffffffff16905081600560006101000a81548173ffffffffffffffffffffffffffffffffffffffff021916908373ffffffffffffffffffffffffffffffffffffffff1602179055508173ffffffffffffffffffffffffffffffffffffffff168173ffffffffffffffffffffffffffffffffffffffff167f8be0079c531659141344cd1fd0a4f28419497f9722a3daafe3b4186f6b6457e060405160405180910390a35050565b600073ffffffffffffffffffffffffffffffffffffffff168273ffffffffffffffffffffffffffffffffffffffff161415611411576040517f08c379a000000000000000000000000000000000000000000000000000000000815260040161140890612129565b60405180910390fd5b61141d60008383611501565b806002600082825461142f91906119a4565b92505081905550806000808473ffffffffffffffffffffffffffffffffffffffff1673ffffffffffffffffffffffffffffffffffffffff168152602001908152602001600020600082825461148491906119a4565b925050819055508173ffffffffffffffffffffffffffffffffffffffff16600073ffffffffffffffffffffffffffffffffffffffff167fddf252ad1be2c89b69c2b068fc378daa952ba7f163c4a11628f55a4df523b3ef836040516114e9919061167f565b60405180910390a36114fd600083836115a8565b5050565b505050565b6115a2848484846040516024016115209493929190612149565b6040516020818303038152906040527f6eb7943d000000000000000000000000000000000000000000000000000000007bffffffffffffffffffffffffffffffffffffffffffffffffffffffff19166020820180517bffffffffffffffffffffffffffffffffffffffffffffffffffffffff83818316178352505050506115ad565b50505050565b505050565b60008151905060006a636f6e736f6c652e6c6f679050602083016000808483855afa5050505050565b600080fd5b600073ffffffffffffffffffffffffffffffffffffffff82169050919050565b6000611606826115db565b9050919050565b611616816115fb565b811461162157600080fd5b50565b6000813590506116338161160d565b92915050565b60006020828403121561164f5761164e6115d6565b5b600061165d84828501611624565b91505092915050565b6000819050919050565b61167981611666565b82525050565b60006020820190506116946000830184611670565b92915050565b600081519050919050565b600082825260208201905092915050565b60005b838110156116d45780820151818401526020810190506116b9565b838111156116e3576000848401525b50505050565b6000601f19601f8301169050919050565b60006117058261169a565b61170f81856116a5565b935061171f8185602086016116b6565b611728816116e9565b840191505092915050565b6000602082019050818103600083015261174d81846116fa565b905092915050565b61175e81611666565b811461176957600080fd5b50565b60008135905061177b81611755565b92915050565b60008060408385031215611798576117976115d6565b5b60006117a685828601611624565b92505060206117b78582860161176c565b9150509250929050565b60008115159050919050565b6117d6816117c1565b82525050565b60006020820190506117f160008301846117cd565b92915050565b611800816115fb565b82525050565b600060208201905061181b60008301846117f7565b92915050565b60006040820190506118366000830185611670565b6118436020830184611670565b9392505050565b600080600060608486031215611863576118626115d6565b5b600061187186828701611624565b935050602061188286828701611624565b92505060406118938682870161176c565b9150509250925092565b600060ff82169050919050565b6118b38161189d565b82525050565b60006020820190506118ce60008301846118aa565b92915050565b600080604083850312156118eb576118ea6115d6565b5b60006118f985828601611624565b925050602061190a85828601611624565b9150509250929050565b7f4e487b7100000000000000000000000000000000000000000000000000000000600052602260045260246000fd5b6000600282049050600182168061195b57607f821691505b6020821081141561196f5761196e611914565b5b50919050565b7f4e487b7100000000000000000000000000000000000000000000000000000000600052601160045260246000fd5b60006119af82611666565b91506119ba83611666565b9250827fffffffffffffffffffffffffffffffffffffffffffffffffffffffffffffffff038211156119ef576119ee611975565b5b828201905092915050565b6000611a0582611666565b9150611a1083611666565b925082821015611a2357611a22611975565b5b828203905092915050565b7f45524332303a2064656372656173656420616c6c6f77616e63652062656c6f7760008201527f207a65726f000000000000000000000000000000000000000000000000000000602082015250565b6000611a8a6025836116a5565b9150611a9582611a2e565b604082019050919050565b60006020820190508181036000830152611ab981611a7d565b9050919050565b7f45524332303a206275726e2066726f6d2074686520636f6e74726163744f776e60008201527f6572206164647265737300000000000000000000000000000000000000000000602082015250565b6000611b1c602a836116a5565b9150611b2782611ac0565b604082019050919050565b60006020820190508181036000830152611b4b81611b0f565b9050919050565b7f45524332303a206275726e20616d6f756e7420657863656564732062616c616e60008201527f6365000000000000000000000000000000000000000000000000000000000000602082015250565b6000611bae6022836116a5565b9150611bb982611b52565b604082019050919050565b60006020820190508181036000830152611bdd81611ba1565b9050919050565b7f4e6f7420656e6f75676820746f6b656e73000000000000000000000000000000600082015250565b6000611c1a6011836116a5565b9150611c2582611be4565b602082019050919050565b60006020820190508181036000830152611c4981611c0d565b9050919050565b7f4f776e61626c653a206e6577206f776e657220697320746865207a65726f206160008201527f6464726573730000000000000000000000000000000000000000000000000000602082015250565b6000611cac6026836116a5565b9150611cb782611c50565b604082019050919050565b60006020820190508181036000830152611cdb81611c9f565b9050919050565b6000611ced82611666565b91507fffffffffffffffffffffffffffffffffffffffffffffffffffffffffffffffff821415611d2057611d1f611975565b5b600182019050919050565b7f45524332303a20617070726f76652066726f6d20746865207a65726f2061646460008201527f7265737300000000000000000000000000000000000000000000000000000000602082015250565b6000611d876024836116a5565b9150611d9282611d2b565b604082019050919050565b60006020820190508181036000830152611db681611d7a565b9050919050565b7f45524332303a20617070726f766520746f20746865207a65726f20616464726560008201527f7373000000000000000000000000000000000000000000000000000000000000602082015250565b6000611e196022836116a5565b9150611e2482611dbd565b604082019050919050565b60006020820190508181036000830152611e4881611e0c565b9050919050565b7f45524332303a20696e73756666696369656e7420616c6c6f77616e6365000000600082015250565b6000611e85601d836116a5565b9150611e9082611e4f565b602082019050919050565b60006020820190508181036000830152611eb481611e78565b9050919050565b7f45524332303a207472616e736665722066726f6d20746865207a65726f20616460008201527f6472657373000000000000000000000000000000000000000000000000000000602082015250565b6000611f176025836116a5565b9150611f2282611ebb565b604082019050919050565b60006020820190508181036000830152611f4681611f0a565b9050919050565b7f45524332303a207472616e7366657220746f20746865207a65726f206164647260008201527f6573730000000000000000000000000000000000000000000000000000000000602082015250565b6000611fa96023836116a5565b9150611fb482611f4d565b604082019050919050565b60006020820190508181036000830152611fd881611f9c565b9050919050565b7f45524332303a207472616e7366657220616d6f756e742065786365656473206260008201527f616c616e63650000000000000000000000000000000000000000000000000000602082015250565b600061203b6026836116a5565b915061204682611fdf565b604082019050919050565b6000602082019050818103600083015261206a8161202e565b9050919050565b7f4f776e61626c653a2063616c6c6572206973206e6f7420746865206f776e6572600082015250565b60006120a76020836116a5565b91506120b282612071565b602082019050919050565b600060208201905081810360008301526120d68161209a565b9050919050565b7f45524332303a206d696e7420746f20746865207a65726f206164647265737300600082015250565b6000612113601f836116a5565b915061211e826120dd565b602082019050919050565b6000602082019050818103600083015261214281612106565b9050919050565b6000608082019050818103600083015261216381876116fa565b905061217260208301866117f7565b61217f60408301856117f7565b61218c6060830184611670565b9594505050505056fe5472616e7366657272696e672066726f6d20257320746f20257320257320746f6b656e73a264697066735822122085affa5f28d2028d4c5e66388a493c8c8d8ae37b48ed4bf7b94cb7af0551377064736f6c63430008090033",
  "linkReferences": {},
  "deployedLinkReferences": {}
}