{
  "_format": "hh-sol-artifact-1",
  "contractName": "ACoin",
  "sourceName": "contracts/a-coin.sol",
  "abi": [
    {
      "inputs": [],
      "stateMutability": "nonpayable",
      "type": "constructor"
    },
    {
      "anonymous": false,
      "inputs": [
        {
          "indexed": true,
          "internalType": "address",
          "name": "owner",
          "type": "address"
        },
        {
          "indexed": true,
          "internalType": "address",
          "name": "approved",
          "type": "address"
        },
        {
          "indexed": true,
          "internalType": "uint256",
          "name": "tokenId",
          "type": "uint256"
        }
      ],
      "name": "Approval",
      "type": "event"
    },
    {
      "anonymous": false,
      "inputs": [
        {
          "indexed": true,
          "internalType": "address",
          "name": "owner",
          "type": "address"
        },
        {
          "indexed": true,
          "internalType": "address",
          "name": "operator",
          "type": "address"
        },
        {
          "indexed": false,
          "internalType": "bool",
          "name": "approved",
          "type": "bool"
        }
      ],
      "name": "ApprovalForAll",
      "type": "event"
    },
    {
      "anonymous": false,
      "inputs": [
        {
          "indexed": true,
          "internalType": "address",
          "name": "previousOwner",
          "type": "address"
        },
        {
          "indexed": true,
          "internalType": "address",
          "name": "newOwner",
          "type": "address"
        }
      ],
      "name": "OwnershipTransferred",
      "type": "event"
    },
    {
      "anonymous": false,
      "inputs": [
        {
          "indexed": false,
          "internalType": "address",
          "name": "",
          "type": "address"
        },
        {
          "indexed": false,
          "internalType": "uint256",
          "name": "",
          "type": "uint256"
        }
      ],
      "name": "Received",
      "type": "event"
    },
    {
      "anonymous": false,
      "inputs": [
        {
          "indexed": true,
          "internalType": "address",
          "name": "from",
          "type": "address"
        },
        {
          "indexed": true,
          "internalType": "address",
          "name": "to",
          "type": "address"
        },
        {
          "indexed": true,
          "internalType": "uint256",
          "name": "tokenId",
          "type": "uint256"
        }
      ],
      "name": "Transfer",
      "type": "event"
    },
    {
      "stateMutability": "payable",
      "type": "fallback"
    },
    {
      "inputs": [
        {
          "internalType": "address",
          "name": "to",
          "type": "address"
        },
        {
          "internalType": "uint256",
          "name": "tokenId",
          "type": "uint256"
        }
      ],
      "name": "approve",
      "outputs": [],
      "stateMutability": "nonpayable",
      "type": "function"
    },
    {
      "inputs": [
        {
          "internalType": "address",
          "name": "owner",
          "type": "address"
        }
      ],
      "name": "balanceOf",
      "outputs": [
        {
          "internalType": "uint256",
          "name": "",
          "type": "uint256"
        }
      ],
      "stateMutability": "view",
      "type": "function"
    },
    {
      "inputs": [],
      "name": "cCoinAmountOf",
      "outputs": [
        {
          "internalType": "uint256",
          "name": "",
          "type": "uint256"
        }
      ],
      "stateMutability": "view",
      "type": "function"
    },
    {
      "inputs": [],
      "name": "cCoinBalanceOf",
      "outputs": [
        {
          "internalType": "uint256",
          "name": "",
          "type": "uint256"
        }
      ],
      "stateMutability": "view",
      "type": "function"
    },
    {
      "inputs": [],
      "name": "cCoinTotalBlanceOf",
      "outputs": [
        {
          "internalType": "uint256",
          "name": "",
          "type": "uint256"
        }
      ],
      "stateMutability": "view",
      "type": "function"
    },
    {
      "inputs": [
        {
          "internalType": "uint256",
          "name": "tokenId",
          "type": "uint256"
        }
      ],
      "name": "getApproved",
      "outputs": [
        {
          "internalType": "address",
          "name": "",
          "type": "address"
        }
      ],
      "stateMutability": "view",
      "type": "function"
    },
    {
      "inputs": [],
      "name": "getCCoinContractAddress",
      "outputs": [
        {
          "internalType": "address",
          "name": "",
          "type": "address"
        }
      ],
      "stateMutability": "view",
      "type": "function"
    },
    {
      "inputs": [],
      "name": "getContractOwner",
      "outputs": [
        {
          "internalType": "address",
          "name": "",
          "type": "address"
        }
      ],
      "stateMutability": "view",
      "type": "function"
    },
    {
      "inputs": [
        {
          "internalType": "address",
          "name": "owner",
          "type": "address"
        },
        {
          "internalType": "address",
          "name": "operator",
          "type": "address"
        }
      ],
      "name": "isApprovedForAll",
      "outputs": [
        {
          "internalType": "bool",
          "name": "",
          "type": "bool"
        }
      ],
      "stateMutability": "view",
      "type": "function"
    },
    {
      "inputs": [
        {
          "internalType": "uint256",
          "name": "tokenId",
          "type": "uint256"
        }
      ],
      "name": "isForSale",
      "outputs": [
        {
          "internalType": "bool",
          "name": "",
          "type": "bool"
        }
      ],
      "stateMutability": "view",
      "type": "function"
    },
    {
      "inputs": [
        {
          "internalType": "address",
          "name": "recipient",
          "type": "address"
        },
        {
          "internalType": "string",
          "name": "tokenURI",
          "type": "string"
        }
      ],
      "name": "mintNFT",
      "outputs": [
        {
          "internalType": "uint256",
          "name": "",
          "type": "uint256"
        }
      ],
      "stateMutability": "nonpayable",
      "type": "function"
    },
    {
      "inputs": [],
      "name": "name",
      "outputs": [
        {
          "internalType": "string",
          "name": "",
          "type": "string"
        }
      ],
      "stateMutability": "view",
      "type": "function"
    },
    {
      "inputs": [],
      "name": "owner",
      "outputs": [
        {
          "internalType": "address",
          "name": "",
          "type": "address"
        }
      ],
      "stateMutability": "view",
      "type": "function"
    },
    {
      "inputs": [
        {
          "internalType": "uint256",
          "name": "tokenId",
          "type": "uint256"
        }
      ],
      "name": "ownerOf",
      "outputs": [
        {
          "internalType": "address",
          "name": "",
          "type": "address"
        }
      ],
      "stateMutability": "view",
      "type": "function"
    },
    {
      "inputs": [
        {
          "internalType": "uint256",
          "name": "tokenId",
          "type": "uint256"
        }
      ],
      "name": "priceOf",
      "outputs": [
        {
          "internalType": "uint256",
          "name": "",
          "type": "uint256"
        }
      ],
      "stateMutability": "view",
      "type": "function"
    },
    {
      "inputs": [
        {
          "internalType": "uint256",
          "name": "tokenId",
          "type": "uint256"
        }
      ],
      "name": "purchase",
      "outputs": [
        {
          "internalType": "bool",
          "name": "",
          "type": "bool"
        }
      ],
      "stateMutability": "payable",
      "type": "function"
    },
    {
      "inputs": [],
      "name": "renounceOwnership",
      "outputs": [],
      "stateMutability": "nonpayable",
      "type": "function"
    },
    {
      "inputs": [
        {
          "internalType": "address",
          "name": "from",
          "type": "address"
        },
        {
          "internalType": "address",
          "name": "to",
          "type": "address"
        },
        {
          "internalType": "uint256",
          "name": "tokenId",
          "type": "uint256"
        }
      ],
      "name": "safeTransferFrom",
      "outputs": [],
      "stateMutability": "nonpayable",
      "type": "function"
    },
    {
      "inputs": [
        {
          "internalType": "address",
          "name": "from",
          "type": "address"
        },
        {
          "internalType": "address",
          "name": "to",
          "type": "address"
        },
        {
          "internalType": "uint256",
          "name": "tokenId",
          "type": "uint256"
        },
        {
          "internalType": "bytes",
          "name": "data",
          "type": "bytes"
        }
      ],
      "name": "safeTransferFrom",
      "outputs": [],
      "stateMutability": "nonpayable",
      "type": "function"
    },
    {
      "inputs": [
        {
          "internalType": "address",
          "name": "operator",
          "type": "address"
        },
        {
          "internalType": "bool",
          "name": "approved",
          "type": "bool"
        }
      ],
      "name": "setApprovalForAll",
      "outputs": [],
      "stateMutability": "nonpayable",
      "type": "function"
    },
    {
      "inputs": [
        {
          "internalType": "uint256",
          "name": "tokenId",
          "type": "uint256"
        },
        {
          "internalType": "bool",
          "name": "forSale",
          "type": "bool"
        }
      ],
      "name": "setForSale",
      "outputs": [],
      "stateMutability": "nonpayable",
      "type": "function"
    },
    {
      "inputs": [
        {
          "internalType": "uint256",
          "name": "tokenId",
          "type": "uint256"
        },
        {
          "internalType": "uint256",
          "name": "price",
          "type": "uint256"
        }
      ],
      "name": "setPrice",
      "outputs": [],
      "stateMutability": "nonpayable",
      "type": "function"
    },
    {
      "inputs": [
        {
          "internalType": "bytes4",
          "name": "interfaceId",
          "type": "bytes4"
        }
      ],
      "name": "supportsInterface",
      "outputs": [
        {
          "internalType": "bool",
          "name": "",
          "type": "bool"
        }
      ],
      "stateMutability": "view",
      "type": "function"
    },
    {
      "inputs": [],
      "name": "symbol",
      "outputs": [
        {
          "internalType": "string",
          "name": "",
          "type": "string"
        }
      ],
      "stateMutability": "view",
      "type": "function"
    },
    {
      "inputs": [
        {
          "internalType": "uint256",
          "name": "tokenId",
          "type": "uint256"
        }
      ],
      "name": "tokenURI",
      "outputs": [
        {
          "internalType": "string",
          "name": "",
          "type": "string"
        }
      ],
      "stateMutability": "view",
      "type": "function"
    },
    {
      "inputs": [
        {
          "internalType": "address",
          "name": "recipient",
          "type": "address"
        },
        {
          "internalType": "uint256",
          "name": "tokenId",
          "type": "uint256"
        }
      ],
      "name": "transfer",
      "outputs": [
        {
          "internalType": "bool",
          "name": "",
          "type": "bool"
        }
      ],
      "stateMutability": "payable",
      "type": "function"
    },
    {
      "inputs": [
        {
          "internalType": "address",
          "name": "from",
          "type": "address"
        },
        {
          "internalType": "address",
          "name": "to",
          "type": "address"
        },
        {
          "internalType": "uint256",
          "name": "tokenId",
          "type": "uint256"
        }
      ],
      "name": "transferFrom",
      "outputs": [],
      "stateMutability": "nonpayable",
      "type": "function"
    },
    {
      "inputs": [
        {
          "internalType": "address",
          "name": "newOwner",
          "type": "address"
        }
      ],
      "name": "transferOwnership",
      "outputs": [],
      "stateMutability": "nonpayable",
      "type": "function"
    },
    {
      "stateMutability": "payable",
      "type": "receive"
    }
  ],
  "bytecode": "0x60806040523480156200001157600080fd5b506040518060400160405280600881526020017f41436f696e4e46540000000000000000000000000000000000000000000000008152506040518060400160405280600581526020017f41436f696e00000000000000000000000000000000000000000000000000000081525081600090805190602001906200009692919062000253565b508060019080519060200190620000af92919062000253565b505050620000d2620000c66200018560201b60201c565b6200018d60201b60201c565b33600860006101000a81548173ffffffffffffffffffffffffffffffffffffffff021916908373ffffffffffffffffffffffffffffffffffffffff1602179055506040516200012190620002e4565b604051809103906000f0801580156200013e573d6000803e3d6000fd5b50600c60006101000a81548173ffffffffffffffffffffffffffffffffffffffff021916908373ffffffffffffffffffffffffffffffffffffffff16021790555062000376565b600033905090565b6000600760009054906101000a900473ffffffffffffffffffffffffffffffffffffffff16905081600760006101000a81548173ffffffffffffffffffffffffffffffffffffffff021916908373ffffffffffffffffffffffffffffffffffffffff1602179055508173ffffffffffffffffffffffffffffffffffffffff168173ffffffffffffffffffffffffffffffffffffffff167f8be0079c531659141344cd1fd0a4f28419497f9722a3daafe3b4186f6b6457e060405160405180910390a35050565b828054620002619062000340565b90600052602060002090601f016020900481019282620002855760008555620002d1565b82601f10620002a057805160ff1916838001178555620002d1565b82800160010185558215620002d1579182015b82811115620002d0578251825591602001919060010190620002b3565b5b509050620002e09190620002f2565b5090565b6120a2806200460583390190565b5b808211156200030d576000816000905550600101620002f3565b5090565b7f4e487b7100000000000000000000000000000000000000000000000000000000600052602260045260246000fd5b600060028204905060018216806200035957607f821691505b6020821081141562000370576200036f62000311565b5b50919050565b61427f80620003866000396000f3fe6080604052600436106101bb5760003560e01c806395d89b41116100ec578063d8b914941161008a578063efef39a111610064578063efef39a114610705578063f0a6c16b14610735578063f2fde38b1461075e578063f7d975771461078757610239565b8063d8b9149414610660578063e985e9c51461068b578063eacabe14146106c857610239565b8063b88d4fde116100c6578063b88d4fde14610592578063b9186d7d146105bb578063c87b56dd146105f8578063d418800a1461063557610239565b806395d89b411461050e578063a22cb46514610539578063a9059cbb1461056257610239565b806342842e0e1161015957806370a082311161013357806370a0823114610452578063715018a61461048f5780638546d002146104a65780638da5cb5b146104e357610239565b806342842e0e146103c1578063442890d5146103ea5780636352211e1461041557610239565b8063095ea7b311610195578063095ea7b31461031957806323b872dd14610342578063261e5dcd1461036b57806333971b8c1461039657610239565b806301ffc9a71461027457806306fdde03146102b1578063081812fc146102dc57610239565b36610239576101fe6040518060400160405280600881526020017f52656365697665640000000000000000000000000000000000000000000000008152506107b0565b7f88a5966d370b9919b20f3e2c13ff65706f196a4e32cc2c12bf57088f88525874333460405161022f929190612c72565b60405180910390a1005b7f88a5966d370b9919b20f3e2c13ff65706f196a4e32cc2c12bf57088f88525874333460405161026a929190612c72565b60405180910390a1005b34801561028057600080fd5b5061029b60048036038101906102969190612d07565b610849565b6040516102a89190612d4f565b60405180910390f35b3480156102bd57600080fd5b506102c661092b565b6040516102d39190612e03565b60405180910390f35b3480156102e857600080fd5b5061030360048036038101906102fe9190612e51565b6109bd565b6040516103109190612e7e565b60405180910390f35b34801561032557600080fd5b50610340600480360381019061033b9190612ec5565b610a03565b005b34801561034e57600080fd5b5061036960048036038101906103649190612f05565b610b1b565b005b34801561037757600080fd5b50610380610b7b565b60405161038d9190612f58565b60405180910390f35b3480156103a257600080fd5b506103ab610c34565b6040516103b89190612e7e565b60405180910390f35b3480156103cd57600080fd5b506103e860048036038101906103e39190612f05565b610c5e565b005b3480156103f657600080fd5b506103ff610c7e565b60405161040c9190612e7e565b60405180910390f35b34801561042157600080fd5b5061043c60048036038101906104379190612e51565b610ca8565b6040516104499190612e7e565b60405180910390f35b34801561045e57600080fd5b5061047960048036038101906104749190612f73565b610d5a565b6040516104869190612f58565b60405180910390f35b34801561049b57600080fd5b506104a4610e12565b005b3480156104b257600080fd5b506104cd60048036038101906104c89190612e51565b610e26565b6040516104da9190612d4f565b60405180910390f35b3480156104ef57600080fd5b506104f8610e50565b6040516105059190612e7e565b60405180910390f35b34801561051a57600080fd5b50610523610e7a565b6040516105309190612e03565b60405180910390f35b34801561054557600080fd5b50610560600480360381019061055b9190612fcc565b610f0c565b005b61057c60048036038101906105779190612ec5565b610f22565b6040516105899190612d4f565b60405180910390f35b34801561059e57600080fd5b506105b960048036038101906105b49190613141565b611282565b005b3480156105c757600080fd5b506105e260048036038101906105dd9190612e51565b6112e4565b6040516105ef9190612f58565b60405180910390f35b34801561060457600080fd5b5061061f600480360381019061061a9190612e51565b611301565b60405161062c9190612e03565b60405180910390f35b34801561064157600080fd5b5061064a611414565b6040516106579190612f58565b60405180910390f35b34801561066c57600080fd5b506106756114cd565b6040516106829190612f58565b60405180910390f35b34801561069757600080fd5b506106b260048036038101906106ad91906131c4565b611586565b6040516106bf9190612d4f565b60405180910390f35b3480156106d457600080fd5b506106ef60048036038101906106ea91906132a5565b61161a565b6040516106fc9190612f58565b60405180910390f35b61071f600480360381019061071a9190612e51565b6116b6565b60405161072c9190612d4f565b60405180910390f35b34801561074157600080fd5b5061075c60048036038101906107579190613301565b611b5d565b005b34801561076a57600080fd5b5061078560048036038101906107809190612f73565b611c12565b005b34801561079357600080fd5b506107ae60048036038101906107a99190613341565b611c96565b005b610846816040516024016107c49190612e03565b6040516020818303038152906040527f41304fac000000000000000000000000000000000000000000000000000000007bffffffffffffffffffffffffffffffffffffffffffffffffffffffff19166020820180517bffffffffffffffffffffffffffffffffffffffffffffffffffffffff8381831617835250505050611d4b565b50565b60007f80ac58cd000000000000000000000000000000000000000000000000000000007bffffffffffffffffffffffffffffffffffffffffffffffffffffffff1916827bffffffffffffffffffffffffffffffffffffffffffffffffffffffff1916148061091457507f5b5e139f000000000000000000000000000000000000000000000000000000007bffffffffffffffffffffffffffffffffffffffffffffffffffffffff1916827bffffffffffffffffffffffffffffffffffffffffffffffffffffffff1916145b80610924575061092382611d74565b5b9050919050565b60606000805461093a906133b0565b80601f0160208091040260200160405190810160405280929190818152602001828054610966906133b0565b80156109b35780601f10610988576101008083540402835291602001916109b3565b820191906000526020600020905b81548152906001019060200180831161099657829003601f168201915b5050505050905090565b60006109c882611dde565b6004600083815260200190815260200160002060009054906101000a900473ffffffffffffffffffffffffffffffffffffffff169050919050565b6000610a0e82610ca8565b90508073ffffffffffffffffffffffffffffffffffffffff168373ffffffffffffffffffffffffffffffffffffffff161415610a7f576040517f08c379a0000000000000000000000000000000000000000000000000000000008152600401610a7690613454565b60405180910390fd5b8073ffffffffffffffffffffffffffffffffffffffff16610a9e611e29565b73ffffffffffffffffffffffffffffffffffffffff161480610acd5750610acc81610ac7611e29565b611586565b5b610b0c576040517f08c379a0000000000000000000000000000000000000000000000000000000008152600401610b03906134e6565b60405180910390fd5b610b168383611e31565b505050565b610b2c610b26611e29565b82611eea565b610b6b576040517f08c379a0000000000000000000000000000000000000000000000000000000008152600401610b6290613578565b60405180910390fd5b610b76838383611f7f565b505050565b6000600c60009054906101000a900473ffffffffffffffffffffffffffffffffffffffff1673ffffffffffffffffffffffffffffffffffffffff166301608f5f610bc3611e29565b6040518263ffffffff1660e01b8152600401610bdf9190612e7e565b60206040518083038186803b158015610bf757600080fd5b505afa158015610c0b573d6000803e3d6000fd5b505050506040513d601f19601f82011682018060405250810190610c2f91906135ad565b905090565b6000600c60009054906101000a900473ffffffffffffffffffffffffffffffffffffffff16905090565b610c7983838360405180602001604052806000815250611282565b505050565b6000600860009054906101000a900473ffffffffffffffffffffffffffffffffffffffff16905090565b6000806002600084815260200190815260200160002060009054906101000a900473ffffffffffffffffffffffffffffffffffffffff169050600073ffffffffffffffffffffffffffffffffffffffff168173ffffffffffffffffffffffffffffffffffffffff161415610d51576040517f08c379a0000000000000000000000000000000000000000000000000000000008152600401610d4890613626565b60405180910390fd5b80915050919050565b60008073ffffffffffffffffffffffffffffffffffffffff168273ffffffffffffffffffffffffffffffffffffffff161415610dcb576040517f08c379a0000000000000000000000000000000000000000000000000000000008152600401610dc2906136b8565b60405180910390fd5b600360008373ffffffffffffffffffffffffffffffffffffffff1673ffffffffffffffffffffffffffffffffffffffff168152602001908152602001600020549050919050565b610e1a6121e6565b610e246000612264565b565b6000600a600083815260200190815260200160002060009054906101000a900460ff169050919050565b6000600760009054906101000a900473ffffffffffffffffffffffffffffffffffffffff16905090565b606060018054610e89906133b0565b80601f0160208091040260200160405190810160405280929190818152602001828054610eb5906133b0565b8015610f025780601f10610ed757610100808354040283529160200191610f02565b820191906000526020600020905b815481529060010190602001808311610ee557829003601f168201915b5050505050905090565b610f1e610f17611e29565b838361232a565b5050565b6000610f2d82611dde565b610f3682610ca8565b73ffffffffffffffffffffffffffffffffffffffff16610f54611e29565b73ffffffffffffffffffffffffffffffffffffffff161415610fab576040517f08c379a0000000000000000000000000000000000000000000000000000000008152600401610fa29061374a565b60405180910390fd5b60006103e8600b600085815260200190815260200160002054610fce91906137c8565b905080600b600085815260200190815260200160002054610fef91906137f9565b341015611031576040517f08c379a0000000000000000000000000000000000000000000000000000000008152600401611028906138c1565b60405180910390fd5b6000600a600085815260200190815260200160002060006101000a81548160ff02191690831515021790555061106f611068611e29565b8585610c5e565b6000600b6000858152602001908152602001600020543461109091906138e1565b905060006064600c60009054906101000a900473ffffffffffffffffffffffffffffffffffffffff1673ffffffffffffffffffffffffffffffffffffffff16636eacd3986110dc611e29565b6040518263ffffffff1660e01b81526004016110f89190612e7e565b60206040518083038186803b15801561111057600080fd5b505afa158015611124573d6000803e3d6000fd5b505050506040513d601f19601f8201168201806040525081019061114891906135ad565b10159050801561120f57600c60009054906101000a900473ffffffffffffffffffffffffffffffffffffffff1673ffffffffffffffffffffffffffffffffffffffff1663b4727906611198611e29565b60646040518363ffffffff1660e01b81526004016111b7929190612c72565b602060405180830381600087803b1580156111d157600080fd5b505af11580156111e5573d6000803e3d6000fd5b505050506040513d601f19601f82011682018060405250810190611209919061392a565b5061121e565b828261121b91906138e1565b91505b60008211156112765761122f611e29565b73ffffffffffffffffffffffffffffffffffffffff166108fc839081150290604051600060405180830381858888f19350505050158015611274573d6000803e3d6000fd5b505b80935050505092915050565b61129361128d611e29565b83611eea565b6112d2576040517f08c379a00000000000000000000000000000000000000000000000000000000081526004016112c990613578565b60405180910390fd5b6112de84848484612497565b50505050565b6000600b6000838152602001908152602001600020549050919050565b606061130c82611dde565b600060066000848152602001908152602001600020805461132c906133b0565b80601f0160208091040260200160405190810160405280929190818152602001828054611358906133b0565b80156113a55780601f1061137a576101008083540402835291602001916113a5565b820191906000526020600020905b81548152906001019060200180831161138857829003601f168201915b5050505050905060006113b66124f3565b90506000815114156113cc57819250505061140f565b6000825111156114015780826040516020016113e9929190613993565b6040516020818303038152906040529250505061140f565b61140a8461250a565b925050505b919050565b6000600c60009054906101000a900473ffffffffffffffffffffffffffffffffffffffff1673ffffffffffffffffffffffffffffffffffffffff166370a0823161145c611e29565b6040518263ffffffff1660e01b81526004016114789190612e7e565b60206040518083038186803b15801561149057600080fd5b505afa1580156114a4573d6000803e3d6000fd5b505050506040513d601f19601f820116820180604052508101906114c891906135ad565b905090565b6000600c60009054906101000a900473ffffffffffffffffffffffffffffffffffffffff1673ffffffffffffffffffffffffffffffffffffffff16636eacd398611515611e29565b6040518263ffffffff1660e01b81526004016115319190612e7e565b60206040518083038186803b15801561154957600080fd5b505afa15801561155d573d6000803e3d6000fd5b505050506040513d601f19601f8201168201806040525081019061158191906135ad565b905090565b6000600560008473ffffffffffffffffffffffffffffffffffffffff1673ffffffffffffffffffffffffffffffffffffffff16815260200190815260200160002060008373ffffffffffffffffffffffffffffffffffffffff1673ffffffffffffffffffffffffffffffffffffffff16815260200190815260200160002060009054906101000a900460ff16905092915050565b60006116266009612572565b60006116326009612588565b905061163e8482612596565b6116488184612770565b6000600a600083815260200190815260200160002060006101000a81548160ff0219169083151502179055507fffffffffffffffffffffffffffffffffffffffffffffffffffffffffffffffff600b6000838152602001908152602001600020819055508091505092915050565b60006116c182611dde565b600a600083815260200190815260200160002060009054906101000a900460ff16611721576040517f08c379a000000000000000000000000000000000000000000000000000000000815260040161171890613a03565b60405180910390fd5b600061172b611e29565b905061173683610ca8565b73ffffffffffffffffffffffffffffffffffffffff168173ffffffffffffffffffffffffffffffffffffffff1614156117a4576040517f08c379a000000000000000000000000000000000000000000000000000000000815260040161179b90613a95565b60405180910390fd5b60006103e8600b6000868152602001908152602001600020546117c791906137c8565b905080600b6000868152602001908152602001600020546117e891906137f9565b34101561182a576040517f08c379a0000000000000000000000000000000000000000000000000000000008152600401611821906138c1565b60405180910390fd5b6000600a600086815260200190815260200160002060006101000a81548160ff02191690831515021790555061185f84610ca8565b73ffffffffffffffffffffffffffffffffffffffff166108fc600b6000878152602001908152602001600020549081150290604051600060405180830381858888f193505050501580156118b7573d6000803e3d6000fd5b506118d26118c485610ca8565b6118cc611e29565b86611f7f565b600c60009054906101000a900473ffffffffffffffffffffffffffffffffffffffff1673ffffffffffffffffffffffffffffffffffffffff16638e8dc6bc836040518263ffffffff1660e01b815260040161192d9190612e7e565b600060405180830381600087803b15801561194757600080fd5b505af115801561195b573d6000803e3d6000fd5b505050506000600b6000868152602001908152602001600020543461198091906138e1565b905060006064600c60009054906101000a900473ffffffffffffffffffffffffffffffffffffffff1673ffffffffffffffffffffffffffffffffffffffff16636eacd398866040518263ffffffff1660e01b81526004016119e19190612e7e565b60206040518083038186803b1580156119f957600080fd5b505afa158015611a0d573d6000803e3d6000fd5b505050506040513d601f19601f82011682018060405250810190611a3191906135ad565b101590508015611af157600c60009054906101000a900473ffffffffffffffffffffffffffffffffffffffff1673ffffffffffffffffffffffffffffffffffffffff1663b47279068560646040518363ffffffff1660e01b8152600401611a99929190612c72565b602060405180830381600087803b158015611ab357600080fd5b505af1158015611ac7573d6000803e3d6000fd5b505050506040513d601f19601f82011682018060405250810190611aeb919061392a565b50611b00565b8282611afd91906138e1565b91505b6000821115611b51578373ffffffffffffffffffffffffffffffffffffffff166108fc839081150290604051600060405180830381858888f19350505050158015611b4f573d6000803e3d6000fd5b505b80945050505050919050565b611b6682611dde565b611b6f82610ca8565b73ffffffffffffffffffffffffffffffffffffffff16611b8d611e29565b73ffffffffffffffffffffffffffffffffffffffff1614611be3576040517f08c379a0000000000000000000000000000000000000000000000000000000008152600401611bda90613b27565b60405180910390fd5b80600a600084815260200190815260200160002060006101000a81548160ff0219169083151502179055505050565b611c1a6121e6565b600073ffffffffffffffffffffffffffffffffffffffff168173ffffffffffffffffffffffffffffffffffffffff161415611c8a576040517f08c379a0000000000000000000000000000000000000000000000000000000008152600401611c8190613bb9565b60405180910390fd5b611c9381612264565b50565b611c9f82611dde565b611ca882610ca8565b73ffffffffffffffffffffffffffffffffffffffff16611cc6611e29565b73ffffffffffffffffffffffffffffffffffffffff1614611d1c576040517f08c379a0000000000000000000000000000000000000000000000000000000008152600401611d1390613c4b565b60405180910390fd5b670de0b6b3a764000081611d309190613c6b565b600b6000848152602001908152602001600020819055505050565b60008151905060006a636f6e736f6c652e6c6f679050602083016000808483855afa5050505050565b60007f01ffc9a7000000000000000000000000000000000000000000000000000000007bffffffffffffffffffffffffffffffffffffffffffffffffffffffff1916827bffffffffffffffffffffffffffffffffffffffffffffffffffffffff1916149050919050565b611de7816127e4565b611e26576040517f08c379a0000000000000000000000000000000000000000000000000000000008152600401611e1d90613626565b60405180910390fd5b50565b600033905090565b816004600083815260200190815260200160002060006101000a81548173ffffffffffffffffffffffffffffffffffffffff021916908373ffffffffffffffffffffffffffffffffffffffff160217905550808273ffffffffffffffffffffffffffffffffffffffff16611ea483610ca8565b73ffffffffffffffffffffffffffffffffffffffff167f8c5be1e5ebec7d5bd14f71427d1e84f3dd0314c0f7b2291e5b200ac8c7c3b92560405160405180910390a45050565b600080611ef683610ca8565b90508073ffffffffffffffffffffffffffffffffffffffff168473ffffffffffffffffffffffffffffffffffffffff161480611f385750611f378185611586565b5b80611f7657508373ffffffffffffffffffffffffffffffffffffffff16611f5e846109bd565b73ffffffffffffffffffffffffffffffffffffffff16145b91505092915050565b8273ffffffffffffffffffffffffffffffffffffffff16611f9f82610ca8565b73ffffffffffffffffffffffffffffffffffffffff1614611ff5576040517f08c379a0000000000000000000000000000000000000000000000000000000008152600401611fec90613d37565b60405180910390fd5b600073ffffffffffffffffffffffffffffffffffffffff168273ffffffffffffffffffffffffffffffffffffffff161415612065576040517f08c379a000000000000000000000000000000000000000000000000000000000815260040161205c90613dc9565b60405180910390fd5b612070838383612850565b61207b600082611e31565b6001600360008573ffffffffffffffffffffffffffffffffffffffff1673ffffffffffffffffffffffffffffffffffffffff16815260200190815260200160002060008282546120cb91906138e1565b925050819055506001600360008473ffffffffffffffffffffffffffffffffffffffff1673ffffffffffffffffffffffffffffffffffffffff168152602001908152602001600020600082825461212291906137f9565b92505081905550816002600083815260200190815260200160002060006101000a81548173ffffffffffffffffffffffffffffffffffffffff021916908373ffffffffffffffffffffffffffffffffffffffff160217905550808273ffffffffffffffffffffffffffffffffffffffff168473ffffffffffffffffffffffffffffffffffffffff167fddf252ad1be2c89b69c2b068fc378daa952ba7f163c4a11628f55a4df523b3ef60405160405180910390a46121e1838383612855565b505050565b6121ee611e29565b73ffffffffffffffffffffffffffffffffffffffff1661220c610e50565b73ffffffffffffffffffffffffffffffffffffffff1614612262576040517f08c379a000000000000000000000000000000000000000000000000000000000815260040161225990613e35565b60405180910390fd5b565b6000600760009054906101000a900473ffffffffffffffffffffffffffffffffffffffff16905081600760006101000a81548173ffffffffffffffffffffffffffffffffffffffff021916908373ffffffffffffffffffffffffffffffffffffffff1602179055508173ffffffffffffffffffffffffffffffffffffffff168173ffffffffffffffffffffffffffffffffffffffff167f8be0079c531659141344cd1fd0a4f28419497f9722a3daafe3b4186f6b6457e060405160405180910390a35050565b8173ffffffffffffffffffffffffffffffffffffffff168373ffffffffffffffffffffffffffffffffffffffff161415612399576040517f08c379a000000000000000000000000000000000000000000000000000000000815260040161239090613ea1565b60405180910390fd5b80600560008573ffffffffffffffffffffffffffffffffffffffff1673ffffffffffffffffffffffffffffffffffffffff16815260200190815260200160002060008473ffffffffffffffffffffffffffffffffffffffff1673ffffffffffffffffffffffffffffffffffffffff16815260200190815260200160002060006101000a81548160ff0219169083151502179055508173ffffffffffffffffffffffffffffffffffffffff168373ffffffffffffffffffffffffffffffffffffffff167f17307eab39ab6107e8899845ad3d59bd9653f200f220920489ca2b5937696c318360405161248a9190612d4f565b60405180910390a3505050565b6124a2848484611f7f565b6124ae8484848461285a565b6124ed576040517f08c379a00000000000000000000000000000000000000000000000000000000081526004016124e490613f33565b60405180910390fd5b50505050565b606060405180602001604052806000815250905090565b606061251582611dde565b600061251f6124f3565b9050600081511161253f576040518060200160405280600081525061256a565b80612549846129f1565b60405160200161255a929190613993565b6040516020818303038152906040525b915050919050565b6001816000016000828254019250508190555050565b600081600001549050919050565b600073ffffffffffffffffffffffffffffffffffffffff168273ffffffffffffffffffffffffffffffffffffffff161415612606576040517f08c379a00000000000000000000000000000000000000000000000000000000081526004016125fd90613f9f565b60405180910390fd5b61260f816127e4565b1561264f576040517f08c379a00000000000000000000000000000000000000000000000000000000081526004016126469061400b565b60405180910390fd5b61265b60008383612850565b6001600360008473ffffffffffffffffffffffffffffffffffffffff1673ffffffffffffffffffffffffffffffffffffffff16815260200190815260200160002060008282546126ab91906137f9565b92505081905550816002600083815260200190815260200160002060006101000a81548173ffffffffffffffffffffffffffffffffffffffff021916908373ffffffffffffffffffffffffffffffffffffffff160217905550808273ffffffffffffffffffffffffffffffffffffffff16600073ffffffffffffffffffffffffffffffffffffffff167fddf252ad1be2c89b69c2b068fc378daa952ba7f163c4a11628f55a4df523b3ef60405160405180910390a461276c60008383612855565b5050565b612779826127e4565b6127b8576040517f08c379a00000000000000000000000000000000000000000000000000000000081526004016127af9061409d565b60405180910390fd5b806006600084815260200190815260200160002090805190602001906127df929190612b75565b505050565b60008073ffffffffffffffffffffffffffffffffffffffff166002600084815260200190815260200160002060009054906101000a900473ffffffffffffffffffffffffffffffffffffffff1673ffffffffffffffffffffffffffffffffffffffff1614159050919050565b505050565b505050565b600061287b8473ffffffffffffffffffffffffffffffffffffffff16612b52565b156129e4578373ffffffffffffffffffffffffffffffffffffffff1663150b7a026128a4611e29565b8786866040518563ffffffff1660e01b81526004016128c69493929190614112565b602060405180830381600087803b1580156128e057600080fd5b505af192505050801561291157506040513d601f19601f8201168201806040525081019061290e9190614173565b60015b612994573d8060008114612941576040519150601f19603f3d011682016040523d82523d6000602084013e612946565b606091505b5060008151141561298c576040517f08c379a000000000000000000000000000000000000000000000000000000000815260040161298390613f33565b60405180910390fd5b805181602001fd5b63150b7a0260e01b7bffffffffffffffffffffffffffffffffffffffffffffffffffffffff1916817bffffffffffffffffffffffffffffffffffffffffffffffffffffffff1916149150506129e9565b600190505b949350505050565b60606000821415612a39576040518060400160405280600181526020017f30000000000000000000000000000000000000000000000000000000000000008152509050612b4d565b600082905060005b60008214612a6b578080612a54906141a0565b915050600a82612a6491906137c8565b9150612a41565b60008167ffffffffffffffff811115612a8757612a86613016565b5b6040519080825280601f01601f191660200182016040528015612ab95781602001600182028036833780820191505090505b5090505b60008514612b4657600182612ad291906138e1565b9150600a85612ae191906141e9565b6030612aed91906137f9565b60f81b818381518110612b0357612b0261421a565b5b60200101907effffffffffffffffffffffffffffffffffffffffffffffffffffffffffffff1916908160001a905350600a85612b3f91906137c8565b9450612abd565b8093505050505b919050565b6000808273ffffffffffffffffffffffffffffffffffffffff163b119050919050565b828054612b81906133b0565b90600052602060002090601f016020900481019282612ba35760008555612bea565b82601f10612bbc57805160ff1916838001178555612bea565b82800160010185558215612bea579182015b82811115612be9578251825591602001919060010190612bce565b5b509050612bf79190612bfb565b5090565b5b80821115612c14576000816000905550600101612bfc565b5090565b600073ffffffffffffffffffffffffffffffffffffffff82169050919050565b6000612c4382612c18565b9050919050565b612c5381612c38565b82525050565b6000819050919050565b612c6c81612c59565b82525050565b6000604082019050612c876000830185612c4a565b612c946020830184612c63565b9392505050565b6000604051905090565b600080fd5b600080fd5b60007fffffffff0000000000000000000000000000000000000000000000000000000082169050919050565b612ce481612caf565b8114612cef57600080fd5b50565b600081359050612d0181612cdb565b92915050565b600060208284031215612d1d57612d1c612ca5565b5b6000612d2b84828501612cf2565b91505092915050565b60008115159050919050565b612d4981612d34565b82525050565b6000602082019050612d646000830184612d40565b92915050565b600081519050919050565b600082825260208201905092915050565b60005b83811015612da4578082015181840152602081019050612d89565b83811115612db3576000848401525b50505050565b6000601f19601f8301169050919050565b6000612dd582612d6a565b612ddf8185612d75565b9350612def818560208601612d86565b612df881612db9565b840191505092915050565b60006020820190508181036000830152612e1d8184612dca565b905092915050565b612e2e81612c59565b8114612e3957600080fd5b50565b600081359050612e4b81612e25565b92915050565b600060208284031215612e6757612e66612ca5565b5b6000612e7584828501612e3c565b91505092915050565b6000602082019050612e936000830184612c4a565b92915050565b612ea281612c38565b8114612ead57600080fd5b50565b600081359050612ebf81612e99565b92915050565b60008060408385031215612edc57612edb612ca5565b5b6000612eea85828601612eb0565b9250506020612efb85828601612e3c565b9150509250929050565b600080600060608486031215612f1e57612f1d612ca5565b5b6000612f2c86828701612eb0565b9350506020612f3d86828701612eb0565b9250506040612f4e86828701612e3c565b9150509250925092565b6000602082019050612f6d6000830184612c63565b92915050565b600060208284031215612f8957612f88612ca5565b5b6000612f9784828501612eb0565b91505092915050565b612fa981612d34565b8114612fb457600080fd5b50565b600081359050612fc681612fa0565b92915050565b60008060408385031215612fe357612fe2612ca5565b5b6000612ff185828601612eb0565b925050602061300285828601612fb7565b9150509250929050565b600080fd5b600080fd5b7f4e487b7100000000000000000000000000000000000000000000000000000000600052604160045260246000fd5b61304e82612db9565b810181811067ffffffffffffffff8211171561306d5761306c613016565b5b80604052505050565b6000613080612c9b565b905061308c8282613045565b919050565b600067ffffffffffffffff8211156130ac576130ab613016565b5b6130b582612db9565b9050602081019050919050565b82818337600083830152505050565b60006130e46130df84613091565b613076565b905082815260208101848484011115613100576130ff613011565b5b61310b8482856130c2565b509392505050565b600082601f8301126131285761312761300c565b5b81356131388482602086016130d1565b91505092915050565b6000806000806080858703121561315b5761315a612ca5565b5b600061316987828801612eb0565b945050602061317a87828801612eb0565b935050604061318b87828801612e3c565b925050606085013567ffffffffffffffff8111156131ac576131ab612caa565b5b6131b887828801613113565b91505092959194509250565b600080604083850312156131db576131da612ca5565b5b60006131e985828601612eb0565b92505060206131fa85828601612eb0565b9150509250929050565b600067ffffffffffffffff82111561321f5761321e613016565b5b61322882612db9565b9050602081019050919050565b600061324861324384613204565b613076565b90508281526020810184848401111561326457613263613011565b5b61326f8482856130c2565b509392505050565b600082601f83011261328c5761328b61300c565b5b813561329c848260208601613235565b91505092915050565b600080604083850312156132bc576132bb612ca5565b5b60006132ca85828601612eb0565b925050602083013567ffffffffffffffff8111156132eb576132ea612caa565b5b6132f785828601613277565b9150509250929050565b6000806040838503121561331857613317612ca5565b5b600061332685828601612e3c565b925050602061333785828601612fb7565b9150509250929050565b6000806040838503121561335857613357612ca5565b5b600061336685828601612e3c565b925050602061337785828601612e3c565b9150509250929050565b7f4e487b7100000000000000000000000000000000000000000000000000000000600052602260045260246000fd5b600060028204905060018216806133c857607f821691505b602082108114156133dc576133db613381565b5b50919050565b7f4552433732313a20617070726f76616c20746f2063757272656e74206f776e6560008201527f7200000000000000000000000000000000000000000000000000000000000000602082015250565b600061343e602183612d75565b9150613449826133e2565b604082019050919050565b6000602082019050818103600083015261346d81613431565b9050919050565b7f4552433732313a20617070726f76652063616c6c6572206973206e6f7420746f60008201527f6b656e206f776e6572206e6f7220617070726f76656420666f7220616c6c0000602082015250565b60006134d0603e83612d75565b91506134db82613474565b604082019050919050565b600060208201905081810360008301526134ff816134c3565b9050919050565b7f4552433732313a2063616c6c6572206973206e6f7420746f6b656e206f776e6560008201527f72206e6f7220617070726f766564000000000000000000000000000000000000602082015250565b6000613562602e83612d75565b915061356d82613506565b604082019050919050565b6000602082019050818103600083015261359181613555565b9050919050565b6000815190506135a781612e25565b92915050565b6000602082840312156135c3576135c2612ca5565b5b60006135d184828501613598565b91505092915050565b7f4552433732313a20696e76616c696420746f6b656e2049440000000000000000600082015250565b6000613610601883612d75565b915061361b826135da565b602082019050919050565b6000602082019050818103600083015261363f81613603565b9050919050565b7f4552433732313a2061646472657373207a65726f206973206e6f74206120766160008201527f6c6964206f776e65720000000000000000000000000000000000000000000000602082015250565b60006136a2602983612d75565b91506136ad82613646565b604082019050919050565b600060208201905081810360008301526136d181613695565b9050919050565b7f596f752063616e6e6f74207472616e7366657220796f757220746f6b656e207460008201527f6f20796f757273656c6600000000000000000000000000000000000000000000602082015250565b6000613734602a83612d75565b915061373f826136d8565b604082019050919050565b6000602082019050818103600083015261376381613727565b9050919050565b7f4e487b7100000000000000000000000000000000000000000000000000000000600052601260045260246000fd5b7f4e487b7100000000000000000000000000000000000000000000000000000000600052601160045260246000fd5b60006137d382612c59565b91506137de83612c59565b9250826137ee576137ed61376a565b5b828204905092915050565b600061380482612c59565b915061380f83612c59565b9250827fffffffffffffffffffffffffffffffffffffffffffffffffffffffffffffffff0382111561384457613843613799565b5b828201905092915050565b7f596f7520646f206e6f74206861766520656e6f75676820657468657220746f2060008201527f7061790000000000000000000000000000000000000000000000000000000000602082015250565b60006138ab602383612d75565b91506138b68261384f565b604082019050919050565b600060208201905081810360008301526138da8161389e565b9050919050565b60006138ec82612c59565b91506138f783612c59565b92508282101561390a57613909613799565b5b828203905092915050565b60008151905061392481612fa0565b92915050565b6000602082840312156139405761393f612ca5565b5b600061394e84828501613915565b91505092915050565b600081905092915050565b600061396d82612d6a565b6139778185613957565b9350613987818560208601612d86565b80840191505092915050565b600061399f8285613962565b91506139ab8284613962565b91508190509392505050565b7f5468697320746f6b656e206973206e6f7420666f722073616c65000000000000600082015250565b60006139ed601a83612d75565b91506139f8826139b7565b602082019050919050565b60006020820190508181036000830152613a1c816139e0565b9050919050565b7f596f752063616e277420707572636861736520796f7572206f776e20746f6b6560008201527f6e00000000000000000000000000000000000000000000000000000000000000602082015250565b6000613a7f602183612d75565b9150613a8a82613a23565b604082019050919050565b60006020820190508181036000830152613aae81613a72565b9050919050565b7f4f6e6c7920746865206f776e65722063616e20736574206120746f6b656e206660008201527f6f722073616c6500000000000000000000000000000000000000000000000000602082015250565b6000613b11602783612d75565b9150613b1c82613ab5565b604082019050919050565b60006020820190508181036000830152613b4081613b04565b9050919050565b7f4f776e61626c653a206e6577206f776e657220697320746865207a65726f206160008201527f6464726573730000000000000000000000000000000000000000000000000000602082015250565b6000613ba3602683612d75565b9150613bae82613b47565b604082019050919050565b60006020820190508181036000830152613bd281613b96565b9050919050565b7f4f6e6c7920746865206f776e65722063616e20736574206120746f6b656e207060008201527f7269636500000000000000000000000000000000000000000000000000000000602082015250565b6000613c35602483612d75565b9150613c4082613bd9565b604082019050919050565b60006020820190508181036000830152613c6481613c28565b9050919050565b6000613c7682612c59565b9150613c8183612c59565b9250817fffffffffffffffffffffffffffffffffffffffffffffffffffffffffffffffff0483118215151615613cba57613cb9613799565b5b828202905092915050565b7f4552433732313a207472616e736665722066726f6d20696e636f72726563742060008201527f6f776e6572000000000000000000000000000000000000000000000000000000602082015250565b6000613d21602583612d75565b9150613d2c82613cc5565b604082019050919050565b60006020820190508181036000830152613d5081613d14565b9050919050565b7f4552433732313a207472616e7366657220746f20746865207a65726f2061646460008201527f7265737300000000000000000000000000000000000000000000000000000000602082015250565b6000613db3602483612d75565b9150613dbe82613d57565b604082019050919050565b60006020820190508181036000830152613de281613da6565b9050919050565b7f4f776e61626c653a2063616c6c6572206973206e6f7420746865206f776e6572600082015250565b6000613e1f602083612d75565b9150613e2a82613de9565b602082019050919050565b60006020820190508181036000830152613e4e81613e12565b9050919050565b7f4552433732313a20617070726f766520746f2063616c6c657200000000000000600082015250565b6000613e8b601983612d75565b9150613e9682613e55565b602082019050919050565b60006020820190508181036000830152613eba81613e7e565b9050919050565b7f4552433732313a207472616e7366657220746f206e6f6e20455243373231526560008201527f63656976657220696d706c656d656e7465720000000000000000000000000000602082015250565b6000613f1d603283612d75565b9150613f2882613ec1565b604082019050919050565b60006020820190508181036000830152613f4c81613f10565b9050919050565b7f4552433732313a206d696e7420746f20746865207a65726f2061646472657373600082015250565b6000613f89602083612d75565b9150613f9482613f53565b602082019050919050565b60006020820190508181036000830152613fb881613f7c565b9050919050565b7f4552433732313a20746f6b656e20616c7265616479206d696e74656400000000600082015250565b6000613ff5601c83612d75565b915061400082613fbf565b602082019050919050565b6000602082019050818103600083015261402481613fe8565b9050919050565b7f45524337323155524953746f726167653a2055524920736574206f66206e6f6e60008201527f6578697374656e7420746f6b656e000000000000000000000000000000000000602082015250565b6000614087602e83612d75565b91506140928261402b565b604082019050919050565b600060208201905081810360008301526140b68161407a565b9050919050565b600081519050919050565b600082825260208201905092915050565b60006140e4826140bd565b6140ee81856140c8565b93506140fe818560208601612d86565b61410781612db9565b840191505092915050565b60006080820190506141276000830187612c4a565b6141346020830186612c4a565b6141416040830185612c63565b818103606083015261415381846140d9565b905095945050505050565b60008151905061416d81612cdb565b92915050565b60006020828403121561418957614188612ca5565b5b60006141978482850161415e565b91505092915050565b60006141ab82612c59565b91507fffffffffffffffffffffffffffffffffffffffffffffffffffffffffffffffff8214156141de576141dd613799565b5b600182019050919050565b60006141f482612c59565b91506141ff83612c59565b92508261420f5761420e61376a565b5b828206905092915050565b7f4e487b7100000000000000000000000000000000000000000000000000000000600052603260045260246000fdfea2646970667358221220ef2e5758359b3ad0c81f53ecb4bd1da906e99795b01bcc33d3bf6c2e431f107e64736f6c6343000809003360806040526103e86007553480156200001757600080fd5b506040518060400160405280600b81526020017f4d7920465420546f6b656e0000000000000000000000000000000000000000008152506040518060400160405280600581526020017f43436f696e00000000000000000000000000000000000000000000000000000081525081600390805190602001906200009c929190620000ff565b508060049080519060200190620000b5929190620000ff565b50505033600560006101000a81548173ffffffffffffffffffffffffffffffffffffffff021916908373ffffffffffffffffffffffffffffffffffffffff16021790555062000214565b8280546200010d90620001de565b90600052602060002090601f0160209004810192826200013157600085556200017d565b82601f106200014c57805160ff19168380011785556200017d565b828001600101855582156200017d579182015b828111156200017c5782518255916020019190600101906200015f565b5b5090506200018c919062000190565b5090565b5b80821115620001ab57600081600090555060010162000191565b5090565b7f4e487b7100000000000000000000000000000000000000000000000000000000600052602260045260246000fd5b60006002820490506001821680620001f757607f821691505b602082108114156200020e576200020d620001af565b5b50919050565b611e7e80620002246000396000f3fe608060405234801561001057600080fd5b506004361061012c5760003560e01c806370a08231116100ad578063b472790611610071578063b472790614610394578063ce606ee0146103c4578063dd62ed3e146103e2578063f117501c14610412578063fe65496e1461042e5761012c565b806370a08231146102ca5780638e8dc6bc146102fa57806395d89b4114610316578063a457c2d714610334578063a9059cbb146103645761012c565b806318160ddd116100f457806318160ddd146101fe57806323b872dd1461021c578063313ce5671461024c578063395093511461026a5780636eacd3981461029a5761012c565b806301608f5f1461013157806306fdde0314610161578063095ea7b31461017f578063101c1778146101af5780631265ef82146101cd575b600080fd5b61014b600480360381019061014691906113c6565b61044a565b604051610158919061140c565b60405180910390f35b610169610496565b60405161017691906114c0565b60405180910390f35b6101996004803603810190610194919061150e565b610528565b6040516101a69190611569565b60405180910390f35b6101b761054b565b6040516101c49190611593565b60405180910390f35b6101e760048036038101906101e291906113c6565b610575565b6040516101f59291906115ae565b60405180910390f35b610206610599565b604051610213919061140c565b60405180910390f35b610236600480360381019061023191906115d7565b6105a3565b6040516102439190611569565b60405180910390f35b6102546105d2565b6040516102619190611646565b60405180910390f35b610284600480360381019061027f919061150e565b6105db565b6040516102919190611569565b60405180910390f35b6102b460048036038101906102af91906113c6565b610612565b6040516102c1919061140c565b60405180910390f35b6102e460048036038101906102df91906113c6565b610629565b6040516102f1919061140c565b60405180910390f35b610314600480360381019061030f91906113c6565b610671565b005b61031e6108a4565b60405161032b91906114c0565b60405180910390f35b61034e6004803603810190610349919061150e565b610936565b60405161035b9190611569565b60405180910390f35b61037e6004803603810190610379919061150e565b6109ad565b60405161038b9190611569565b60405180910390f35b6103ae60048036038101906103a9919061150e565b6109d0565b6040516103bb9190611569565b60405180910390f35b6103cc610af7565b6040516103d99190611593565b60405180910390f35b6103fc60048036038101906103f79190611661565b610b1d565b604051610409919061140c565b60405180910390f35b61042c6004803603810190610427919061150e565b610ba4565b005b6104486004803603810190610443919061150e565b610c22565b005b6000600660008373ffffffffffffffffffffffffffffffffffffffff1673ffffffffffffffffffffffffffffffffffffffff168152602001908152602001600020600001549050919050565b6060600380546104a5906116d0565b80601f01602080910402602001604051908101604052809291908181526020018280546104d1906116d0565b801561051e5780601f106104f35761010080835404028352916020019161051e565b820191906000526020600020905b81548152906001019060200180831161050157829003601f168201915b5050505050905090565b600080610533610c4e565b9050610540818585610c56565b600191505092915050565b6000600560009054906101000a900473ffffffffffffffffffffffffffffffffffffffff16905090565b60066020528060005260406000206000915090508060000154908060010154905082565b6000600254905090565b6000806105ae610c4e565b90506105bb858285610e21565b6105c6858585610ead565b60019150509392505050565b60006012905090565b6000806105e6610c4e565b90506106078185856105f88589610b1d565b6106029190611731565b610c56565b600191505092915050565b60008061061e83610629565b905080915050919050565b60008060008373ffffffffffffffffffffffffffffffffffffffff1673ffffffffffffffffffffffffffffffffffffffff168152602001908152602001600020549050919050565b6000600660008373ffffffffffffffffffffffffffffffffffffffff1673ffffffffffffffffffffffffffffffffffffffff1681526020019081526020016000206000015414156107085742600660008373ffffffffffffffffffffffffffffffffffffffff1673ffffffffffffffffffffffffffffffffffffffff168152602001908152602001600020600101819055506107f0565b62015180600660008373ffffffffffffffffffffffffffffffffffffffff1673ffffffffffffffffffffffffffffffffffffffff168152602001908152602001600020600101544261075a9190611787565b106107ef5742600660008373ffffffffffffffffffffffffffffffffffffffff1673ffffffffffffffffffffffffffffffffffffffff168152602001908152602001600020600101819055506000600660008373ffffffffffffffffffffffffffffffffffffffff1673ffffffffffffffffffffffffffffffffffffffff168152602001908152602001600020600001819055505b5b6001600660008373ffffffffffffffffffffffffffffffffffffffff1673ffffffffffffffffffffffffffffffffffffffff16815260200190815260200160002060000160008282546108439190611731565b92505081905550600754600660008373ffffffffffffffffffffffffffffffffffffffff1673ffffffffffffffffffffffffffffffffffffffff16815260200190815260200160002060000154116108a1576108a081600161112e565b5b50565b6060600480546108b3906116d0565b80601f01602080910402602001604051908101604052809291908181526020018280546108df906116d0565b801561092c5780601f106109015761010080835404028352916020019161092c565b820191906000526020600020905b81548152906001019060200180831161090f57829003601f168201915b5050505050905090565b600080610941610c4e565b9050600061094f8286610b1d565b905083811015610994576040517f08c379a000000000000000000000000000000000000000000000000000000000815260040161098b9061182d565b60405180910390fd5b6109a18286868403610c56565b60019250505092915050565b6000806109b8610c4e565b90506109c5818585610ead565b600191505092915050565b6000600560009054906101000a900473ffffffffffffffffffffffffffffffffffffffff1673ffffffffffffffffffffffffffffffffffffffff168373ffffffffffffffffffffffffffffffffffffffff161415610a63576040517f08c379a0000000000000000000000000000000000000000000000000000000008152600401610a5a906118bf565b60405180910390fd5b610a6f8360008461128e565b6000610a7a84610629565b905082811015610abf576040517f08c379a0000000000000000000000000000000000000000000000000000000008152600401610ab690611951565b60405180910390fd5b610aec84600560009054906101000a900473ffffffffffffffffffffffffffffffffffffffff1685610ead565b600191505092915050565b600560009054906101000a900473ffffffffffffffffffffffffffffffffffffffff1681565b6000600160008473ffffffffffffffffffffffffffffffffffffffff1673ffffffffffffffffffffffffffffffffffffffff16815260200190815260200160002060008373ffffffffffffffffffffffffffffffffffffffff1673ffffffffffffffffffffffffffffffffffffffff16815260200190815260200160002054905092915050565b80610bae33610629565b1015610bef576040517f08c379a0000000000000000000000000000000000000000000000000000000008152600401610be6906119bd565b60405180910390fd5b610c13604051806060016040528060248152602001611e2560249139338484611293565b610c1e338383610ead565b5050565b60005b81811015610c4957610c3683610671565b8080610c41906119dd565b915050610c25565b505050565b600033905090565b600073ffffffffffffffffffffffffffffffffffffffff168373ffffffffffffffffffffffffffffffffffffffff161415610cc6576040517f08c379a0000000000000000000000000000000000000000000000000000000008152600401610cbd90611a98565b60405180910390fd5b600073ffffffffffffffffffffffffffffffffffffffff168273ffffffffffffffffffffffffffffffffffffffff161415610d36576040517f08c379a0000000000000000000000000000000000000000000000000000000008152600401610d2d90611b2a565b60405180910390fd5b80600160008573ffffffffffffffffffffffffffffffffffffffff1673ffffffffffffffffffffffffffffffffffffffff16815260200190815260200160002060008473ffffffffffffffffffffffffffffffffffffffff1673ffffffffffffffffffffffffffffffffffffffff168152602001908152602001600020819055508173ffffffffffffffffffffffffffffffffffffffff168373ffffffffffffffffffffffffffffffffffffffff167f8c5be1e5ebec7d5bd14f71427d1e84f3dd0314c0f7b2291e5b200ac8c7c3b92583604051610e14919061140c565b60405180910390a3505050565b6000610e2d8484610b1d565b90507fffffffffffffffffffffffffffffffffffffffffffffffffffffffffffffffff8114610ea75781811015610e99576040517f08c379a0000000000000000000000000000000000000000000000000000000008152600401610e9090611b96565b60405180910390fd5b610ea68484848403610c56565b5b50505050565b600073ffffffffffffffffffffffffffffffffffffffff168373ffffffffffffffffffffffffffffffffffffffff161415610f1d576040517f08c379a0000000000000000000000000000000000000000000000000000000008152600401610f1490611c28565b60405180910390fd5b600073ffffffffffffffffffffffffffffffffffffffff168273ffffffffffffffffffffffffffffffffffffffff161415610f8d576040517f08c379a0000000000000000000000000000000000000000000000000000000008152600401610f8490611cba565b60405180910390fd5b610f9883838361128e565b60008060008573ffffffffffffffffffffffffffffffffffffffff1673ffffffffffffffffffffffffffffffffffffffff1681526020019081526020016000205490508181101561101e576040517f08c379a000000000000000000000000000000000000000000000000000000000815260040161101590611d4c565b60405180910390fd5b8181036000808673ffffffffffffffffffffffffffffffffffffffff1673ffffffffffffffffffffffffffffffffffffffff16815260200190815260200160002081905550816000808573ffffffffffffffffffffffffffffffffffffffff1673ffffffffffffffffffffffffffffffffffffffff16815260200190815260200160002060008282546110b19190611731565b925050819055508273ffffffffffffffffffffffffffffffffffffffff168473ffffffffffffffffffffffffffffffffffffffff167fddf252ad1be2c89b69c2b068fc378daa952ba7f163c4a11628f55a4df523b3ef84604051611115919061140c565b60405180910390a3611128848484611335565b50505050565b600073ffffffffffffffffffffffffffffffffffffffff168273ffffffffffffffffffffffffffffffffffffffff16141561119e576040517f08c379a000000000000000000000000000000000000000000000000000000000815260040161119590611db8565b60405180910390fd5b6111aa6000838361128e565b80600260008282546111bc9190611731565b92505081905550806000808473ffffffffffffffffffffffffffffffffffffffff1673ffffffffffffffffffffffffffffffffffffffff16815260200190815260200160002060008282546112119190611731565b925050819055508173ffffffffffffffffffffffffffffffffffffffff16600073ffffffffffffffffffffffffffffffffffffffff167fddf252ad1be2c89b69c2b068fc378daa952ba7f163c4a11628f55a4df523b3ef83604051611276919061140c565b60405180910390a361128a60008383611335565b5050565b505050565b61132f848484846040516024016112ad9493929190611dd8565b6040516020818303038152906040527f6eb7943d000000000000000000000000000000000000000000000000000000007bffffffffffffffffffffffffffffffffffffffffffffffffffffffff19166020820180517bffffffffffffffffffffffffffffffffffffffffffffffffffffffff838183161783525050505061133a565b50505050565b505050565b60008151905060006a636f6e736f6c652e6c6f679050602083016000808483855afa5050505050565b600080fd5b600073ffffffffffffffffffffffffffffffffffffffff82169050919050565b600061139382611368565b9050919050565b6113a381611388565b81146113ae57600080fd5b50565b6000813590506113c08161139a565b92915050565b6000602082840312156113dc576113db611363565b5b60006113ea848285016113b1565b91505092915050565b6000819050919050565b611406816113f3565b82525050565b600060208201905061142160008301846113fd565b92915050565b600081519050919050565b600082825260208201905092915050565b60005b83811015611461578082015181840152602081019050611446565b83811115611470576000848401525b50505050565b6000601f19601f8301169050919050565b600061149282611427565b61149c8185611432565b93506114ac818560208601611443565b6114b581611476565b840191505092915050565b600060208201905081810360008301526114da8184611487565b905092915050565b6114eb816113f3565b81146114f657600080fd5b50565b600081359050611508816114e2565b92915050565b6000806040838503121561152557611524611363565b5b6000611533858286016113b1565b9250506020611544858286016114f9565b9150509250929050565b60008115159050919050565b6115638161154e565b82525050565b600060208201905061157e600083018461155a565b92915050565b61158d81611388565b82525050565b60006020820190506115a86000830184611584565b92915050565b60006040820190506115c360008301856113fd565b6115d060208301846113fd565b9392505050565b6000806000606084860312156115f0576115ef611363565b5b60006115fe868287016113b1565b935050602061160f868287016113b1565b9250506040611620868287016114f9565b9150509250925092565b600060ff82169050919050565b6116408161162a565b82525050565b600060208201905061165b6000830184611637565b92915050565b6000806040838503121561167857611677611363565b5b6000611686858286016113b1565b9250506020611697858286016113b1565b9150509250929050565b7f4e487b7100000000000000000000000000000000000000000000000000000000600052602260045260246000fd5b600060028204905060018216806116e857607f821691505b602082108114156116fc576116fb6116a1565b5b50919050565b7f4e487b7100000000000000000000000000000000000000000000000000000000600052601160045260246000fd5b600061173c826113f3565b9150611747836113f3565b9250827fffffffffffffffffffffffffffffffffffffffffffffffffffffffffffffffff0382111561177c5761177b611702565b5b828201905092915050565b6000611792826113f3565b915061179d836113f3565b9250828210156117b0576117af611702565b5b828203905092915050565b7f45524332303a2064656372656173656420616c6c6f77616e63652062656c6f7760008201527f207a65726f000000000000000000000000000000000000000000000000000000602082015250565b6000611817602583611432565b9150611822826117bb565b604082019050919050565b600060208201905081810360008301526118468161180a565b9050919050565b7f45524332303a206275726e2066726f6d2074686520636f6e74726163744f776e60008201527f6572206164647265737300000000000000000000000000000000000000000000602082015250565b60006118a9602a83611432565b91506118b48261184d565b604082019050919050565b600060208201905081810360008301526118d88161189c565b9050919050565b7f45524332303a206275726e20616d6f756e7420657863656564732062616c616e60008201527f6365000000000000000000000000000000000000000000000000000000000000602082015250565b600061193b602283611432565b9150611946826118df565b604082019050919050565b6000602082019050818103600083015261196a8161192e565b9050919050565b7f4e6f7420656e6f75676820746f6b656e73000000000000000000000000000000600082015250565b60006119a7601183611432565b91506119b282611971565b602082019050919050565b600060208201905081810360008301526119d68161199a565b9050919050565b60006119e8826113f3565b91507fffffffffffffffffffffffffffffffffffffffffffffffffffffffffffffffff821415611a1b57611a1a611702565b5b600182019050919050565b7f45524332303a20617070726f76652066726f6d20746865207a65726f2061646460008201527f7265737300000000000000000000000000000000000000000000000000000000602082015250565b6000611a82602483611432565b9150611a8d82611a26565b604082019050919050565b60006020820190508181036000830152611ab181611a75565b9050919050565b7f45524332303a20617070726f766520746f20746865207a65726f20616464726560008201527f7373000000000000000000000000000000000000000000000000000000000000602082015250565b6000611b14602283611432565b9150611b1f82611ab8565b604082019050919050565b60006020820190508181036000830152611b4381611b07565b9050919050565b7f45524332303a20696e73756666696369656e7420616c6c6f77616e6365000000600082015250565b6000611b80601d83611432565b9150611b8b82611b4a565b602082019050919050565b60006020820190508181036000830152611baf81611b73565b9050919050565b7f45524332303a207472616e736665722066726f6d20746865207a65726f20616460008201527f6472657373000000000000000000000000000000000000000000000000000000602082015250565b6000611c12602583611432565b9150611c1d82611bb6565b604082019050919050565b60006020820190508181036000830152611c4181611c05565b9050919050565b7f45524332303a207472616e7366657220746f20746865207a65726f206164647260008201527f6573730000000000000000000000000000000000000000000000000000000000602082015250565b6000611ca4602383611432565b9150611caf82611c48565b604082019050919050565b60006020820190508181036000830152611cd381611c97565b9050919050565b7f45524332303a207472616e7366657220616d6f756e742065786365656473206260008201527f616c616e63650000000000000000000000000000000000000000000000000000602082015250565b6000611d36602683611432565b9150611d4182611cda565b604082019050919050565b60006020820190508181036000830152611d6581611d29565b9050919050565b7f45524332303a206d696e7420746f20746865207a65726f206164647265737300600082015250565b6000611da2601f83611432565b9150611dad82611d6c565b602082019050919050565b60006020820190508181036000830152611dd181611d95565b9050919050565b60006080820190508181036000830152611df28187611487565b9050611e016020830186611584565b611e0e6040830185611584565b611e1b60608301846113fd565b9594505050505056fe5472616e7366657272696e672066726f6d20257320746f20257320257320746f6b656e73a26469706673582212203b6c53e91fa5237e36afba3d4ff2e6af53ec41a77e0106fe884869ab1b58012e64736f6c63430008090033",
  "linkReferences": {},
  "deployedLinkReferences": {}
}