{
  "_format": "hh-sol-artifact-1",
  "contractName": "ACoin",
  "sourceName": "contracts/a-coin.sol",
  "abi": [
    {
      "inputs": [],
      "stateMutability": "nonpayable",
      "type": "constructor"
    },
    {
      "anonymous": false,
      "inputs": [
        {
          "indexed": true,
          "internalType": "address",
          "name": "owner",
          "type": "address"
        },
        {
          "indexed": true,
          "internalType": "address",
          "name": "approved",
          "type": "address"
        },
        {
          "indexed": true,
          "internalType": "uint256",
          "name": "tokenId",
          "type": "uint256"
        }
      ],
      "name": "Approval",
      "type": "event"
    },
    {
      "anonymous": false,
      "inputs": [
        {
          "indexed": true,
          "internalType": "address",
          "name": "owner",
          "type": "address"
        },
        {
          "indexed": true,
          "internalType": "address",
          "name": "operator",
          "type": "address"
        },
        {
          "indexed": false,
          "internalType": "bool",
          "name": "approved",
          "type": "bool"
        }
      ],
      "name": "ApprovalForAll",
      "type": "event"
    },
    {
      "anonymous": false,
      "inputs": [
        {
          "indexed": true,
          "internalType": "address",
          "name": "previousOwner",
          "type": "address"
        },
        {
          "indexed": true,
          "internalType": "address",
          "name": "newOwner",
          "type": "address"
        }
      ],
      "name": "OwnershipTransferred",
      "type": "event"
    },
    {
      "anonymous": false,
      "inputs": [
        {
          "indexed": false,
          "internalType": "address",
          "name": "",
          "type": "address"
        },
        {
          "indexed": false,
          "internalType": "uint256",
          "name": "",
          "type": "uint256"
        }
      ],
      "name": "Received",
      "type": "event"
    },
    {
      "anonymous": false,
      "inputs": [
        {
          "indexed": true,
          "internalType": "address",
          "name": "from",
          "type": "address"
        },
        {
          "indexed": true,
          "internalType": "address",
          "name": "to",
          "type": "address"
        },
        {
          "indexed": true,
          "internalType": "uint256",
          "name": "tokenId",
          "type": "uint256"
        }
      ],
      "name": "Transfer",
      "type": "event"
    },
    {
      "stateMutability": "payable",
      "type": "fallback"
    },
    {
      "inputs": [
        {
          "internalType": "address",
          "name": "to",
          "type": "address"
        },
        {
          "internalType": "uint256",
          "name": "tokenId",
          "type": "uint256"
        }
      ],
      "name": "approve",
      "outputs": [],
      "stateMutability": "nonpayable",
      "type": "function"
    },
    {
      "inputs": [
        {
          "internalType": "address",
          "name": "owner",
          "type": "address"
        }
      ],
      "name": "balanceOf",
      "outputs": [
        {
          "internalType": "uint256",
          "name": "",
          "type": "uint256"
        }
      ],
      "stateMutability": "view",
      "type": "function"
    },
    {
      "inputs": [],
      "name": "cCoinAmountOf",
      "outputs": [
        {
          "internalType": "uint256",
          "name": "",
          "type": "uint256"
        }
      ],
      "stateMutability": "view",
      "type": "function"
    },
    {
      "inputs": [],
      "name": "cCoinBalanceOf",
      "outputs": [
        {
          "internalType": "uint256",
          "name": "",
          "type": "uint256"
        }
      ],
      "stateMutability": "view",
      "type": "function"
    },
    {
      "inputs": [],
      "name": "cCoinTotalBlanceOf",
      "outputs": [
        {
          "internalType": "uint256",
          "name": "",
          "type": "uint256"
        }
      ],
      "stateMutability": "view",
      "type": "function"
    },
    {
      "inputs": [],
      "name": "getAddressToBeGivenBonus",
      "outputs": [
        {
          "internalType": "address[3]",
          "name": "",
          "type": "address[3]"
        }
      ],
      "stateMutability": "view",
      "type": "function"
    },
    {
      "inputs": [
        {
          "internalType": "address",
          "name": "user",
          "type": "address"
        }
      ],
      "name": "getAllTokenIdsOf",
      "outputs": [
        {
          "internalType": "uint256[]",
          "name": "",
          "type": "uint256[]"
        }
      ],
      "stateMutability": "view",
      "type": "function"
    },
    {
      "inputs": [
        {
          "internalType": "uint256",
          "name": "tokenId",
          "type": "uint256"
        }
      ],
      "name": "getApproved",
      "outputs": [
        {
          "internalType": "address",
          "name": "",
          "type": "address"
        }
      ],
      "stateMutability": "view",
      "type": "function"
    },
    {
      "inputs": [],
      "name": "getBalanceOfContract",
      "outputs": [
        {
          "internalType": "uint256",
          "name": "",
          "type": "uint256"
        }
      ],
      "stateMutability": "view",
      "type": "function"
    },
    {
      "inputs": [],
      "name": "getCCoin",
      "outputs": [
        {
          "internalType": "contract CCoin",
          "name": "",
          "type": "address"
        }
      ],
      "stateMutability": "view",
      "type": "function"
    },
    {
      "inputs": [],
      "name": "getCCoinContractAddress",
      "outputs": [
        {
          "internalType": "address",
          "name": "",
          "type": "address"
        }
      ],
      "stateMutability": "view",
      "type": "function"
    },
    {
      "inputs": [],
      "name": "getContractOwner",
      "outputs": [
        {
          "internalType": "address",
          "name": "",
          "type": "address"
        }
      ],
      "stateMutability": "view",
      "type": "function"
    },
    {
      "inputs": [
        {
          "internalType": "uint256",
          "name": "tokenId",
          "type": "uint256"
        }
      ],
      "name": "getMD5Of",
      "outputs": [
        {
          "internalType": "string",
          "name": "",
          "type": "string"
        }
      ],
      "stateMutability": "view",
      "type": "function"
    },
    {
      "inputs": [],
      "name": "getNFTs",
      "outputs": [
        {
          "internalType": "uint256[]",
          "name": "",
          "type": "uint256[]"
        }
      ],
      "stateMutability": "view",
      "type": "function"
    },
    {
      "inputs": [
        {
          "internalType": "address",
          "name": "user",
          "type": "address"
        }
      ],
      "name": "getNumSales",
      "outputs": [
        {
          "internalType": "uint256",
          "name": "",
          "type": "uint256"
        }
      ],
      "stateMutability": "view",
      "type": "function"
    },
    {
      "inputs": [
        {
          "internalType": "string",
          "name": "tokenURI",
          "type": "string"
        }
      ],
      "name": "getOwnerByURI",
      "outputs": [
        {
          "internalType": "address",
          "name": "",
          "type": "address"
        }
      ],
      "stateMutability": "view",
      "type": "function"
    },
    {
      "inputs": [
        {
          "internalType": "string",
          "name": "tokenURI",
          "type": "string"
        }
      ],
      "name": "getTokenIdByURI",
      "outputs": [
        {
          "internalType": "uint256",
          "name": "",
          "type": "uint256"
        }
      ],
      "stateMutability": "view",
      "type": "function"
    },
    {
      "inputs": [
        {
          "internalType": "address",
          "name": "owner",
          "type": "address"
        },
        {
          "internalType": "address",
          "name": "operator",
          "type": "address"
        }
      ],
      "name": "isApprovedForAll",
      "outputs": [
        {
          "internalType": "bool",
          "name": "",
          "type": "bool"
        }
      ],
      "stateMutability": "view",
      "type": "function"
    },
    {
      "inputs": [
        {
          "internalType": "uint256",
          "name": "tokenId",
          "type": "uint256"
        }
      ],
      "name": "isForSale",
      "outputs": [
        {
          "internalType": "bool",
          "name": "",
          "type": "bool"
        }
      ],
      "stateMutability": "view",
      "type": "function"
    },
    {
      "inputs": [
        {
          "internalType": "address",
          "name": "recipient",
          "type": "address"
        },
        {
          "internalType": "string",
          "name": "tokenURI",
          "type": "string"
        }
      ],
      "name": "mintNFT",
      "outputs": [
        {
          "internalType": "uint256",
          "name": "",
          "type": "uint256"
        }
      ],
      "stateMutability": "nonpayable",
      "type": "function"
    },
    {
      "inputs": [
        {
          "internalType": "string",
          "name": "tokenURI",
          "type": "string"
        }
      ],
      "name": "mintNFTAnyone",
      "outputs": [
        {
          "internalType": "uint256",
          "name": "",
          "type": "uint256"
        }
      ],
      "stateMutability": "nonpayable",
      "type": "function"
    },
    {
      "inputs": [
        {
          "internalType": "string",
          "name": "tokenURI",
          "type": "string"
        },
        {
          "internalType": "string",
          "name": "MD5",
          "type": "string"
        }
      ],
      "name": "mintNFTWithMD5",
      "outputs": [
        {
          "internalType": "uint256",
          "name": "",
          "type": "uint256"
        }
      ],
      "stateMutability": "nonpayable",
      "type": "function"
    },
    {
      "inputs": [],
      "name": "name",
      "outputs": [
        {
          "internalType": "string",
          "name": "",
          "type": "string"
        }
      ],
      "stateMutability": "view",
      "type": "function"
    },
    {
      "inputs": [],
      "name": "owner",
      "outputs": [
        {
          "internalType": "address",
          "name": "",
          "type": "address"
        }
      ],
      "stateMutability": "view",
      "type": "function"
    },
    {
      "inputs": [
        {
          "internalType": "uint256",
          "name": "tokenId",
          "type": "uint256"
        }
      ],
      "name": "ownerOf",
      "outputs": [
        {
          "internalType": "address",
          "name": "",
          "type": "address"
        }
      ],
      "stateMutability": "view",
      "type": "function"
    },
    {
      "inputs": [
        {
          "internalType": "uint256",
          "name": "tokenId",
          "type": "uint256"
        }
      ],
      "name": "priceOf",
      "outputs": [
        {
          "internalType": "uint256",
          "name": "",
          "type": "uint256"
        }
      ],
      "stateMutability": "view",
      "type": "function"
    },
    {
      "inputs": [
        {
          "internalType": "uint256",
          "name": "tokenId",
          "type": "uint256"
        }
      ],
      "name": "purchase",
      "outputs": [
        {
          "internalType": "bool",
          "name": "",
          "type": "bool"
        }
      ],
      "stateMutability": "payable",
      "type": "function"
    },
    {
      "inputs": [],
      "name": "renounceOwnership",
      "outputs": [],
      "stateMutability": "nonpayable",
      "type": "function"
    },
    {
      "inputs": [
        {
          "internalType": "address",
          "name": "from",
          "type": "address"
        },
        {
          "internalType": "address",
          "name": "to",
          "type": "address"
        },
        {
          "internalType": "uint256",
          "name": "tokenId",
          "type": "uint256"
        }
      ],
      "name": "safeTransferFrom",
      "outputs": [],
      "stateMutability": "nonpayable",
      "type": "function"
    },
    {
      "inputs": [
        {
          "internalType": "address",
          "name": "from",
          "type": "address"
        },
        {
          "internalType": "address",
          "name": "to",
          "type": "address"
        },
        {
          "internalType": "uint256",
          "name": "tokenId",
          "type": "uint256"
        },
        {
          "internalType": "bytes",
          "name": "data",
          "type": "bytes"
        }
      ],
      "name": "safeTransferFrom",
      "outputs": [],
      "stateMutability": "nonpayable",
      "type": "function"
    },
    {
      "inputs": [
        {
          "internalType": "address",
          "name": "operator",
          "type": "address"
        },
        {
          "internalType": "bool",
          "name": "approved",
          "type": "bool"
        }
      ],
      "name": "setApprovalForAll",
      "outputs": [],
      "stateMutability": "nonpayable",
      "type": "function"
    },
    {
      "inputs": [
        {
          "internalType": "uint256",
          "name": "tokenId",
          "type": "uint256"
        },
        {
          "internalType": "bool",
          "name": "forSale",
          "type": "bool"
        }
      ],
      "name": "setForSale",
      "outputs": [],
      "stateMutability": "nonpayable",
      "type": "function"
    },
    {
      "inputs": [
        {
          "internalType": "uint256",
          "name": "tokenId",
          "type": "uint256"
        },
        {
          "internalType": "uint256",
          "name": "price",
          "type": "uint256"
        }
      ],
      "name": "setPrice",
      "outputs": [],
      "stateMutability": "nonpayable",
      "type": "function"
    },
    {
      "inputs": [
        {
          "internalType": "bytes4",
          "name": "interfaceId",
          "type": "bytes4"
        }
      ],
      "name": "supportsInterface",
      "outputs": [
        {
          "internalType": "bool",
          "name": "",
          "type": "bool"
        }
      ],
      "stateMutability": "view",
      "type": "function"
    },
    {
      "inputs": [],
      "name": "symbol",
      "outputs": [
        {
          "internalType": "string",
          "name": "",
          "type": "string"
        }
      ],
      "stateMutability": "view",
      "type": "function"
    },
    {
      "inputs": [
        {
          "internalType": "uint256",
          "name": "tokenId",
          "type": "uint256"
        }
      ],
      "name": "tokenURI",
      "outputs": [
        {
          "internalType": "string",
          "name": "",
          "type": "string"
        }
      ],
      "stateMutability": "view",
      "type": "function"
    },
    {
      "inputs": [
        {
          "internalType": "address",
          "name": "recipient",
          "type": "address"
        },
        {
          "internalType": "uint256",
          "name": "tokenId",
          "type": "uint256"
        }
      ],
      "name": "transfer",
      "outputs": [
        {
          "internalType": "bool",
          "name": "",
          "type": "bool"
        }
      ],
      "stateMutability": "payable",
      "type": "function"
    },
    {
      "inputs": [
        {
          "internalType": "address",
          "name": "from",
          "type": "address"
        },
        {
          "internalType": "address",
          "name": "to",
          "type": "address"
        },
        {
          "internalType": "uint256",
          "name": "tokenId",
          "type": "uint256"
        }
      ],
      "name": "transferFrom",
      "outputs": [],
      "stateMutability": "nonpayable",
      "type": "function"
    },
    {
      "inputs": [
        {
          "internalType": "address",
          "name": "newOwner",
          "type": "address"
        }
      ],
      "name": "transferOwnership",
      "outputs": [],
      "stateMutability": "nonpayable",
      "type": "function"
    },
    {
      "stateMutability": "payable",
      "type": "receive"
    }
  ],
  "bytecode": "0x60806040523480156200001157600080fd5b506040518060400160405280600881526020017f41436f696e4e46540000000000000000000000000000000000000000000000008152506040518060400160405280600581526020017f41436f696e00000000000000000000000000000000000000000000000000000081525081600090805190602001906200009692919062000260565b508060019080519060200190620000af92919062000260565b505050620000d2620000c66200019260201b60201c565b6200019a60201b60201c565b33600860006101000a81548173ffffffffffffffffffffffffffffffffffffffff021916908373ffffffffffffffffffffffffffffffffffffffff160217905550306040516200012290620002f1565b6200012e919062000363565b604051809103906000f0801580156200014b573d6000803e3d6000fd5b50601460006101000a81548173ffffffffffffffffffffffffffffffffffffffff021916908373ffffffffffffffffffffffffffffffffffffffff160217905550620003e5565b600033905090565b6000600760009054906101000a900473ffffffffffffffffffffffffffffffffffffffff16905081600760006101000a81548173ffffffffffffffffffffffffffffffffffffffff021916908373ffffffffffffffffffffffffffffffffffffffff1602179055508173ffffffffffffffffffffffffffffffffffffffff168173ffffffffffffffffffffffffffffffffffffffff167f8be0079c531659141344cd1fd0a4f28419497f9722a3daafe3b4186f6b6457e060405160405180910390a35050565b8280546200026e90620003af565b90600052602060002090601f016020900481019282620002925760008555620002de565b82601f10620002ad57805160ff1916838001178555620002de565b82800160010185558215620002de579182015b82811115620002dd578251825591602001919060010190620002c0565b5b509050620002ed9190620002ff565b5090565b6124fb806200565483390190565b5b808211156200031a57600081600090555060010162000300565b5090565b600073ffffffffffffffffffffffffffffffffffffffff82169050919050565b60006200034b826200031e565b9050919050565b6200035d816200033e565b82525050565b60006020820190506200037a600083018462000352565b92915050565b7f4e487b7100000000000000000000000000000000000000000000000000000000600052602260045260246000fd5b60006002820490506001821680620003c857607f821691505b60208210811415620003df57620003de62000380565b5b50919050565b61525f80620003f56000396000f3fe6080604052600436106102345760003560e01c80637a8eb1611161012e578063c87b56dd116100ab578063eacabe141161006f578063eacabe1414610998578063efef39a1146109d5578063f0a6c16b14610a05578063f2fde38b14610a2e578063f7d9757714610a57576102b2565b8063c87b56dd1461088b578063ca019879146108c8578063d418800a14610905578063d8b9149414610930578063e985e9c51461095b576102b2565b8063a22cb465116100f2578063a22cb465146107a1578063a515bf7c146107ca578063a9059cbb146107f5578063b88d4fde14610825578063b9186d7d1461084e576102b2565b80637a8eb161146106945780638546d002146106d15780638da5cb5b1461070e57806395d89b4114610739578063982efcfe14610764576102b2565b806323b872dd116101bc5780636352211e116101805780636352211e1461059b578063666148a5146105d857806367d5a9791461060357806370a0823114610640578063715018a61461067d576102b2565b806323b872dd146104c8578063261e5dcd146104f157806333971b8c1461051c57806342842e0e14610547578063442890d514610570576102b2565b8063118f970811610203578063118f9708146103bb5780631f7c58ce146103f8578063227212f214610435578063229688851461046057806323742f991461048b576102b2565b806301ffc9a7146102ed57806306fdde031461032a578063081812fc14610355578063095ea7b314610392576102b2565b366102b2576102776040518060400160405280600881526020017f5265636569766564000000000000000000000000000000000000000000000000815250610a80565b7f88a5966d370b9919b20f3e2c13ff65706f196a4e32cc2c12bf57088f8852587433346040516102a89291906138bf565b60405180910390a1005b7f88a5966d370b9919b20f3e2c13ff65706f196a4e32cc2c12bf57088f8852587433346040516102e39291906138bf565b60405180910390a1005b3480156102f957600080fd5b50610314600480360381019061030f9190613954565b610b19565b604051610321919061399c565b60405180910390f35b34801561033657600080fd5b5061033f610bfb565b60405161034c9190613a50565b60405180910390f35b34801561036157600080fd5b5061037c60048036038101906103779190613a9e565b610c8d565b6040516103899190613acb565b60405180910390f35b34801561039e57600080fd5b506103b960048036038101906103b49190613b12565b610cd3565b005b3480156103c757600080fd5b506103e260048036038101906103dd9190613c87565b610deb565b6040516103ef9190613cd0565b60405180910390f35b34801561040457600080fd5b5061041f600480360381019061041a9190613a9e565b610e13565b60405161042c9190613a50565b60405180910390f35b34801561044157600080fd5b5061044a610eb8565b6040516104579190613da9565b60405180910390f35b34801561046c57600080fd5b50610475610f4d565b6040516104829190613cd0565b60405180910390f35b34801561049757600080fd5b506104b260048036038101906104ad9190613c87565b610f55565b6040516104bf9190613acb565b60405180910390f35b3480156104d457600080fd5b506104ef60048036038101906104ea9190613dcb565b610f85565b005b3480156104fd57600080fd5b50610506610fe5565b6040516105139190613cd0565b60405180910390f35b34801561052857600080fd5b5061053161109e565b60405161053e9190613acb565b60405180910390f35b34801561055357600080fd5b5061056e60048036038101906105699190613dcb565b6110c8565b005b34801561057c57600080fd5b506105856110e8565b6040516105929190613acb565b60405180910390f35b3480156105a757600080fd5b506105c260048036038101906105bd9190613a9e565b611112565b6040516105cf9190613acb565b60405180910390f35b3480156105e457600080fd5b506105ed6111c4565b6040516105fa9190613ec9565b60405180910390f35b34801561060f57600080fd5b5061062a60048036038101906106259190613ee4565b611245565b6040516106379190613cd0565b60405180910390f35b34801561064c57600080fd5b5061066760048036038101906106629190613f5c565b611285565b6040516106749190613cd0565b60405180910390f35b34801561068957600080fd5b5061069261133d565b005b3480156106a057600080fd5b506106bb60048036038101906106b69190613c87565b611351565b6040516106c89190613cd0565b60405180910390f35b3480156106dd57600080fd5b506106f860048036038101906106f39190613a9e565b611475565b604051610705919061399c565b60405180910390f35b34801561071a57600080fd5b5061072361149f565b6040516107309190613acb565b60405180910390f35b34801561074557600080fd5b5061074e6114c9565b60405161075b9190613a50565b60405180910390f35b34801561077057600080fd5b5061078b60048036038101906107869190613f5c565b61155b565b6040516107989190613cd0565b60405180910390f35b3480156107ad57600080fd5b506107c860048036038101906107c39190613fb5565b6115a4565b005b3480156107d657600080fd5b506107df6115ba565b6040516107ec9190614054565b60405180910390f35b61080f600480360381019061080a9190613b12565b6115e4565b60405161081c919061399c565b60405180910390f35b34801561083157600080fd5b5061084c60048036038101906108479190614110565b61172e565b005b34801561085a57600080fd5b5061087560048036038101906108709190613a9e565b611790565b6040516108829190613cd0565b60405180910390f35b34801561089757600080fd5b506108b260048036038101906108ad9190613a9e565b6117ad565b6040516108bf9190613a50565b60405180910390f35b3480156108d457600080fd5b506108ef60048036038101906108ea9190613f5c565b6118c0565b6040516108fc9190613da9565b60405180910390f35b34801561091157600080fd5b5061091a611957565b6040516109279190613cd0565b60405180910390f35b34801561093c57600080fd5b50610945611a10565b6040516109529190613cd0565b60405180910390f35b34801561096757600080fd5b50610982600480360381019061097d9190614193565b611ac9565b60405161098f919061399c565b60405180910390f35b3480156109a457600080fd5b506109bf60048036038101906109ba91906141d3565b611b5d565b6040516109cc9190613cd0565b60405180910390f35b6109ef60048036038101906109ea9190613a9e565b611c8a565b6040516109fc919061399c565b60405180910390f35b348015610a1157600080fd5b50610a2c6004803603810190610a27919061422f565b611f3a565b005b348015610a3a57600080fd5b50610a556004803603810190610a509190613f5c565b611fef565b005b348015610a6357600080fd5b50610a7e6004803603810190610a79919061426f565b612073565b005b610b1681604051602401610a949190613a50565b6040516020818303038152906040527f41304fac000000000000000000000000000000000000000000000000000000007bffffffffffffffffffffffffffffffffffffffffffffffffffffffff19166020820180517bffffffffffffffffffffffffffffffffffffffffffffffffffffffff8381831617835250505050612128565b50565b60007f80ac58cd000000000000000000000000000000000000000000000000000000007bffffffffffffffffffffffffffffffffffffffffffffffffffffffff1916827bffffffffffffffffffffffffffffffffffffffffffffffffffffffff19161480610be457507f5b5e139f000000000000000000000000000000000000000000000000000000007bffffffffffffffffffffffffffffffffffffffffffffffffffffffff1916827bffffffffffffffffffffffffffffffffffffffffffffffffffffffff1916145b80610bf45750610bf382612151565b5b9050919050565b606060008054610c0a906142de565b80601f0160208091040260200160405190810160405280929190818152602001828054610c36906142de565b8015610c835780601f10610c5857610100808354040283529160200191610c83565b820191906000526020600020905b815481529060010190602001808311610c6657829003601f168201915b5050505050905090565b6000610c98826121bb565b6004600083815260200190815260200160002060009054906101000a900473ffffffffffffffffffffffffffffffffffffffff169050919050565b6000610cde82611112565b90508073ffffffffffffffffffffffffffffffffffffffff168373ffffffffffffffffffffffffffffffffffffffff161415610d4f576040517f08c379a0000000000000000000000000000000000000000000000000000000008152600401610d4690614382565b60405180910390fd5b8073ffffffffffffffffffffffffffffffffffffffff16610d6e612206565b73ffffffffffffffffffffffffffffffffffffffff161480610d9d5750610d9c81610d97612206565b611ac9565b5b610ddc576040517f08c379a0000000000000000000000000000000000000000000000000000000008152600401610dd390614414565b60405180910390fd5b610de6838361220e565b505050565b6000600a82604051610dfd9190614470565b9081526020016040518091039020549050919050565b6060600e60008381526020019081526020016000208054610e33906142de565b80601f0160208091040260200160405190810160405280929190818152602001828054610e5f906142de565b8015610eac5780601f10610e8157610100808354040283529160200191610eac565b820191906000526020600020905b815481529060010190602001808311610e8f57829003601f168201915b50505050509050919050565b6060600d60003373ffffffffffffffffffffffffffffffffffffffff1673ffffffffffffffffffffffffffffffffffffffff168152602001908152602001600020805480602002602001604051908101604052809291908181526020018280548015610f4357602002820191906000526020600020905b815481526020019060010190808311610f2f575b5050505050905090565b600047905090565b6000610f7e600a83604051610f6a9190614470565b908152602001604051809103902054611112565b9050919050565b610f96610f90612206565b826122c7565b610fd5576040517f08c379a0000000000000000000000000000000000000000000000000000000008152600401610fcc906144f9565b60405180910390fd5b610fe083838361235c565b505050565b6000601460009054906101000a900473ffffffffffffffffffffffffffffffffffffffff1673ffffffffffffffffffffffffffffffffffffffff166301608f5f61102d612206565b6040518263ffffffff1660e01b81526004016110499190613acb565b60206040518083038186803b15801561106157600080fd5b505afa158015611075573d6000803e3d6000fd5b505050506040513d601f19601f82011682018060405250810190611099919061452e565b905090565b6000601460009054906101000a900473ffffffffffffffffffffffffffffffffffffffff16905090565b6110e38383836040518060200160405280600081525061172e565b505050565b6000600860009054906101000a900473ffffffffffffffffffffffffffffffffffffffff16905090565b6000806002600084815260200190815260200160002060009054906101000a900473ffffffffffffffffffffffffffffffffffffffff169050600073ffffffffffffffffffffffffffffffffffffffff168173ffffffffffffffffffffffffffffffffffffffff1614156111bb576040517f08c379a00000000000000000000000000000000000000000000000000000000081526004016111b2906145a7565b60405180910390fd5b80915050919050565b6111cc61378b565b601060038060200260405190810160405280929190826003801561123b576020028201915b8160009054906101000a900473ffffffffffffffffffffffffffffffffffffffff1673ffffffffffffffffffffffffffffffffffffffff16815260200190600101908083116111f1575b5050505050905090565b60008061125184611351565b905082600e6000838152602001908152602001600020908051906020019061127a9291906137ad565b508091505092915050565b60008073ffffffffffffffffffffffffffffffffffffffff168273ffffffffffffffffffffffffffffffffffffffff1614156112f6576040517f08c379a00000000000000000000000000000000000000000000000000000000081526004016112ed90614639565b60405180910390fd5b600360008373ffffffffffffffffffffffffffffffffffffffff1673ffffffffffffffffffffffffffffffffffffffff168152602001908152602001600020549050919050565b6113456125c3565b61134f6000612641565b565b600061135d6009612707565b6000611369600961271d565b9050611375338261272b565b61137f8184612905565b80600a846040516113909190614470565b908152602001604051809103902081905550600d60003373ffffffffffffffffffffffffffffffffffffffff1673ffffffffffffffffffffffffffffffffffffffff1681526020019081526020016000208190806001815401808255809150506001900390600052602060002001600090919091909150556000600b600083815260200190815260200160002060006101000a81548160ff0219169083151502179055507fffffffffffffffffffffffffffffffffffffffffffffffffffffffffffffffff600c60008381526020019081526020016000208190555080915050919050565b6000600b600083815260200190815260200160002060009054906101000a900460ff169050919050565b6000600760009054906101000a900473ffffffffffffffffffffffffffffffffffffffff16905090565b6060600180546114d8906142de565b80601f0160208091040260200160405190810160405280929190818152602001828054611504906142de565b80156115515780601f1061152657610100808354040283529160200191611551565b820191906000526020600020905b81548152906001019060200180831161153457829003601f168201915b5050505050905090565b6000601360008373ffffffffffffffffffffffffffffffffffffffff1673ffffffffffffffffffffffffffffffffffffffff168152602001908152602001600020549050919050565b6115b66115af612206565b8383612979565b5050565b6000601460009054906101000a900473ffffffffffffffffffffffffffffffffffffffff16905090565b60006115ef826121bb565b6115f882611112565b73ffffffffffffffffffffffffffffffffffffffff16611616612206565b73ffffffffffffffffffffffffffffffffffffffff16141561166d576040517f08c379a0000000000000000000000000000000000000000000000000000000008152600401611664906146cb565b60405180910390fd5b60006103e8600c6000858152602001908152602001600020546116909190614749565b905080600c6000858152602001908152602001600020546116b1919061477a565b3410156116f3576040517f08c379a00000000000000000000000000000000000000000000000000000000081526004016116ea90614842565b60405180910390fd5b6117056116fe612206565b8585612ae6565b5061172584600c6000868152602001908152602001600020548334612b3d565b91505092915050565b61173f611739612206565b836122c7565b61177e576040517f08c379a0000000000000000000000000000000000000000000000000000000008152600401611775906144f9565b60405180910390fd5b61178a84848484612d2a565b50505050565b6000600c6000838152602001908152602001600020549050919050565b60606117b8826121bb565b60006006600084815260200190815260200160002080546117d8906142de565b80601f0160208091040260200160405190810160405280929190818152602001828054611804906142de565b80156118515780601f1061182657610100808354040283529160200191611851565b820191906000526020600020905b81548152906001019060200180831161183457829003601f168201915b505050505090506000611862612d86565b90506000815114156118785781925050506118bb565b6000825111156118ad578082604051602001611895929190614862565b604051602081830303815290604052925050506118bb565b6118b684612d9d565b925050505b919050565b6060600d60008373ffffffffffffffffffffffffffffffffffffffff1673ffffffffffffffffffffffffffffffffffffffff16815260200190815260200160002080548060200260200160405190810160405280929190818152602001828054801561194b57602002820191906000526020600020905b815481526020019060010190808311611937575b50505050509050919050565b6000601460009054906101000a900473ffffffffffffffffffffffffffffffffffffffff1673ffffffffffffffffffffffffffffffffffffffff166370a0823161199f612206565b6040518263ffffffff1660e01b81526004016119bb9190613acb565b60206040518083038186803b1580156119d357600080fd5b505afa1580156119e7573d6000803e3d6000fd5b505050506040513d601f19601f82011682018060405250810190611a0b919061452e565b905090565b6000601460009054906101000a900473ffffffffffffffffffffffffffffffffffffffff1673ffffffffffffffffffffffffffffffffffffffff16636eacd398611a58612206565b6040518263ffffffff1660e01b8152600401611a749190613acb565b60206040518083038186803b158015611a8c57600080fd5b505afa158015611aa0573d6000803e3d6000fd5b505050506040513d601f19601f82011682018060405250810190611ac4919061452e565b905090565b6000600560008473ffffffffffffffffffffffffffffffffffffffff1673ffffffffffffffffffffffffffffffffffffffff16815260200190815260200160002060008373ffffffffffffffffffffffffffffffffffffffff1673ffffffffffffffffffffffffffffffffffffffff16815260200190815260200160002060009054906101000a900460ff16905092915050565b6000611b676125c3565b611b716009612707565b6000611b7d600961271d565b9050611b89848261272b565b611b938184612905565b80600a84604051611ba49190614470565b908152602001604051809103902081905550600d60008573ffffffffffffffffffffffffffffffffffffffff1673ffffffffffffffffffffffffffffffffffffffff1681526020019081526020016000208190806001815401808255809150506001900390600052602060002001600090919091909150556000600b600083815260200190815260200160002060006101000a81548160ff0219169083151502179055507fffffffffffffffffffffffffffffffffffffffffffffffffffffffffffffffff600c6000838152602001908152602001600020819055508091505092915050565b6000611c95826121bb565b600b600083815260200190815260200160002060009054906101000a900460ff16611cf5576040517f08c379a0000000000000000000000000000000000000000000000000000000008152600401611cec906148d2565b60405180910390fd5b6000611cff612206565b9050611d0a83611112565b73ffffffffffffffffffffffffffffffffffffffff168173ffffffffffffffffffffffffffffffffffffffff161415611d78576040517f08c379a0000000000000000000000000000000000000000000000000000000008152600401611d6f90614964565b60405180910390fd5b60006103e8600c600086815260200190815260200160002054611d9b9190614749565b905080600c600086815260200190815260200160002054611dbc919061477a565b341015611dfe576040517f08c379a0000000000000000000000000000000000000000000000000000000008152600401611df590614842565b60405180910390fd5b611e0784611112565b73ffffffffffffffffffffffffffffffffffffffff166108fc600c6000878152602001908152602001600020549081150290604051600060405180830381858888f19350505050158015611e5f573d6000803e3d6000fd5b50611e73611e6c85611112565b8386612ae6565b50601460009054906101000a900473ffffffffffffffffffffffffffffffffffffffff1673ffffffffffffffffffffffffffffffffffffffff16638e8dc6bc836040518263ffffffff1660e01b8152600401611ecf9190613acb565b600060405180830381600087803b158015611ee957600080fd5b505af1158015611efd573d6000803e3d6000fd5b50505050611f12611f0d85611112565b612e05565b611f3182600c6000878152602001908152602001600020548334612b3d565b92505050919050565b611f43826121bb565b611f4c82611112565b73ffffffffffffffffffffffffffffffffffffffff16611f6a612206565b73ffffffffffffffffffffffffffffffffffffffff1614611fc0576040517f08c379a0000000000000000000000000000000000000000000000000000000008152600401611fb7906149f6565b60405180910390fd5b80600b600084815260200190815260200160002060006101000a81548160ff0219169083151502179055505050565b611ff76125c3565b600073ffffffffffffffffffffffffffffffffffffffff168173ffffffffffffffffffffffffffffffffffffffff161415612067576040517f08c379a000000000000000000000000000000000000000000000000000000000815260040161205e90614a88565b60405180910390fd5b61207081612641565b50565b61207c826121bb565b61208582611112565b73ffffffffffffffffffffffffffffffffffffffff166120a3612206565b73ffffffffffffffffffffffffffffffffffffffff16146120f9576040517f08c379a00000000000000000000000000000000000000000000000000000000081526004016120f090614b1a565b60405180910390fd5b670de0b6b3a76400008161210d9190614b3a565b600c6000848152602001908152602001600020819055505050565b60008151905060006a636f6e736f6c652e6c6f679050602083016000808483855afa5050505050565b60007f01ffc9a7000000000000000000000000000000000000000000000000000000007bffffffffffffffffffffffffffffffffffffffffffffffffffffffff1916827bffffffffffffffffffffffffffffffffffffffffffffffffffffffff1916149050919050565b6121c481613147565b612203576040517f08c379a00000000000000000000000000000000000000000000000000000000081526004016121fa906145a7565b60405180910390fd5b50565b600033905090565b816004600083815260200190815260200160002060006101000a81548173ffffffffffffffffffffffffffffffffffffffff021916908373ffffffffffffffffffffffffffffffffffffffff160217905550808273ffffffffffffffffffffffffffffffffffffffff1661228183611112565b73ffffffffffffffffffffffffffffffffffffffff167f8c5be1e5ebec7d5bd14f71427d1e84f3dd0314c0f7b2291e5b200ac8c7c3b92560405160405180910390a45050565b6000806122d383611112565b90508073ffffffffffffffffffffffffffffffffffffffff168473ffffffffffffffffffffffffffffffffffffffff16148061231557506123148185611ac9565b5b8061235357508373ffffffffffffffffffffffffffffffffffffffff1661233b84610c8d565b73ffffffffffffffffffffffffffffffffffffffff16145b91505092915050565b8273ffffffffffffffffffffffffffffffffffffffff1661237c82611112565b73ffffffffffffffffffffffffffffffffffffffff16146123d2576040517f08c379a00000000000000000000000000000000000000000000000000000000081526004016123c990614c06565b60405180910390fd5b600073ffffffffffffffffffffffffffffffffffffffff168273ffffffffffffffffffffffffffffffffffffffff161415612442576040517f08c379a000000000000000000000000000000000000000000000000000000000815260040161243990614c98565b60405180910390fd5b61244d8383836131b3565b61245860008261220e565b6001600360008573ffffffffffffffffffffffffffffffffffffffff1673ffffffffffffffffffffffffffffffffffffffff16815260200190815260200160002060008282546124a89190614cb8565b925050819055506001600360008473ffffffffffffffffffffffffffffffffffffffff1673ffffffffffffffffffffffffffffffffffffffff16815260200190815260200160002060008282546124ff919061477a565b92505081905550816002600083815260200190815260200160002060006101000a81548173ffffffffffffffffffffffffffffffffffffffff021916908373ffffffffffffffffffffffffffffffffffffffff160217905550808273ffffffffffffffffffffffffffffffffffffffff168473ffffffffffffffffffffffffffffffffffffffff167fddf252ad1be2c89b69c2b068fc378daa952ba7f163c4a11628f55a4df523b3ef60405160405180910390a46125be8383836131b8565b505050565b6125cb612206565b73ffffffffffffffffffffffffffffffffffffffff166125e961149f565b73ffffffffffffffffffffffffffffffffffffffff161461263f576040517f08c379a000000000000000000000000000000000000000000000000000000000815260040161263690614d38565b60405180910390fd5b565b6000600760009054906101000a900473ffffffffffffffffffffffffffffffffffffffff16905081600760006101000a81548173ffffffffffffffffffffffffffffffffffffffff021916908373ffffffffffffffffffffffffffffffffffffffff1602179055508173ffffffffffffffffffffffffffffffffffffffff168173ffffffffffffffffffffffffffffffffffffffff167f8be0079c531659141344cd1fd0a4f28419497f9722a3daafe3b4186f6b6457e060405160405180910390a35050565b6001816000016000828254019250508190555050565b600081600001549050919050565b600073ffffffffffffffffffffffffffffffffffffffff168273ffffffffffffffffffffffffffffffffffffffff16141561279b576040517f08c379a000000000000000000000000000000000000000000000000000000000815260040161279290614da4565b60405180910390fd5b6127a481613147565b156127e4576040517f08c379a00000000000000000000000000000000000000000000000000000000081526004016127db90614e10565b60405180910390fd5b6127f0600083836131b3565b6001600360008473ffffffffffffffffffffffffffffffffffffffff1673ffffffffffffffffffffffffffffffffffffffff1681526020019081526020016000206000828254612840919061477a565b92505081905550816002600083815260200190815260200160002060006101000a81548173ffffffffffffffffffffffffffffffffffffffff021916908373ffffffffffffffffffffffffffffffffffffffff160217905550808273ffffffffffffffffffffffffffffffffffffffff16600073ffffffffffffffffffffffffffffffffffffffff167fddf252ad1be2c89b69c2b068fc378daa952ba7f163c4a11628f55a4df523b3ef60405160405180910390a4612901600083836131b8565b5050565b61290e82613147565b61294d576040517f08c379a000000000000000000000000000000000000000000000000000000000815260040161294490614ea2565b60405180910390fd5b806006600084815260200190815260200160002090805190602001906129749291906137ad565b505050565b8173ffffffffffffffffffffffffffffffffffffffff168373ffffffffffffffffffffffffffffffffffffffff1614156129e8576040517f08c379a00000000000000000000000000000000000000000000000000000000081526004016129df90614f0e565b60405180910390fd5b80600560008573ffffffffffffffffffffffffffffffffffffffff1673ffffffffffffffffffffffffffffffffffffffff16815260200190815260200160002060008473ffffffffffffffffffffffffffffffffffffffff1673ffffffffffffffffffffffffffffffffffffffff16815260200190815260200160002060006101000a81548160ff0219169083151502179055508173ffffffffffffffffffffffffffffffffffffffff168373ffffffffffffffffffffffffffffffffffffffff167f17307eab39ab6107e8899845ad3d59bd9653f200f220920489ca2b5937696c3183604051612ad9919061399c565b60405180910390a3505050565b600080600b600084815260200190815260200160002060006101000a81548160ff021916908315150217905550612b1e84848461235c565b612b2883836131bd565b612b328483613230565b600190509392505050565b6000808483612b4c9190614cb8565b905060006064601460009054906101000a900473ffffffffffffffffffffffffffffffffffffffff1673ffffffffffffffffffffffffffffffffffffffff16636eacd398896040518263ffffffff1660e01b8152600401612bad9190613acb565b60206040518083038186803b158015612bc557600080fd5b505afa158015612bd9573d6000803e3d6000fd5b505050506040513d601f19601f82011682018060405250810190612bfd919061452e565b101590508015612cbd57601460009054906101000a900473ffffffffffffffffffffffffffffffffffffffff1673ffffffffffffffffffffffffffffffffffffffff1663b47279068860646040518363ffffffff1660e01b8152600401612c659291906138bf565b602060405180830381600087803b158015612c7f57600080fd5b505af1158015612c93573d6000803e3d6000fd5b505050506040513d601f19601f82011682018060405250810190612cb79190614f43565b50612ccc565b8482612cc99190614cb8565b91505b6000821115612d1d578673ffffffffffffffffffffffffffffffffffffffff166108fc839081150290604051600060405180830381858888f19350505050158015612d1b573d6000803e3d6000fd5b505b8092505050949350505050565b612d3584848461235c565b612d4184848484613470565b612d80576040517f08c379a0000000000000000000000000000000000000000000000000000000008152600401612d7790614fe2565b60405180910390fd5b50505050565b606060405180602001604052806000815250905090565b6060612da8826121bb565b6000612db2612d86565b90506000815111612dd25760405180602001604052806000815250612dfd565b80612ddc84613607565b604051602001612ded929190614862565b6040516020818303038152906040525b915050919050565b601360008273ffffffffffffffffffffffffffffffffffffffff1673ffffffffffffffffffffffffffffffffffffffff1681526020019081526020016000206000815480929190612e5590615002565b919050555060004790506003600f54612e6e919061477a565b4210158015612e7d5750600081115b1561300f5742600f819055506000600382612e989190614749565b905047600382612ea89190614b3a565b1115612ee9576040517f08c379a0000000000000000000000000000000000000000000000000000000008152600401612ee090615097565b60405180910390fd5b60005b6003811015612ffe5760108160038110612f0957612f086150b7565b5b0160009054906101000a900473ffffffffffffffffffffffffffffffffffffffff1673ffffffffffffffffffffffffffffffffffffffff166108fc839081150290604051600060405180830381858888f19350505050158015612f70573d6000803e3d6000fd5b5060006013600060108460038110612f8b57612f8a6150b7565b5b0160009054906101000a900473ffffffffffffffffffffffffffffffffffffffff1673ffffffffffffffffffffffffffffffffffffffff1673ffffffffffffffffffffffffffffffffffffffff168152602001908152602001600020819055508080612ff690615002565b915050612eec565b506010600061300d9190613833565b505b60005b6003811015613142576013600060108360038110613033576130326150b7565b5b0160009054906101000a900473ffffffffffffffffffffffffffffffffffffffff1673ffffffffffffffffffffffffffffffffffffffff1673ffffffffffffffffffffffffffffffffffffffff16815260200190815260200160002054601360008573ffffffffffffffffffffffffffffffffffffffff1673ffffffffffffffffffffffffffffffffffffffff16815260200190815260200160002054111561312f5782601082600381106130eb576130ea6150b7565b5b0160006101000a81548173ffffffffffffffffffffffffffffffffffffffff021916908373ffffffffffffffffffffffffffffffffffffffff160217905550613142565b808061313a90615002565b915050613012565b505050565b60008073ffffffffffffffffffffffffffffffffffffffff166002600084815260200190815260200160002060009054906101000a900473ffffffffffffffffffffffffffffffffffffffff1673ffffffffffffffffffffffffffffffffffffffff1614159050919050565b505050565b505050565b6131c6816121bb565b600d60008373ffffffffffffffffffffffffffffffffffffffff1673ffffffffffffffffffffffffffffffffffffffff1681526020019081526020016000208190806001815401808255809150506001900390600052602060002001600090919091909150555050565b613239816121bb565b60005b600d60008473ffffffffffffffffffffffffffffffffffffffff1673ffffffffffffffffffffffffffffffffffffffff1681526020019081526020016000208054905081101561346b5781600d60008573ffffffffffffffffffffffffffffffffffffffff1673ffffffffffffffffffffffffffffffffffffffff16815260200190815260200160002082815481106132d8576132d76150b7565b5b9060005260206000200154141561345857600d60008473ffffffffffffffffffffffffffffffffffffffff1673ffffffffffffffffffffffffffffffffffffffff1681526020019081526020016000206001600d60008673ffffffffffffffffffffffffffffffffffffffff1673ffffffffffffffffffffffffffffffffffffffff168152602001908152602001600020805490506133779190614cb8565b81548110613388576133876150b7565b5b9060005260206000200154600d60008573ffffffffffffffffffffffffffffffffffffffff1673ffffffffffffffffffffffffffffffffffffffff16815260200190815260200160002082815481106133e4576133e36150b7565b5b9060005260206000200181905550600d60008473ffffffffffffffffffffffffffffffffffffffff1673ffffffffffffffffffffffffffffffffffffffff168152602001908152602001600020805480613441576134406150e6565b5b600190038181906000526020600020016000905590555b808061346390615002565b91505061323c565b505050565b60006134918473ffffffffffffffffffffffffffffffffffffffff16613768565b156135fa578373ffffffffffffffffffffffffffffffffffffffff1663150b7a026134ba612206565b8786866040518563ffffffff1660e01b81526004016134dc949392919061516a565b602060405180830381600087803b1580156134f657600080fd5b505af192505050801561352757506040513d601f19601f8201168201806040525081019061352491906151cb565b60015b6135aa573d8060008114613557576040519150601f19603f3d011682016040523d82523d6000602084013e61355c565b606091505b506000815114156135a2576040517f08c379a000000000000000000000000000000000000000000000000000000000815260040161359990614fe2565b60405180910390fd5b805181602001fd5b63150b7a0260e01b7bffffffffffffffffffffffffffffffffffffffffffffffffffffffff1916817bffffffffffffffffffffffffffffffffffffffffffffffffffffffff1916149150506135ff565b600190505b949350505050565b6060600082141561364f576040518060400160405280600181526020017f30000000000000000000000000000000000000000000000000000000000000008152509050613763565b600082905060005b6000821461368157808061366a90615002565b915050600a8261367a9190614749565b9150613657565b60008167ffffffffffffffff81111561369d5761369c613b5c565b5b6040519080825280601f01601f1916602001820160405280156136cf5781602001600182028036833780820191505090505b5090505b6000851461375c576001826136e89190614cb8565b9150600a856136f791906151f8565b6030613703919061477a565b60f81b818381518110613719576137186150b7565b5b60200101907effffffffffffffffffffffffffffffffffffffffffffffffffffffffffffff1916908160001a905350600a856137559190614749565b94506136d3565b8093505050505b919050565b6000808273ffffffffffffffffffffffffffffffffffffffff163b119050919050565b6040518060600160405280600390602082028036833780820191505090505090565b8280546137b9906142de565b90600052602060002090601f0160209004810192826137db5760008555613822565b82601f106137f457805160ff1916838001178555613822565b82800160010185558215613822579182015b82811115613821578251825591602001919060010190613806565b5b50905061382f9190613848565b5090565b50600081556001016000815560010160009055565b5b80821115613861576000816000905550600101613849565b5090565b600073ffffffffffffffffffffffffffffffffffffffff82169050919050565b600061389082613865565b9050919050565b6138a081613885565b82525050565b6000819050919050565b6138b9816138a6565b82525050565b60006040820190506138d46000830185613897565b6138e160208301846138b0565b9392505050565b6000604051905090565b600080fd5b600080fd5b60007fffffffff0000000000000000000000000000000000000000000000000000000082169050919050565b613931816138fc565b811461393c57600080fd5b50565b60008135905061394e81613928565b92915050565b60006020828403121561396a576139696138f2565b5b60006139788482850161393f565b91505092915050565b60008115159050919050565b61399681613981565b82525050565b60006020820190506139b1600083018461398d565b92915050565b600081519050919050565b600082825260208201905092915050565b60005b838110156139f15780820151818401526020810190506139d6565b83811115613a00576000848401525b50505050565b6000601f19601f8301169050919050565b6000613a22826139b7565b613a2c81856139c2565b9350613a3c8185602086016139d3565b613a4581613a06565b840191505092915050565b60006020820190508181036000830152613a6a8184613a17565b905092915050565b613a7b816138a6565b8114613a8657600080fd5b50565b600081359050613a9881613a72565b92915050565b600060208284031215613ab457613ab36138f2565b5b6000613ac284828501613a89565b91505092915050565b6000602082019050613ae06000830184613897565b92915050565b613aef81613885565b8114613afa57600080fd5b50565b600081359050613b0c81613ae6565b92915050565b60008060408385031215613b2957613b286138f2565b5b6000613b3785828601613afd565b9250506020613b4885828601613a89565b9150509250929050565b600080fd5b600080fd5b7f4e487b7100000000000000000000000000000000000000000000000000000000600052604160045260246000fd5b613b9482613a06565b810181811067ffffffffffffffff82111715613bb357613bb2613b5c565b5b80604052505050565b6000613bc66138e8565b9050613bd28282613b8b565b919050565b600067ffffffffffffffff821115613bf257613bf1613b5c565b5b613bfb82613a06565b9050602081019050919050565b82818337600083830152505050565b6000613c2a613c2584613bd7565b613bbc565b905082815260208101848484011115613c4657613c45613b57565b5b613c51848285613c08565b509392505050565b600082601f830112613c6e57613c6d613b52565b5b8135613c7e848260208601613c17565b91505092915050565b600060208284031215613c9d57613c9c6138f2565b5b600082013567ffffffffffffffff811115613cbb57613cba6138f7565b5b613cc784828501613c59565b91505092915050565b6000602082019050613ce560008301846138b0565b92915050565b600081519050919050565b600082825260208201905092915050565b6000819050602082019050919050565b613d20816138a6565b82525050565b6000613d328383613d17565b60208301905092915050565b6000602082019050919050565b6000613d5682613ceb565b613d608185613cf6565b9350613d6b83613d07565b8060005b83811015613d9c578151613d838882613d26565b9750613d8e83613d3e565b925050600181019050613d6f565b5085935050505092915050565b60006020820190508181036000830152613dc38184613d4b565b905092915050565b600080600060608486031215613de457613de36138f2565b5b6000613df286828701613afd565b9350506020613e0386828701613afd565b9250506040613e1486828701613a89565b9150509250925092565b600060039050919050565b600081905092915050565b6000819050919050565b613e4781613885565b82525050565b6000613e598383613e3e565b60208301905092915050565b6000602082019050919050565b613e7b81613e1e565b613e858184613e29565b9250613e9082613e34565b8060005b83811015613ec1578151613ea88782613e4d565b9650613eb383613e65565b925050600181019050613e94565b505050505050565b6000606082019050613ede6000830184613e72565b92915050565b60008060408385031215613efb57613efa6138f2565b5b600083013567ffffffffffffffff811115613f1957613f186138f7565b5b613f2585828601613c59565b925050602083013567ffffffffffffffff811115613f4657613f456138f7565b5b613f5285828601613c59565b9150509250929050565b600060208284031215613f7257613f716138f2565b5b6000613f8084828501613afd565b91505092915050565b613f9281613981565b8114613f9d57600080fd5b50565b600081359050613faf81613f89565b92915050565b60008060408385031215613fcc57613fcb6138f2565b5b6000613fda85828601613afd565b9250506020613feb85828601613fa0565b9150509250929050565b6000819050919050565b600061401a61401561401084613865565b613ff5565b613865565b9050919050565b600061402c82613fff565b9050919050565b600061403e82614021565b9050919050565b61404e81614033565b82525050565b60006020820190506140696000830184614045565b92915050565b600067ffffffffffffffff82111561408a57614089613b5c565b5b61409382613a06565b9050602081019050919050565b60006140b36140ae8461406f565b613bbc565b9050828152602081018484840111156140cf576140ce613b57565b5b6140da848285613c08565b509392505050565b600082601f8301126140f7576140f6613b52565b5b81356141078482602086016140a0565b91505092915050565b6000806000806080858703121561412a576141296138f2565b5b600061413887828801613afd565b945050602061414987828801613afd565b935050604061415a87828801613a89565b925050606085013567ffffffffffffffff81111561417b5761417a6138f7565b5b614187878288016140e2565b91505092959194509250565b600080604083850312156141aa576141a96138f2565b5b60006141b885828601613afd565b92505060206141c985828601613afd565b9150509250929050565b600080604083850312156141ea576141e96138f2565b5b60006141f885828601613afd565b925050602083013567ffffffffffffffff811115614219576142186138f7565b5b61422585828601613c59565b9150509250929050565b60008060408385031215614246576142456138f2565b5b600061425485828601613a89565b925050602061426585828601613fa0565b9150509250929050565b60008060408385031215614286576142856138f2565b5b600061429485828601613a89565b92505060206142a585828601613a89565b9150509250929050565b7f4e487b7100000000000000000000000000000000000000000000000000000000600052602260045260246000fd5b600060028204905060018216806142f657607f821691505b6020821081141561430a576143096142af565b5b50919050565b7f4552433732313a20617070726f76616c20746f2063757272656e74206f776e6560008201527f7200000000000000000000000000000000000000000000000000000000000000602082015250565b600061436c6021836139c2565b915061437782614310565b604082019050919050565b6000602082019050818103600083015261439b8161435f565b9050919050565b7f4552433732313a20617070726f76652063616c6c6572206973206e6f7420746f60008201527f6b656e206f776e6572206e6f7220617070726f76656420666f7220616c6c0000602082015250565b60006143fe603e836139c2565b9150614409826143a2565b604082019050919050565b6000602082019050818103600083015261442d816143f1565b9050919050565b600081905092915050565b600061444a826139b7565b6144548185614434565b93506144648185602086016139d3565b80840191505092915050565b600061447c828461443f565b915081905092915050565b7f4552433732313a2063616c6c6572206973206e6f7420746f6b656e206f776e6560008201527f72206e6f7220617070726f766564000000000000000000000000000000000000602082015250565b60006144e3602e836139c2565b91506144ee82614487565b604082019050919050565b60006020820190508181036000830152614512816144d6565b9050919050565b60008151905061452881613a72565b92915050565b600060208284031215614544576145436138f2565b5b600061455284828501614519565b91505092915050565b7f4552433732313a20696e76616c696420746f6b656e2049440000000000000000600082015250565b60006145916018836139c2565b915061459c8261455b565b602082019050919050565b600060208201905081810360008301526145c081614584565b9050919050565b7f4552433732313a2061646472657373207a65726f206973206e6f74206120766160008201527f6c6964206f776e65720000000000000000000000000000000000000000000000602082015250565b60006146236029836139c2565b915061462e826145c7565b604082019050919050565b6000602082019050818103600083015261465281614616565b9050919050565b7f596f752063616e6e6f74207472616e7366657220796f757220746f6b656e207460008201527f6f20796f757273656c6600000000000000000000000000000000000000000000602082015250565b60006146b5602a836139c2565b91506146c082614659565b604082019050919050565b600060208201905081810360008301526146e4816146a8565b9050919050565b7f4e487b7100000000000000000000000000000000000000000000000000000000600052601260045260246000fd5b7f4e487b7100000000000000000000000000000000000000000000000000000000600052601160045260246000fd5b6000614754826138a6565b915061475f836138a6565b92508261476f5761476e6146eb565b5b828204905092915050565b6000614785826138a6565b9150614790836138a6565b9250827fffffffffffffffffffffffffffffffffffffffffffffffffffffffffffffffff038211156147c5576147c461471a565b5b828201905092915050565b7f596f7520646f206e6f74206861766520656e6f75676820657468657220746f2060008201527f7061790000000000000000000000000000000000000000000000000000000000602082015250565b600061482c6023836139c2565b9150614837826147d0565b604082019050919050565b6000602082019050818103600083015261485b8161481f565b9050919050565b600061486e828561443f565b915061487a828461443f565b91508190509392505050565b7f5468697320746f6b656e206973206e6f7420666f722073616c65000000000000600082015250565b60006148bc601a836139c2565b91506148c782614886565b602082019050919050565b600060208201905081810360008301526148eb816148af565b9050919050565b7f596f752063616e277420707572636861736520796f7572206f776e20746f6b6560008201527f6e00000000000000000000000000000000000000000000000000000000000000602082015250565b600061494e6021836139c2565b9150614959826148f2565b604082019050919050565b6000602082019050818103600083015261497d81614941565b9050919050565b7f4f6e6c7920746865206f776e65722063616e20736574206120746f6b656e206660008201527f6f722073616c6500000000000000000000000000000000000000000000000000602082015250565b60006149e06027836139c2565b91506149eb82614984565b604082019050919050565b60006020820190508181036000830152614a0f816149d3565b9050919050565b7f4f776e61626c653a206e6577206f776e657220697320746865207a65726f206160008201527f6464726573730000000000000000000000000000000000000000000000000000602082015250565b6000614a726026836139c2565b9150614a7d82614a16565b604082019050919050565b60006020820190508181036000830152614aa181614a65565b9050919050565b7f4f6e6c7920746865206f776e65722063616e20736574206120746f6b656e207060008201527f7269636500000000000000000000000000000000000000000000000000000000602082015250565b6000614b046024836139c2565b9150614b0f82614aa8565b604082019050919050565b60006020820190508181036000830152614b3381614af7565b9050919050565b6000614b45826138a6565b9150614b50836138a6565b9250817fffffffffffffffffffffffffffffffffffffffffffffffffffffffffffffffff0483118215151615614b8957614b8861471a565b5b828202905092915050565b7f4552433732313a207472616e736665722066726f6d20696e636f72726563742060008201527f6f776e6572000000000000000000000000000000000000000000000000000000602082015250565b6000614bf06025836139c2565b9150614bfb82614b94565b604082019050919050565b60006020820190508181036000830152614c1f81614be3565b9050919050565b7f4552433732313a207472616e7366657220746f20746865207a65726f2061646460008201527f7265737300000000000000000000000000000000000000000000000000000000602082015250565b6000614c826024836139c2565b9150614c8d82614c26565b604082019050919050565b60006020820190508181036000830152614cb181614c75565b9050919050565b6000614cc3826138a6565b9150614cce836138a6565b925082821015614ce157614ce061471a565b5b828203905092915050565b7f4f776e61626c653a2063616c6c6572206973206e6f7420746865206f776e6572600082015250565b6000614d226020836139c2565b9150614d2d82614cec565b602082019050919050565b60006020820190508181036000830152614d5181614d15565b9050919050565b7f4552433732313a206d696e7420746f20746865207a65726f2061646472657373600082015250565b6000614d8e6020836139c2565b9150614d9982614d58565b602082019050919050565b60006020820190508181036000830152614dbd81614d81565b9050919050565b7f4552433732313a20746f6b656e20616c7265616479206d696e74656400000000600082015250565b6000614dfa601c836139c2565b9150614e0582614dc4565b602082019050919050565b60006020820190508181036000830152614e2981614ded565b9050919050565b7f45524337323155524953746f726167653a2055524920736574206f66206e6f6e60008201527f6578697374656e7420746f6b656e000000000000000000000000000000000000602082015250565b6000614e8c602e836139c2565b9150614e9782614e30565b604082019050919050565b60006020820190508181036000830152614ebb81614e7f565b9050919050565b7f4552433732313a20617070726f766520746f2063616c6c657200000000000000600082015250565b6000614ef86019836139c2565b9150614f0382614ec2565b602082019050919050565b60006020820190508181036000830152614f2781614eeb565b9050919050565b600081519050614f3d81613f89565b92915050565b600060208284031215614f5957614f586138f2565b5b6000614f6784828501614f2e565b91505092915050565b7f4552433732313a207472616e7366657220746f206e6f6e20455243373231526560008201527f63656976657220696d706c656d656e7465720000000000000000000000000000602082015250565b6000614fcc6032836139c2565b9150614fd782614f70565b604082019050919050565b60006020820190508181036000830152614ffb81614fbf565b9050919050565b600061500d826138a6565b91507fffffffffffffffffffffffffffffffffffffffffffffffffffffffffffffffff8214156150405761503f61471a565b5b600182019050919050565b7f426f6e7573206973206e6f7420636f7272656374000000000000000000000000600082015250565b60006150816014836139c2565b915061508c8261504b565b602082019050919050565b600060208201905081810360008301526150b081615074565b9050919050565b7f4e487b7100000000000000000000000000000000000000000000000000000000600052603260045260246000fd5b7f4e487b7100000000000000000000000000000000000000000000000000000000600052603160045260246000fd5b600081519050919050565b600082825260208201905092915050565b600061513c82615115565b6151468185615120565b93506151568185602086016139d3565b61515f81613a06565b840191505092915050565b600060808201905061517f6000830187613897565b61518c6020830186613897565b61519960408301856138b0565b81810360608301526151ab8184615131565b905095945050505050565b6000815190506151c581613928565b92915050565b6000602082840312156151e1576151e06138f2565b5b60006151ef848285016151b6565b91505092915050565b6000615203826138a6565b915061520e836138a6565b92508261521e5761521d6146eb565b5b82820690509291505056fea2646970667358221220a569d207f293c7679cc90474b9e7f9da9c69b405fc732f116c83aa4c0234642f64736f6c6343000809003360806040526103e86007553480156200001757600080fd5b50604051620024fb380380620024fb83398181016040528101906200003d919062000280565b6040518060400160405280600b81526020017f4d7920465420546f6b656e0000000000000000000000000000000000000000008152506040518060400160405280600581526020017f43436f696e0000000000000000000000000000000000000000000000000000008152508160039080519060200190620000c192919062000166565b508060049080519060200190620000da92919062000166565b50505033600560006101000a81548173ffffffffffffffffffffffffffffffffffffffff021916908373ffffffffffffffffffffffffffffffffffffffff16021790555080600860006101000a81548173ffffffffffffffffffffffffffffffffffffffff021916908373ffffffffffffffffffffffffffffffffffffffff1602179055505062000317565b8280546200017490620002e1565b90600052602060002090601f016020900481019282620001985760008555620001e4565b82601f10620001b357805160ff1916838001178555620001e4565b82800160010185558215620001e4579182015b82811115620001e3578251825591602001919060010190620001c6565b5b509050620001f39190620001f7565b5090565b5b8082111562000212576000816000905550600101620001f8565b5090565b600080fd5b600073ffffffffffffffffffffffffffffffffffffffff82169050919050565b600062000248826200021b565b9050919050565b6200025a816200023b565b81146200026657600080fd5b50565b6000815190506200027a816200024f565b92915050565b60006020828403121562000299576200029862000216565b5b6000620002a98482850162000269565b91505092915050565b7f4e487b7100000000000000000000000000000000000000000000000000000000600052602260045260246000fd5b60006002820490506001821680620002fa57607f821691505b60208210811415620003115762000310620002b2565b5b50919050565b6121d480620003276000396000f3fe608060405234801561001057600080fd5b50600436106101425760003560e01c806370a08231116100b8578063a9059cbb1161007c578063a9059cbb146103b6578063b4727906146103e6578063ce606ee014610416578063dd62ed3e14610434578063f117501c14610464578063fe65496e1461048057610142565b806370a08231146102fe5780637a6ce2e11461032e5780638e8dc6bc1461034c57806395d89b4114610368578063a457c2d71461038657610142565b8063178e7a2d1161010a578063178e7a2d1461021457806318160ddd1461023257806323b872dd14610250578063313ce56714610280578063395093511461029e5780636eacd398146102ce57610142565b806301608f5f1461014757806306fdde0314610177578063095ea7b314610195578063101c1778146101c55780631265ef82146101e3575b600080fd5b610161600480360381019061015c919061168a565b61049c565b60405161016e91906116d0565b60405180910390f35b61017f6104e8565b60405161018c9190611784565b60405180910390f35b6101af60048036038101906101aa91906117d2565b61057a565b6040516101bc919061182d565b60405180910390f35b6101cd61059d565b6040516101da9190611857565b60405180910390f35b6101fd60048036038101906101f8919061168a565b6105c7565b60405161020b929190611872565b60405180910390f35b61021c6105eb565b6040516102299190611857565b60405180910390f35b61023a610615565b60405161024791906116d0565b60405180910390f35b61026a6004803603810190610265919061189b565b61061f565b604051610277919061182d565b60405180910390f35b61028861064e565b604051610295919061190a565b60405180910390f35b6102b860048036038101906102b391906117d2565b610657565b6040516102c5919061182d565b60405180910390f35b6102e860048036038101906102e3919061168a565b61068e565b6040516102f591906116d0565b60405180910390f35b6103186004803603810190610313919061168a565b6106a5565b60405161032591906116d0565b60405180910390f35b6103366106ed565b6040516103439190611857565b60405180910390f35b6103666004803603810190610361919061168a565b6106f5565b005b6103706109b8565b60405161037d9190611784565b60405180910390f35b6103a0600480360381019061039b91906117d2565b610a4a565b6040516103ad919061182d565b60405180910390f35b6103d060048036038101906103cb91906117d2565b610ac1565b6040516103dd919061182d565b60405180910390f35b61040060048036038101906103fb91906117d2565b610ae4565b60405161040d919061182d565b60405180910390f35b61041e610c9b565b60405161042b9190611857565b60405180910390f35b61044e60048036038101906104499190611925565b610cc1565b60405161045b91906116d0565b60405180910390f35b61047e600480360381019061047991906117d2565b610d48565b005b61049a600480360381019061049591906117d2565b610e56565b005b6000600660008373ffffffffffffffffffffffffffffffffffffffff1673ffffffffffffffffffffffffffffffffffffffff168152602001908152602001600020600001549050919050565b6060600380546104f790611994565b80601f016020809104026020016040519081016040528092919081815260200182805461052390611994565b80156105705780601f1061054557610100808354040283529160200191610570565b820191906000526020600020905b81548152906001019060200180831161055357829003601f168201915b5050505050905090565b600080610585610f12565b9050610592818585610f1a565b600191505092915050565b6000600560009054906101000a900473ffffffffffffffffffffffffffffffffffffffff16905090565b60066020528060005260406000206000915090508060000154908060010154905082565b6000600860009054906101000a900473ffffffffffffffffffffffffffffffffffffffff16905090565b6000600254905090565b60008061062a610f12565b90506106378582856110e5565b610642858585611171565b60019150509392505050565b60006012905090565b600080610662610f12565b90506106838185856106748589610cc1565b61067e91906119f5565b610f1a565b600191505092915050565b60008061069a836106a5565b905080915050919050565b60008060008373ffffffffffffffffffffffffffffffffffffffff1673ffffffffffffffffffffffffffffffffffffffff168152602001908152602001600020549050919050565b600033905090565b3373ffffffffffffffffffffffffffffffffffffffff16600860009054906101000a900473ffffffffffffffffffffffffffffffffffffffff1673ffffffffffffffffffffffffffffffffffffffff1614610785576040517f08c379a000000000000000000000000000000000000000000000000000000000815260040161077c90611abd565b60405180910390fd5b6000600660008373ffffffffffffffffffffffffffffffffffffffff1673ffffffffffffffffffffffffffffffffffffffff16815260200190815260200160002060000154141561081c5742600660008373ffffffffffffffffffffffffffffffffffffffff1673ffffffffffffffffffffffffffffffffffffffff16815260200190815260200160002060010181905550610904565b62015180600660008373ffffffffffffffffffffffffffffffffffffffff1673ffffffffffffffffffffffffffffffffffffffff168152602001908152602001600020600101544261086e9190611add565b106109035742600660008373ffffffffffffffffffffffffffffffffffffffff1673ffffffffffffffffffffffffffffffffffffffff168152602001908152602001600020600101819055506000600660008373ffffffffffffffffffffffffffffffffffffffff1673ffffffffffffffffffffffffffffffffffffffff168152602001908152602001600020600001819055505b5b6001600660008373ffffffffffffffffffffffffffffffffffffffff1673ffffffffffffffffffffffffffffffffffffffff168152602001908152602001600020600001600082825461095791906119f5565b92505081905550600754600660008373ffffffffffffffffffffffffffffffffffffffff1673ffffffffffffffffffffffffffffffffffffffff16815260200190815260200160002060000154116109b5576109b48160016113f2565b5b50565b6060600480546109c790611994565b80601f01602080910402602001604051908101604052809291908181526020018280546109f390611994565b8015610a405780601f10610a1557610100808354040283529160200191610a40565b820191906000526020600020905b815481529060010190602001808311610a2357829003601f168201915b5050505050905090565b600080610a55610f12565b90506000610a638286610cc1565b905083811015610aa8576040517f08c379a0000000000000000000000000000000000000000000000000000000008152600401610a9f90611b83565b60405180910390fd5b610ab58286868403610f1a565b60019250505092915050565b600080610acc610f12565b9050610ad9818585611171565b600191505092915050565b60003373ffffffffffffffffffffffffffffffffffffffff16600860009054906101000a900473ffffffffffffffffffffffffffffffffffffffff1673ffffffffffffffffffffffffffffffffffffffff1614610b76576040517f08c379a0000000000000000000000000000000000000000000000000000000008152600401610b6d90611abd565b60405180910390fd5b600560009054906101000a900473ffffffffffffffffffffffffffffffffffffffff1673ffffffffffffffffffffffffffffffffffffffff168373ffffffffffffffffffffffffffffffffffffffff161415610c07576040517f08c379a0000000000000000000000000000000000000000000000000000000008152600401610bfe90611c15565b60405180910390fd5b610c1383600084611552565b6000610c1e846106a5565b905082811015610c63576040517f08c379a0000000000000000000000000000000000000000000000000000000008152600401610c5a90611ca7565b60405180910390fd5b610c9084600560009054906101000a900473ffffffffffffffffffffffffffffffffffffffff1685611171565b600191505092915050565b600560009054906101000a900473ffffffffffffffffffffffffffffffffffffffff1681565b6000600160008473ffffffffffffffffffffffffffffffffffffffff1673ffffffffffffffffffffffffffffffffffffffff16815260200190815260200160002060008373ffffffffffffffffffffffffffffffffffffffff1673ffffffffffffffffffffffffffffffffffffffff16815260200190815260200160002054905092915050565b3373ffffffffffffffffffffffffffffffffffffffff16600860009054906101000a900473ffffffffffffffffffffffffffffffffffffffff1673ffffffffffffffffffffffffffffffffffffffff1614610dd8576040517f08c379a0000000000000000000000000000000000000000000000000000000008152600401610dcf90611abd565b60405180910390fd5b80610de2336106a5565b1015610e23576040517f08c379a0000000000000000000000000000000000000000000000000000000008152600401610e1a90611d13565b60405180910390fd5b610e4760405180606001604052806024815260200161217b60249139338484611557565b610e52338383611171565b5050565b3373ffffffffffffffffffffffffffffffffffffffff16600860009054906101000a900473ffffffffffffffffffffffffffffffffffffffff1673ffffffffffffffffffffffffffffffffffffffff1614610ee6576040517f08c379a0000000000000000000000000000000000000000000000000000000008152600401610edd90611abd565b60405180910390fd5b60005b81811015610f0d57610efa836106f5565b8080610f0590611d33565b915050610ee9565b505050565b600033905090565b600073ffffffffffffffffffffffffffffffffffffffff168373ffffffffffffffffffffffffffffffffffffffff161415610f8a576040517f08c379a0000000000000000000000000000000000000000000000000000000008152600401610f8190611dee565b60405180910390fd5b600073ffffffffffffffffffffffffffffffffffffffff168273ffffffffffffffffffffffffffffffffffffffff161415610ffa576040517f08c379a0000000000000000000000000000000000000000000000000000000008152600401610ff190611e80565b60405180910390fd5b80600160008573ffffffffffffffffffffffffffffffffffffffff1673ffffffffffffffffffffffffffffffffffffffff16815260200190815260200160002060008473ffffffffffffffffffffffffffffffffffffffff1673ffffffffffffffffffffffffffffffffffffffff168152602001908152602001600020819055508173ffffffffffffffffffffffffffffffffffffffff168373ffffffffffffffffffffffffffffffffffffffff167f8c5be1e5ebec7d5bd14f71427d1e84f3dd0314c0f7b2291e5b200ac8c7c3b925836040516110d891906116d0565b60405180910390a3505050565b60006110f18484610cc1565b90507fffffffffffffffffffffffffffffffffffffffffffffffffffffffffffffffff811461116b578181101561115d576040517f08c379a000000000000000000000000000000000000000000000000000000000815260040161115490611eec565b60405180910390fd5b61116a8484848403610f1a565b5b50505050565b600073ffffffffffffffffffffffffffffffffffffffff168373ffffffffffffffffffffffffffffffffffffffff1614156111e1576040517f08c379a00000000000000000000000000000000000000000000000000000000081526004016111d890611f7e565b60405180910390fd5b600073ffffffffffffffffffffffffffffffffffffffff168273ffffffffffffffffffffffffffffffffffffffff161415611251576040517f08c379a000000000000000000000000000000000000000000000000000000000815260040161124890612010565b60405180910390fd5b61125c838383611552565b60008060008573ffffffffffffffffffffffffffffffffffffffff1673ffffffffffffffffffffffffffffffffffffffff168152602001908152602001600020549050818110156112e2576040517f08c379a00000000000000000000000000000000000000000000000000000000081526004016112d9906120a2565b60405180910390fd5b8181036000808673ffffffffffffffffffffffffffffffffffffffff1673ffffffffffffffffffffffffffffffffffffffff16815260200190815260200160002081905550816000808573ffffffffffffffffffffffffffffffffffffffff1673ffffffffffffffffffffffffffffffffffffffff168152602001908152602001600020600082825461137591906119f5565b925050819055508273ffffffffffffffffffffffffffffffffffffffff168473ffffffffffffffffffffffffffffffffffffffff167fddf252ad1be2c89b69c2b068fc378daa952ba7f163c4a11628f55a4df523b3ef846040516113d991906116d0565b60405180910390a36113ec8484846115f9565b50505050565b600073ffffffffffffffffffffffffffffffffffffffff168273ffffffffffffffffffffffffffffffffffffffff161415611462576040517f08c379a00000000000000000000000000000000000000000000000000000000081526004016114599061210e565b60405180910390fd5b61146e60008383611552565b806002600082825461148091906119f5565b92505081905550806000808473ffffffffffffffffffffffffffffffffffffffff1673ffffffffffffffffffffffffffffffffffffffff16815260200190815260200160002060008282546114d591906119f5565b925050819055508173ffffffffffffffffffffffffffffffffffffffff16600073ffffffffffffffffffffffffffffffffffffffff167fddf252ad1be2c89b69c2b068fc378daa952ba7f163c4a11628f55a4df523b3ef8360405161153a91906116d0565b60405180910390a361154e600083836115f9565b5050565b505050565b6115f384848484604051602401611571949392919061212e565b6040516020818303038152906040527f6eb7943d000000000000000000000000000000000000000000000000000000007bffffffffffffffffffffffffffffffffffffffffffffffffffffffff19166020820180517bffffffffffffffffffffffffffffffffffffffffffffffffffffffff83818316178352505050506115fe565b50505050565b505050565b60008151905060006a636f6e736f6c652e6c6f679050602083016000808483855afa5050505050565b600080fd5b600073ffffffffffffffffffffffffffffffffffffffff82169050919050565b60006116578261162c565b9050919050565b6116678161164c565b811461167257600080fd5b50565b6000813590506116848161165e565b92915050565b6000602082840312156116a05761169f611627565b5b60006116ae84828501611675565b91505092915050565b6000819050919050565b6116ca816116b7565b82525050565b60006020820190506116e560008301846116c1565b92915050565b600081519050919050565b600082825260208201905092915050565b60005b8381101561172557808201518184015260208101905061170a565b83811115611734576000848401525b50505050565b6000601f19601f8301169050919050565b6000611756826116eb565b61176081856116f6565b9350611770818560208601611707565b6117798161173a565b840191505092915050565b6000602082019050818103600083015261179e818461174b565b905092915050565b6117af816116b7565b81146117ba57600080fd5b50565b6000813590506117cc816117a6565b92915050565b600080604083850312156117e9576117e8611627565b5b60006117f785828601611675565b9250506020611808858286016117bd565b9150509250929050565b60008115159050919050565b61182781611812565b82525050565b6000602082019050611842600083018461181e565b92915050565b6118518161164c565b82525050565b600060208201905061186c6000830184611848565b92915050565b600060408201905061188760008301856116c1565b61189460208301846116c1565b9392505050565b6000806000606084860312156118b4576118b3611627565b5b60006118c286828701611675565b93505060206118d386828701611675565b92505060406118e4868287016117bd565b9150509250925092565b600060ff82169050919050565b611904816118ee565b82525050565b600060208201905061191f60008301846118fb565b92915050565b6000806040838503121561193c5761193b611627565b5b600061194a85828601611675565b925050602061195b85828601611675565b9150509250929050565b7f4e487b7100000000000000000000000000000000000000000000000000000000600052602260045260246000fd5b600060028204905060018216806119ac57607f821691505b602082108114156119c0576119bf611965565b5b50919050565b7f4e487b7100000000000000000000000000000000000000000000000000000000600052601160045260246000fd5b6000611a00826116b7565b9150611a0b836116b7565b9250827fffffffffffffffffffffffffffffffffffffffffffffffffffffffffffffffff03821115611a4057611a3f6119c6565b5b828201905092915050565b7f4f6e6c792041436f696e20636f6e74726163742063616e2063616c6c2074686960008201527f732043436f696e2066756e6374696f6e2e000000000000000000000000000000602082015250565b6000611aa76031836116f6565b9150611ab282611a4b565b604082019050919050565b60006020820190508181036000830152611ad681611a9a565b9050919050565b6000611ae8826116b7565b9150611af3836116b7565b925082821015611b0657611b056119c6565b5b828203905092915050565b7f45524332303a2064656372656173656420616c6c6f77616e63652062656c6f7760008201527f207a65726f000000000000000000000000000000000000000000000000000000602082015250565b6000611b6d6025836116f6565b9150611b7882611b11565b604082019050919050565b60006020820190508181036000830152611b9c81611b60565b9050919050565b7f45524332303a206275726e2066726f6d2074686520636f6e74726163744f776e60008201527f6572206164647265737300000000000000000000000000000000000000000000602082015250565b6000611bff602a836116f6565b9150611c0a82611ba3565b604082019050919050565b60006020820190508181036000830152611c2e81611bf2565b9050919050565b7f45524332303a206275726e20616d6f756e7420657863656564732062616c616e60008201527f6365000000000000000000000000000000000000000000000000000000000000602082015250565b6000611c916022836116f6565b9150611c9c82611c35565b604082019050919050565b60006020820190508181036000830152611cc081611c84565b9050919050565b7f4e6f7420656e6f75676820746f6b656e73000000000000000000000000000000600082015250565b6000611cfd6011836116f6565b9150611d0882611cc7565b602082019050919050565b60006020820190508181036000830152611d2c81611cf0565b9050919050565b6000611d3e826116b7565b91507fffffffffffffffffffffffffffffffffffffffffffffffffffffffffffffffff821415611d7157611d706119c6565b5b600182019050919050565b7f45524332303a20617070726f76652066726f6d20746865207a65726f2061646460008201527f7265737300000000000000000000000000000000000000000000000000000000602082015250565b6000611dd86024836116f6565b9150611de382611d7c565b604082019050919050565b60006020820190508181036000830152611e0781611dcb565b9050919050565b7f45524332303a20617070726f766520746f20746865207a65726f20616464726560008201527f7373000000000000000000000000000000000000000000000000000000000000602082015250565b6000611e6a6022836116f6565b9150611e7582611e0e565b604082019050919050565b60006020820190508181036000830152611e9981611e5d565b9050919050565b7f45524332303a20696e73756666696369656e7420616c6c6f77616e6365000000600082015250565b6000611ed6601d836116f6565b9150611ee182611ea0565b602082019050919050565b60006020820190508181036000830152611f0581611ec9565b9050919050565b7f45524332303a207472616e736665722066726f6d20746865207a65726f20616460008201527f6472657373000000000000000000000000000000000000000000000000000000602082015250565b6000611f686025836116f6565b9150611f7382611f0c565b604082019050919050565b60006020820190508181036000830152611f9781611f5b565b9050919050565b7f45524332303a207472616e7366657220746f20746865207a65726f206164647260008201527f6573730000000000000000000000000000000000000000000000000000000000602082015250565b6000611ffa6023836116f6565b915061200582611f9e565b604082019050919050565b6000602082019050818103600083015261202981611fed565b9050919050565b7f45524332303a207472616e7366657220616d6f756e742065786365656473206260008201527f616c616e63650000000000000000000000000000000000000000000000000000602082015250565b600061208c6026836116f6565b915061209782612030565b604082019050919050565b600060208201905081810360008301526120bb8161207f565b9050919050565b7f45524332303a206d696e7420746f20746865207a65726f206164647265737300600082015250565b60006120f8601f836116f6565b9150612103826120c2565b602082019050919050565b60006020820190508181036000830152612127816120eb565b9050919050565b60006080820190508181036000830152612148818761174b565b90506121576020830186611848565b6121646040830185611848565b61217160608301846116c1565b9594505050505056fe5472616e7366657272696e672066726f6d20257320746f20257320257320746f6b656e73a26469706673582212207e6bad714fffda1d68e6f0187b40178cd8461d95571985b8f121f284355afc4b64736f6c63430008090033",
  "linkReferences": {},
  "deployedLinkReferences": {}
}